{
  "_format": "hh-sol-artifact-1",
  "contractName": "USMArtistToken",
  "sourceName": "contracts/USMArtistToken.sol",
  "abi": [
    {
      "inputs": [
        {
          "internalType": "string",
          "name": "name",
          "type": "string"
        },
        {
          "internalType": "string",
          "name": "symbol",
          "type": "string"
        }
      ],
      "stateMutability": "nonpayable",
      "type": "constructor"
    },
    {
      "anonymous": false,
      "inputs": [
        {
          "indexed": true,
          "internalType": "address",
          "name": "owner",
          "type": "address"
        },
        {
          "indexed": true,
          "internalType": "address",
          "name": "approved",
          "type": "address"
        },
        {
          "indexed": true,
          "internalType": "uint256",
          "name": "tokenId",
          "type": "uint256"
        }
      ],
      "name": "Approval",
      "type": "event"
    },
    {
      "anonymous": false,
      "inputs": [
        {
          "indexed": true,
          "internalType": "address",
          "name": "owner",
          "type": "address"
        },
        {
          "indexed": true,
          "internalType": "address",
          "name": "operator",
          "type": "address"
        },
        {
          "indexed": false,
          "internalType": "bool",
          "name": "approved",
          "type": "bool"
        }
      ],
      "name": "ApprovalForAll",
      "type": "event"
    },
    {
      "anonymous": false,
      "inputs": [
        {
          "indexed": true,
          "internalType": "address",
          "name": "previousOwner",
          "type": "address"
        },
        {
          "indexed": true,
          "internalType": "address",
          "name": "newOwner",
          "type": "address"
        }
      ],
      "name": "OwnershipTransferred",
      "type": "event"
    },
    {
      "anonymous": false,
      "inputs": [
        {
          "indexed": true,
          "internalType": "address",
          "name": "from",
          "type": "address"
        },
        {
          "indexed": true,
          "internalType": "address",
          "name": "to",
          "type": "address"
        },
        {
          "indexed": true,
          "internalType": "uint256",
          "name": "tokenId",
          "type": "uint256"
        }
      ],
      "name": "Transfer",
      "type": "event"
    },
    {
      "inputs": [],
      "name": "ARTIST_CAP",
      "outputs": [
        {
          "internalType": "uint256",
          "name": "",
          "type": "uint256"
        }
      ],
      "stateMutability": "view",
      "type": "function"
    },
    {
      "inputs": [
        {
          "internalType": "address",
          "name": "to",
          "type": "address"
        },
        {
          "internalType": "uint256",
          "name": "tokenId",
          "type": "uint256"
        }
      ],
      "name": "approve",
      "outputs": [],
      "stateMutability": "nonpayable",
      "type": "function"
    },
    {
      "inputs": [
        {
          "internalType": "address",
          "name": "owner",
          "type": "address"
        }
      ],
      "name": "balanceOf",
      "outputs": [
        {
          "internalType": "uint256",
          "name": "",
          "type": "uint256"
        }
      ],
      "stateMutability": "view",
      "type": "function"
    },
    {
      "inputs": [],
      "name": "calculatePrice",
      "outputs": [
        {
          "internalType": "uint256",
          "name": "",
          "type": "uint256"
        }
      ],
      "stateMutability": "view",
      "type": "function"
    },
    {
      "inputs": [
        {
          "internalType": "string",
          "name": "uri",
          "type": "string"
        }
      ],
      "name": "createArtist",
      "outputs": [
        {
          "internalType": "uint256",
          "name": "",
          "type": "uint256"
        }
      ],
      "stateMutability": "payable",
      "type": "function"
    },
    {
      "inputs": [
        {
          "internalType": "uint256",
          "name": "tokenId",
          "type": "uint256"
        }
      ],
      "name": "getApproved",
      "outputs": [
        {
          "internalType": "address",
          "name": "",
          "type": "address"
        }
      ],
      "stateMutability": "view",
      "type": "function"
    },
    {
      "inputs": [
        {
          "internalType": "address",
          "name": "owner",
          "type": "address"
        },
        {
          "internalType": "address",
          "name": "operator",
          "type": "address"
        }
      ],
      "name": "isApprovedForAll",
      "outputs": [
        {
          "internalType": "bool",
          "name": "",
          "type": "bool"
        }
      ],
      "stateMutability": "view",
      "type": "function"
    },
    {
      "inputs": [],
      "name": "name",
      "outputs": [
        {
          "internalType": "string",
          "name": "",
          "type": "string"
        }
      ],
      "stateMutability": "view",
      "type": "function"
    },
    {
      "inputs": [],
      "name": "owner",
      "outputs": [
        {
          "internalType": "address",
          "name": "",
          "type": "address"
        }
      ],
      "stateMutability": "view",
      "type": "function"
    },
    {
      "inputs": [
        {
          "internalType": "uint256",
          "name": "tokenId",
          "type": "uint256"
        }
      ],
      "name": "ownerOf",
      "outputs": [
        {
          "internalType": "address",
          "name": "",
          "type": "address"
        }
      ],
      "stateMutability": "view",
      "type": "function"
    },
    {
      "inputs": [],
      "name": "renounceOwnership",
      "outputs": [],
      "stateMutability": "nonpayable",
      "type": "function"
    },
    {
      "inputs": [
        {
          "internalType": "address",
          "name": "from",
          "type": "address"
        },
        {
          "internalType": "address",
          "name": "to",
          "type": "address"
        },
        {
          "internalType": "uint256",
          "name": "tokenId",
          "type": "uint256"
        }
      ],
      "name": "safeTransferFrom",
      "outputs": [],
      "stateMutability": "nonpayable",
      "type": "function"
    },
    {
      "inputs": [
        {
          "internalType": "address",
          "name": "from",
          "type": "address"
        },
        {
          "internalType": "address",
          "name": "to",
          "type": "address"
        },
        {
          "internalType": "uint256",
          "name": "tokenId",
          "type": "uint256"
        },
        {
          "internalType": "bytes",
          "name": "_data",
          "type": "bytes"
        }
      ],
      "name": "safeTransferFrom",
      "outputs": [],
      "stateMutability": "nonpayable",
      "type": "function"
    },
    {
      "inputs": [
        {
          "internalType": "address",
          "name": "operator",
          "type": "address"
        },
        {
          "internalType": "bool",
          "name": "approved",
          "type": "bool"
        }
      ],
      "name": "setApprovalForAll",
      "outputs": [],
      "stateMutability": "nonpayable",
      "type": "function"
    },
    {
      "inputs": [
        {
          "internalType": "bytes4",
          "name": "interfaceId",
          "type": "bytes4"
        }
      ],
      "name": "supportsInterface",
      "outputs": [
        {
          "internalType": "bool",
          "name": "",
          "type": "bool"
        }
      ],
      "stateMutability": "view",
      "type": "function"
    },
    {
      "inputs": [],
      "name": "symbol",
      "outputs": [
        {
          "internalType": "string",
          "name": "",
          "type": "string"
        }
      ],
      "stateMutability": "view",
      "type": "function"
    },
    {
      "inputs": [
        {
          "internalType": "uint256",
          "name": "index",
          "type": "uint256"
        }
      ],
      "name": "tokenByIndex",
      "outputs": [
        {
          "internalType": "uint256",
          "name": "",
          "type": "uint256"
        }
      ],
      "stateMutability": "view",
      "type": "function"
    },
    {
      "inputs": [
        {
          "internalType": "address",
          "name": "owner",
          "type": "address"
        },
        {
          "internalType": "uint256",
          "name": "index",
          "type": "uint256"
        }
      ],
      "name": "tokenOfOwnerByIndex",
      "outputs": [
        {
          "internalType": "uint256",
          "name": "",
          "type": "uint256"
        }
      ],
      "stateMutability": "view",
      "type": "function"
    },
    {
      "inputs": [
        {
          "internalType": "uint256",
          "name": "tokenId",
          "type": "uint256"
        }
      ],
      "name": "tokenURI",
      "outputs": [
        {
          "internalType": "string",
          "name": "",
          "type": "string"
        }
      ],
      "stateMutability": "view",
      "type": "function"
    },
    {
      "inputs": [],
      "name": "totalSupply",
      "outputs": [
        {
          "internalType": "uint256",
          "name": "",
          "type": "uint256"
        }
      ],
      "stateMutability": "view",
      "type": "function"
    },
    {
      "inputs": [
        {
          "internalType": "address",
          "name": "from",
          "type": "address"
        },
        {
          "internalType": "address",
          "name": "to",
          "type": "address"
        },
        {
          "internalType": "uint256",
          "name": "tokenId",
          "type": "uint256"
        }
      ],
      "name": "transferFrom",
      "outputs": [],
      "stateMutability": "nonpayable",
      "type": "function"
    },
    {
      "inputs": [
        {
          "internalType": "address",
          "name": "newOwner",
          "type": "address"
        }
      ],
      "name": "transferOwnership",
      "outputs": [],
      "stateMutability": "nonpayable",
      "type": "function"
    }
  ],
  "bytecode": "0x60806040523480156200001157600080fd5b506040516200239e3803806200239e833981016040819052620000349162000223565b8151829082906200004d906000906020850190620000d2565b50805162000063906001906020840190620000d2565b505050600062000078620000ce60201b60201c565b600b80546001600160a01b0319166001600160a01b038316908117909155604051919250906000907f8be0079c531659141344cd1fd0a4f28419497f9722a3daafe3b4186f6b6457e0908290a3505050620002dd565b3390565b828054620000e0906200028a565b90600052602060002090601f0160209004810192826200010457600085556200014f565b82601f106200011f57805160ff19168380011785556200014f565b828001600101855582156200014f579182015b828111156200014f57825182559160200191906001019062000132565b506200015d92915062000161565b5090565b5b808211156200015d576000815560010162000162565b600082601f83011262000189578081fd5b81516001600160401b0380821115620001a657620001a6620002c7565b6040516020601f8401601f1916820181018381118382101715620001ce57620001ce620002c7565b6040528382528584018101871015620001e5578485fd5b8492505b83831015620002085785830181015182840182015291820191620001e9565b838311156200021957848185840101525b5095945050505050565b6000806040838503121562000236578182fd5b82516001600160401b03808211156200024d578384fd5b6200025b8683870162000178565b9350602085015191508082111562000271578283fd5b50620002808582860162000178565b9150509250929050565b6002810460018216806200029f57607f821691505b60208210811415620002c157634e487b7160e01b600052602260045260246000fd5b50919050565b634e487b7160e01b600052604160045260246000fd5b6120b180620002ed6000396000f3fe6080604052600436106101355760003560e01c806370a08231116100ab578063b88d4fde1161006f578063b88d4fde14610337578063c87b56dd14610357578063d348b40914610377578063e08969031461038c578063e985e9c51461039f578063f2fde38b146103bf57610135565b806370a08231146102b8578063715018a6146102d85780638da5cb5b146102ed57806395d89b4114610302578063a22cb4651461031757610135565b806323b872dd116100fd57806323b872dd146102035780632f745c59146102235780633a97438e1461024357806342842e0e146102585780634f6ccce7146102785780636352211e1461029857610135565b806301ffc9a71461013a57806306fdde0314610170578063081812fc14610192578063095ea7b3146101bf57806318160ddd146101e1575b600080fd5b34801561014657600080fd5b5061015a610155366004611797565b6103df565b60405161016791906118d9565b60405180910390f35b34801561017c57600080fd5b506101856103f2565b60405161016791906118e4565b34801561019e57600080fd5b506101b26101ad366004611815565b610484565b6040516101679190611888565b3480156101cb57600080fd5b506101df6101da36600461176e565b6104d0565b005b3480156101ed57600080fd5b506101f6610568565b6040516101679190611f3e565b34801561020f57600080fd5b506101df61021e366004611680565b61056e565b34801561022f57600080fd5b506101f661023e36600461176e565b6105a6565b34801561024f57600080fd5b506101f66105f8565b34801561026457600080fd5b506101df610273366004611680565b6105fd565b34801561028457600080fd5b506101f6610293366004611815565b610618565b3480156102a457600080fd5b506101b26102b3366004611815565b610673565b3480156102c457600080fd5b506101f66102d3366004611634565b6106a8565b3480156102e457600080fd5b506101df6106ec565b3480156102f957600080fd5b506101b2610775565b34801561030e57600080fd5b50610185610784565b34801561032357600080fd5b506101df610332366004611734565b610793565b34801561034357600080fd5b506101df6103523660046116bb565b610861565b34801561036357600080fd5b50610185610372366004611815565b6108a0565b34801561038357600080fd5b506101f66108ab565b6101f661039a3660046117cf565b6108b7565b3480156103ab57600080fd5b5061015a6103ba36600461164e565b610987565b3480156103cb57600080fd5b506101df6103da366004611634565b6109b5565b60006103ea82610a76565b90505b919050565b60606000805461040190611fb6565b80601f016020809104026020016040519081016040528092919081815260200182805461042d90611fb6565b801561047a5780601f1061044f5761010080835404028352916020019161047a565b820191906000526020600020905b81548152906001019060200180831161045d57829003601f168201915b5050505050905090565b600061048f82610a9b565b6104b45760405162461bcd60e51b81526004016104ab90611c9c565b60405180910390fd5b506000908152600460205260409020546001600160a01b031690565b60006104db82610673565b9050806001600160a01b0316836001600160a01b0316141561050f5760405162461bcd60e51b81526004016104ab90611e29565b806001600160a01b0316610521610ab8565b6001600160a01b0316148061053d575061053d816103ba610ab8565b6105595760405162461bcd60e51b81526004016104ab90611ad8565b6105638383610abc565b505050565b60085490565b61057f610579610ab8565b82610b2a565b61059b5760405162461bcd60e51b81526004016104ab90611e6a565b610563838383610baf565b60006105b1836106a8565b82106105cf5760405162461bcd60e51b81526004016104ab906118f7565b506001600160a01b03919091166000908152600660209081526040808320938352929052205490565b605081565b61056383838360405180602001604052806000815250610861565b6000610622610568565b82106106405760405162461bcd60e51b81526004016104ab90611ebb565b6008828154811061066157634e487b7160e01b600052603260045260246000fd5b90600052602060002001549050919050565b6000818152600260205260408120546001600160a01b0316806103ea5760405162461bcd60e51b81526004016104ab90611b7f565b60006001600160a01b0382166106d05760405162461bcd60e51b81526004016104ab90611b35565b506001600160a01b031660009081526003602052604090205490565b6106f4610ab8565b6001600160a01b0316610705610775565b6001600160a01b03161461072b5760405162461bcd60e51b81526004016104ab90611d18565b600b546040516000916001600160a01b0316907f8be0079c531659141344cd1fd0a4f28419497f9722a3daafe3b4186f6b6457e0908390a3600b80546001600160a01b0319169055565b600b546001600160a01b031690565b60606001805461040190611fb6565b61079b610ab8565b6001600160a01b0316826001600160a01b031614156107cc5760405162461bcd60e51b81526004016104ab90611a55565b80600560006107d9610ab8565b6001600160a01b03908116825260208083019390935260409182016000908120918716808252919093529120805460ff19169215159290921790915561081d610ab8565b6001600160a01b03167f17307eab39ab6107e8899845ad3d59bd9653f200f220920489ca2b5937696c318360405161085591906118d9565b60405180910390a35050565b61087261086c610ab8565b83610b2a565b61088e5760405162461bcd60e51b81526004016104ab90611e6a565b61089a84848484610cdc565b50505050565b60606103ea82610d0f565b670214e8348c4f000090565b600060506108c5600c610e28565b11156108e35760405162461bcd60e51b81526004016104ab90611f07565b336000908152600d602052604090205460ff16156109135760405162461bcd60e51b81526004016104ab90611de5565b61091b6108ab565b34101561093a5760405162461bcd60e51b81526004016104ab90611ce8565b610944600c610e2c565b6000610950600c610e28565b905061095c3382610e35565b6109668184610f14565b336000908152600d60205260409020805460ff191660011790559050919050565b6001600160a01b03918216600090815260056020908152604080832093909416825291909152205460ff1690565b6109bd610ab8565b6001600160a01b03166109ce610775565b6001600160a01b0316146109f45760405162461bcd60e51b81526004016104ab90611d18565b6001600160a01b038116610a1a5760405162461bcd60e51b81526004016104ab90611994565b600b546040516001600160a01b038084169216907f8be0079c531659141344cd1fd0a4f28419497f9722a3daafe3b4186f6b6457e090600090a3600b80546001600160a01b0319166001600160a01b0392909216919091179055565b60006001600160e01b0319821663780e9d6360e01b14806103ea57506103ea82610f58565b6000908152600260205260409020546001600160a01b0316151590565b3390565b600081815260046020526040902080546001600160a01b0319166001600160a01b0384169081179091558190610af182610673565b6001600160a01b03167f8c5be1e5ebec7d5bd14f71427d1e84f3dd0314c0f7b2291e5b200ac8c7c3b92560405160405180910390a45050565b6000610b3582610a9b565b610b515760405162461bcd60e51b81526004016104ab90611a8c565b6000610b5c83610673565b9050806001600160a01b0316846001600160a01b03161480610b975750836001600160a01b0316610b8c84610484565b6001600160a01b0316145b80610ba75750610ba78185610987565b949350505050565b826001600160a01b0316610bc282610673565b6001600160a01b031614610be85760405162461bcd60e51b81526004016104ab90611d4d565b6001600160a01b038216610c0e5760405162461bcd60e51b81526004016104ab90611a11565b610c19838383610f98565b610c24600082610abc565b6001600160a01b0383166000908152600360205260408120805460019290610c4d908490611f73565b90915550506001600160a01b0382166000908152600360205260408120805460019290610c7b908490611f47565b909155505060008181526002602052604080822080546001600160a01b0319166001600160a01b0386811691821790925591518493918716917fddf252ad1be2c89b69c2b068fc378daa952ba7f163c4a11628f55a4df523b3ef91a4505050565b610ce7848484610baf565b610cf384848484610fa3565b61089a5760405162461bcd60e51b81526004016104ab90611942565b6060610d1a82610a9b565b610d365760405162461bcd60e51b81526004016104ab90611c4b565b6000828152600a602052604081208054610d4f90611fb6565b80601f0160208091040260200160405190810160405280929190818152602001828054610d7b90611fb6565b8015610dc85780601f10610d9d57610100808354040283529160200191610dc8565b820191906000526020600020905b815481529060010190602001808311610dab57829003601f168201915b505050505090506000610dd96110be565b9050805160001415610ded575090506103ed565b815115610e1f578082604051602001610e07929190611859565b604051602081830303815290604052925050506103ed565b610ba7846110d0565b5490565b80546001019055565b6001600160a01b038216610e5b5760405162461bcd60e51b81526004016104ab90611c16565b610e6481610a9b565b15610e815760405162461bcd60e51b81526004016104ab906119da565b610e8d60008383610f98565b6001600160a01b0382166000908152600360205260408120805460019290610eb6908490611f47565b909155505060008181526002602052604080822080546001600160a01b0319166001600160a01b03861690811790915590518392907fddf252ad1be2c89b69c2b068fc378daa952ba7f163c4a11628f55a4df523b3ef908290a45050565b610f1d82610a9b565b610f395760405162461bcd60e51b81526004016104ab90611bc8565b6000828152600a60209081526040909120825161056392840190611514565b60006001600160e01b031982166380ac58cd60e01b1480610f8957506001600160e01b03198216635b5e139f60e01b145b806103ea57506103ea82611153565b61056383838361116c565b6000610fb7846001600160a01b03166111f5565b156110b357836001600160a01b031663150b7a02610fd3610ab8565b8786866040518563ffffffff1660e01b8152600401610ff5949392919061189c565b602060405180830381600087803b15801561100f57600080fd5b505af192505050801561103f575060408051601f3d908101601f1916820190925261103c918101906117b3565b60015b611099573d80801561106d576040519150601f19603f3d011682016040523d82523d6000602084013e611072565b606091505b5080516110915760405162461bcd60e51b81526004016104ab90611942565b805181602001fd5b6001600160e01b031916630a85bd0160e11b149050610ba7565b506001949350505050565b60408051602081019091526000815290565b60606110db82610a9b565b6110f75760405162461bcd60e51b81526004016104ab90611d96565b60006111016110be565b90506000815111611121576040518060200160405280600081525061114c565b8061112b846111fb565b60405160200161113c929190611859565b6040516020818303038152906040525b9392505050565b6001600160e01b031981166301ffc9a760e01b14919050565b611177838383610563565b6001600160a01b0383166111935761118e81611316565b6111b6565b816001600160a01b0316836001600160a01b0316146111b6576111b6838261135a565b6001600160a01b0382166111d2576111cd816113f7565b610563565b826001600160a01b0316826001600160a01b0316146105635761056382826114d0565b3b151590565b60608161122057506040805180820190915260018152600360fc1b60208201526103ed565b8160005b811561124a578061123481611ff1565b91506112439050600a83611f5f565b9150611224565b60008167ffffffffffffffff81111561127357634e487b7160e01b600052604160045260246000fd5b6040519080825280601f01601f19166020018201604052801561129d576020820181803683370190505b5090505b8415610ba7576112b2600183611f73565b91506112bf600a8661200c565b6112ca906030611f47565b60f81b8183815181106112ed57634e487b7160e01b600052603260045260246000fd5b60200101906001600160f81b031916908160001a90535061130f600a86611f5f565b94506112a1565b600880546000838152600960205260408120829055600182018355919091527ff3f7a9fe364faab93b216da50a3214154f22a0a2b415b23a84c8169e8b636ee30155565b60006001611367846106a8565b6113719190611f73565b6000838152600760205260409020549091508082146113c4576001600160a01b03841660009081526006602090815260408083208584528252808320548484528184208190558352600790915290208190555b5060009182526007602090815260408084208490556001600160a01b039094168352600681528383209183525290812055565b60085460009061140990600190611f73565b6000838152600960205260408120546008805493945090928490811061143f57634e487b7160e01b600052603260045260246000fd5b90600052602060002001549050806008838154811061146e57634e487b7160e01b600052603260045260246000fd5b60009182526020808320909101929092558281526009909152604080822084905585825281205560088054806114b457634e487b7160e01b600052603160045260246000fd5b6001900381819060005260206000200160009055905550505050565b60006114db836106a8565b6001600160a01b039093166000908152600660209081526040808320868452825280832085905593825260079052919091209190915550565b82805461152090611fb6565b90600052602060002090601f0160209004810192826115425760008555611588565b82601f1061155b57805160ff1916838001178555611588565b82800160010185558215611588579182015b8281111561158857825182559160200191906001019061156d565b50611594929150611598565b5090565b5b808211156115945760008155600101611599565b600067ffffffffffffffff808411156115c8576115c861204c565b604051601f8501601f1916810160200182811182821017156115ec576115ec61204c565b60405284815291508183850186101561160457600080fd5b8484602083013760006020868301015250509392505050565b80356001600160a01b03811681146103ed57600080fd5b600060208284031215611645578081fd5b61114c8261161d565b60008060408385031215611660578081fd5b6116698361161d565b91506116776020840161161d565b90509250929050565b600080600060608486031215611694578081fd5b61169d8461161d565b92506116ab6020850161161d565b9150604084013590509250925092565b600080600080608085870312156116d0578081fd5b6116d98561161d565b93506116e76020860161161d565b925060408501359150606085013567ffffffffffffffff811115611709578182fd5b8501601f81018713611719578182fd5b611728878235602084016115ad565b91505092959194509250565b60008060408385031215611746578182fd5b61174f8361161d565b915060208301358015158114611763578182fd5b809150509250929050565b60008060408385031215611780578182fd5b6117898361161d565b946020939093013593505050565b6000602082840312156117a8578081fd5b813561114c81612062565b6000602082840312156117c4578081fd5b815161114c81612062565b6000602082840312156117e0578081fd5b813567ffffffffffffffff8111156117f6578182fd5b8201601f81018413611806578182fd5b610ba7848235602084016115ad565b600060208284031215611826578081fd5b5035919050565b60008151808452611845816020860160208601611f8a565b601f01601f19169290920160200192915050565b6000835161186b818460208801611f8a565b83519083019061187f818360208801611f8a565b01949350505050565b6001600160a01b0391909116815260200190565b6001600160a01b03858116825284166020820152604081018390526080606082018190526000906118cf9083018461182d565b9695505050505050565b901515815260200190565b60006020825261114c602083018461182d565b6020808252602b908201527f455243373231456e756d657261626c653a206f776e657220696e646578206f7560408201526a74206f6620626f756e647360a81b606082015260800190565b60208082526032908201527f4552433732313a207472616e7366657220746f206e6f6e20455243373231526560408201527131b2b4bb32b91034b6b83632b6b2b73a32b960711b606082015260800190565b60208082526026908201527f4f776e61626c653a206e6577206f776e657220697320746865207a65726f206160408201526564647265737360d01b606082015260800190565b6020808252601c908201527f4552433732313a20746f6b656e20616c7265616479206d696e74656400000000604082015260600190565b60208082526024908201527f4552433732313a207472616e7366657220746f20746865207a65726f206164646040820152637265737360e01b606082015260800190565b60208082526019908201527f4552433732313a20617070726f766520746f2063616c6c657200000000000000604082015260600190565b6020808252602c908201527f4552433732313a206f70657261746f7220717565727920666f72206e6f6e657860408201526b34b9ba32b73a103a37b5b2b760a11b606082015260800190565b60208082526038908201527f4552433732313a20617070726f76652063616c6c6572206973206e6f74206f7760408201527f6e6572206e6f7220617070726f76656420666f7220616c6c0000000000000000606082015260800190565b6020808252602a908201527f4552433732313a2062616c616e636520717565727920666f7220746865207a65604082015269726f206164647265737360b01b606082015260800190565b60208082526029908201527f4552433732313a206f776e657220717565727920666f72206e6f6e657869737460408201526832b73a103a37b5b2b760b91b606082015260800190565b6020808252602e908201527f45524337323155524953746f726167653a2055524920736574206f66206e6f6e60408201526d32bc34b9ba32b73a103a37b5b2b760911b606082015260800190565b6020808252818101527f4552433732313a206d696e7420746f20746865207a65726f2061646472657373604082015260600190565b60208082526031908201527f45524337323155524953746f726167653a2055524920717565727920666f72206040820152703737b732bc34b9ba32b73a103a37b5b2b760791b606082015260800190565b6020808252602c908201527f4552433732313a20617070726f76656420717565727920666f72206e6f6e657860408201526b34b9ba32b73a103a37b5b2b760a11b606082015260800190565b60208082526016908201527508ae8d0cae440ecc2d8eaca40dcdee840cadcdeeaced60531b604082015260600190565b6020808252818101527f4f776e61626c653a2063616c6c6572206973206e6f7420746865206f776e6572604082015260600190565b60208082526029908201527f4552433732313a207472616e73666572206f6620746f6b656e2074686174206960408201526839903737ba1037bbb760b91b606082015260800190565b6020808252602f908201527f4552433732314d657461646174613a2055524920717565727920666f72206e6f60408201526e3732bc34b9ba32b73a103a37b5b2b760891b606082015260800190565b60208082526024908201527f616464726573732068617320616c7265616479206d696e74656420616e2061726040820152631d1a5cdd60e21b606082015260800190565b60208082526021908201527f4552433732313a20617070726f76616c20746f2063757272656e74206f776e656040820152603960f91b606082015260800190565b60208082526031908201527f4552433732313a207472616e736665722063616c6c6572206973206e6f74206f6040820152701ddb995c881b9bdc88185c1c1c9bdd9959607a1b606082015260800190565b6020808252602c908201527f455243373231456e756d657261626c653a20676c6f62616c20696e646578206f60408201526b7574206f6620626f756e647360a01b606082015260800190565b60208082526019908201527f4d61782061727469737420737570706c79207265616368656400000000000000604082015260600190565b90815260200190565b60008219821115611f5a57611f5a612020565b500190565b600082611f6e57611f6e612036565b500490565b600082821015611f8557611f85612020565b500390565b60005b83811015611fa5578181015183820152602001611f8d565b8381111561089a5750506000910152565b600281046001821680611fca57607f821691505b60208210811415611feb57634e487b7160e01b600052602260045260246000fd5b50919050565b600060001982141561200557612005612020565b5060010190565b60008261201b5761201b612036565b500690565b634e487b7160e01b600052601160045260246000fd5b634e487b7160e01b600052601260045260246000fd5b634e487b7160e01b600052604160045260246000fd5b6001600160e01b03198116811461207857600080fd5b5056fea2646970667358221220225753340ff981e91e8de5fbe66fb5d1aab8140a98dee60577412f6192a3df1564736f6c63430008000033",
  "linkReferences": {},
  "deployedLinkReferences": {}
}