{
  "_format": "hh-sol-artifact-1",
  "contractName": "USMArtistToken",
  "sourceName": "contracts/USMArtistToken.sol",
  "abi": [
    {
      "inputs": [
        {
          "internalType": "string",
          "name": "name",
          "type": "string"
        },
        {
          "internalType": "string",
          "name": "symbol",
          "type": "string"
        }
      ],
      "stateMutability": "nonpayable",
      "type": "constructor"
    },
    {
      "anonymous": false,
      "inputs": [
        {
          "indexed": true,
          "internalType": "address",
          "name": "owner",
          "type": "address"
        },
        {
          "indexed": true,
          "internalType": "address",
          "name": "approved",
          "type": "address"
        },
        {
          "indexed": true,
          "internalType": "uint256",
          "name": "tokenId",
          "type": "uint256"
        }
      ],
      "name": "Approval",
      "type": "event"
    },
    {
      "anonymous": false,
      "inputs": [
        {
          "indexed": true,
          "internalType": "address",
          "name": "owner",
          "type": "address"
        },
        {
          "indexed": true,
          "internalType": "address",
          "name": "operator",
          "type": "address"
        },
        {
          "indexed": false,
          "internalType": "bool",
          "name": "approved",
          "type": "bool"
        }
      ],
      "name": "ApprovalForAll",
      "type": "event"
    },
    {
      "anonymous": false,
      "inputs": [
        {
          "indexed": true,
          "internalType": "address",
          "name": "from",
          "type": "address"
        },
        {
          "indexed": true,
          "internalType": "address",
          "name": "to",
          "type": "address"
        },
        {
          "indexed": true,
          "internalType": "uint256",
          "name": "tokenId",
          "type": "uint256"
        }
      ],
      "name": "Transfer",
      "type": "event"
    },
    {
      "inputs": [],
      "name": "ARTIST_CAP",
      "outputs": [
        {
          "internalType": "uint256",
          "name": "",
          "type": "uint256"
        }
      ],
      "stateMutability": "view",
      "type": "function"
    },
    {
      "inputs": [
        {
          "internalType": "address",
          "name": "to",
          "type": "address"
        },
        {
          "internalType": "uint256",
          "name": "tokenId",
          "type": "uint256"
        }
      ],
      "name": "approve",
      "outputs": [],
      "stateMutability": "nonpayable",
      "type": "function"
    },
    {
      "inputs": [
        {
          "internalType": "address",
          "name": "owner",
          "type": "address"
        }
      ],
      "name": "balanceOf",
      "outputs": [
        {
          "internalType": "uint256",
          "name": "",
          "type": "uint256"
        }
      ],
      "stateMutability": "view",
      "type": "function"
    },
    {
      "inputs": [],
      "name": "calculatePrice",
      "outputs": [
        {
          "internalType": "uint256",
          "name": "",
          "type": "uint256"
        }
      ],
      "stateMutability": "view",
      "type": "function"
    },
    {
      "inputs": [
        {
          "internalType": "string",
          "name": "uri",
          "type": "string"
        }
      ],
      "name": "createArtist",
      "outputs": [
        {
          "internalType": "uint256",
          "name": "",
          "type": "uint256"
        }
      ],
      "stateMutability": "payable",
      "type": "function"
    },
    {
      "inputs": [
        {
          "internalType": "uint256",
          "name": "tokenId",
          "type": "uint256"
        }
      ],
      "name": "getApproved",
      "outputs": [
        {
          "internalType": "address",
          "name": "",
          "type": "address"
        }
      ],
      "stateMutability": "view",
      "type": "function"
    },
    {
      "inputs": [
        {
          "internalType": "address",
          "name": "owner",
          "type": "address"
        },
        {
          "internalType": "address",
          "name": "operator",
          "type": "address"
        }
      ],
      "name": "isApprovedForAll",
      "outputs": [
        {
          "internalType": "bool",
          "name": "",
          "type": "bool"
        }
      ],
      "stateMutability": "view",
      "type": "function"
    },
    {
      "inputs": [],
      "name": "name",
      "outputs": [
        {
          "internalType": "string",
          "name": "",
          "type": "string"
        }
      ],
      "stateMutability": "view",
      "type": "function"
    },
    {
      "inputs": [
        {
          "internalType": "uint256",
          "name": "tokenId",
          "type": "uint256"
        }
      ],
      "name": "ownerOf",
      "outputs": [
        {
          "internalType": "address",
          "name": "",
          "type": "address"
        }
      ],
      "stateMutability": "view",
      "type": "function"
    },
    {
      "inputs": [
        {
          "internalType": "address",
          "name": "from",
          "type": "address"
        },
        {
          "internalType": "address",
          "name": "to",
          "type": "address"
        },
        {
          "internalType": "uint256",
          "name": "tokenId",
          "type": "uint256"
        }
      ],
      "name": "safeTransferFrom",
      "outputs": [],
      "stateMutability": "nonpayable",
      "type": "function"
    },
    {
      "inputs": [
        {
          "internalType": "address",
          "name": "from",
          "type": "address"
        },
        {
          "internalType": "address",
          "name": "to",
          "type": "address"
        },
        {
          "internalType": "uint256",
          "name": "tokenId",
          "type": "uint256"
        },
        {
          "internalType": "bytes",
          "name": "_data",
          "type": "bytes"
        }
      ],
      "name": "safeTransferFrom",
      "outputs": [],
      "stateMutability": "nonpayable",
      "type": "function"
    },
    {
      "inputs": [
        {
          "internalType": "address",
          "name": "operator",
          "type": "address"
        },
        {
          "internalType": "bool",
          "name": "approved",
          "type": "bool"
        }
      ],
      "name": "setApprovalForAll",
      "outputs": [],
      "stateMutability": "nonpayable",
      "type": "function"
    },
    {
      "inputs": [
        {
          "internalType": "bytes4",
          "name": "interfaceId",
          "type": "bytes4"
        }
      ],
      "name": "supportsInterface",
      "outputs": [
        {
          "internalType": "bool",
          "name": "",
          "type": "bool"
        }
      ],
      "stateMutability": "view",
      "type": "function"
    },
    {
      "inputs": [],
      "name": "symbol",
      "outputs": [
        {
          "internalType": "string",
          "name": "",
          "type": "string"
        }
      ],
      "stateMutability": "view",
      "type": "function"
    },
    {
      "inputs": [
        {
          "internalType": "uint256",
          "name": "index",
          "type": "uint256"
        }
      ],
      "name": "tokenByIndex",
      "outputs": [
        {
          "internalType": "uint256",
          "name": "",
          "type": "uint256"
        }
      ],
      "stateMutability": "view",
      "type": "function"
    },
    {
      "inputs": [
        {
          "internalType": "address",
          "name": "owner",
          "type": "address"
        },
        {
          "internalType": "uint256",
          "name": "index",
          "type": "uint256"
        }
      ],
      "name": "tokenOfOwnerByIndex",
      "outputs": [
        {
          "internalType": "uint256",
          "name": "",
          "type": "uint256"
        }
      ],
      "stateMutability": "view",
      "type": "function"
    },
    {
      "inputs": [
        {
          "internalType": "uint256",
          "name": "tokenId",
          "type": "uint256"
        }
      ],
      "name": "tokenURI",
      "outputs": [
        {
          "internalType": "string",
          "name": "",
          "type": "string"
        }
      ],
      "stateMutability": "view",
      "type": "function"
    },
    {
      "inputs": [],
      "name": "totalSupply",
      "outputs": [
        {
          "internalType": "uint256",
          "name": "",
          "type": "uint256"
        }
      ],
      "stateMutability": "view",
      "type": "function"
    },
    {
      "inputs": [
        {
          "internalType": "address",
          "name": "from",
          "type": "address"
        },
        {
          "internalType": "address",
          "name": "to",
          "type": "address"
        },
        {
          "internalType": "uint256",
          "name": "tokenId",
          "type": "uint256"
        }
      ],
      "name": "transferFrom",
      "outputs": [],
      "stateMutability": "nonpayable",
      "type": "function"
    }
  ],
  "bytecode": "0x60806040523480156200001157600080fd5b50604051620020fb380380620020fb8339810160408190526200003491620001bf565b8151829082906200004d9060009060208501906200006e565b508051620000639060019060208401906200006e565b505050505062000279565b8280546200007c9062000226565b90600052602060002090601f016020900481019282620000a05760008555620000eb565b82601f10620000bb57805160ff1916838001178555620000eb565b82800160010185558215620000eb579182015b82811115620000eb578251825591602001919060010190620000ce565b50620000f9929150620000fd565b5090565b5b80821115620000f95760008155600101620000fe565b600082601f83011262000125578081fd5b81516001600160401b038082111562000142576200014262000263565b6040516020601f8401601f19168201810183811183821017156200016a576200016a62000263565b604052838252858401810187101562000181578485fd5b8492505b83831015620001a4578583018101518284018201529182019162000185565b83831115620001b557848185840101525b5095945050505050565b60008060408385031215620001d2578182fd5b82516001600160401b0380821115620001e9578384fd5b620001f78683870162000114565b935060208501519150808211156200020d578283fd5b506200021c8582860162000114565b9150509250929050565b6002810460018216806200023b57607f821691505b602082108114156200025d57634e487b7160e01b600052602260045260246000fd5b50919050565b634e487b7160e01b600052604160045260246000fd5b611e7280620002896000396000f3fe6080604052600436106101145760003560e01c80634f6ccce7116100a0578063b88d4fde11610064578063b88d4fde146102ec578063c87b56dd1461030c578063d348b4091461032c578063e089690314610341578063e985e9c51461035457610114565b80634f6ccce7146102575780636352211e1461027757806370a082311461029757806395d89b41146102b7578063a22cb465146102cc57610114565b806318160ddd116100e757806318160ddd146101c057806323b872dd146101e25780632f745c59146102025780633a97438e1461022257806342842e0e1461023757610114565b806301ffc9a71461011957806306fdde031461014f578063081812fc14610171578063095ea7b31461019e575b600080fd5b34801561012557600080fd5b506101396101343660046115d3565b610374565b6040516101469190611715565b60405180910390f35b34801561015b57600080fd5b50610164610387565b6040516101469190611720565b34801561017d57600080fd5b5061019161018c366004611651565b610419565b60405161014691906116c4565b3480156101aa57600080fd5b506101be6101b93660046115aa565b610465565b005b3480156101cc57600080fd5b506101d56104fd565b6040516101469190611cff565b3480156101ee57600080fd5b506101be6101fd3660046114bc565b610503565b34801561020e57600080fd5b506101d561021d3660046115aa565b61053b565b34801561022e57600080fd5b506101d561058d565b34801561024357600080fd5b506101be6102523660046114bc565b610592565b34801561026357600080fd5b506101d5610272366004611651565b6105ad565b34801561028357600080fd5b50610191610292366004611651565b610608565b3480156102a357600080fd5b506101d56102b2366004611470565b61063d565b3480156102c357600080fd5b50610164610681565b3480156102d857600080fd5b506101be6102e7366004611570565b610690565b3480156102f857600080fd5b506101be6103073660046114f7565b61075e565b34801561031857600080fd5b50610164610327366004611651565b61079d565b34801561033857600080fd5b506101d56107a8565b6101d561034f36600461160b565b6107b4565b34801561036057600080fd5b5061013961036f36600461148a565b610884565b600061037f826108b2565b90505b919050565b60606000805461039690611d77565b80601f01602080910402602001604051908101604052809291908181526020018280546103c290611d77565b801561040f5780601f106103e45761010080835404028352916020019161040f565b820191906000526020600020905b8154815290600101906020018083116103f257829003601f168201915b5050505050905090565b6000610424826108d7565b6104495760405162461bcd60e51b815260040161044090611a92565b60405180910390fd5b506000908152600460205260409020546001600160a01b031690565b600061047082610608565b9050806001600160a01b0316836001600160a01b031614156104a45760405162461bcd60e51b815260040161044090611bea565b806001600160a01b03166104b66108f4565b6001600160a01b031614806104d257506104d28161036f6108f4565b6104ee5760405162461bcd60e51b8152600401610440906118ce565b6104f883836108f8565b505050565b60085490565b61051461050e6108f4565b82610966565b6105305760405162461bcd60e51b815260040161044090611c2b565b6104f88383836109eb565b60006105468361063d565b82106105645760405162461bcd60e51b815260040161044090611733565b506001600160a01b03919091166000908152600660209081526040808320938352929052205490565b605081565b6104f88383836040518060200160405280600081525061075e565b60006105b76104fd565b82106105d55760405162461bcd60e51b815260040161044090611c7c565b600882815481106105f657634e487b7160e01b600052603260045260246000fd5b90600052602060002001549050919050565b6000818152600260205260408120546001600160a01b03168061037f5760405162461bcd60e51b815260040161044090611975565b60006001600160a01b0382166106655760405162461bcd60e51b81526004016104409061192b565b506001600160a01b031660009081526003602052604090205490565b60606001805461039690611d77565b6106986108f4565b6001600160a01b0316826001600160a01b031614156106c95760405162461bcd60e51b81526004016104409061184b565b80600560006106d66108f4565b6001600160a01b03908116825260208083019390935260409182016000908120918716808252919093529120805460ff19169215159290921790915561071a6108f4565b6001600160a01b03167f17307eab39ab6107e8899845ad3d59bd9653f200f220920489ca2b5937696c31836040516107529190611715565b60405180910390a35050565b61076f6107696108f4565b83610966565b61078b5760405162461bcd60e51b815260040161044090611c2b565b61079784848484610b18565b50505050565b606061037f82610b4b565b670214e8348c4f000090565b600060506107c2600b610c64565b11156107e05760405162461bcd60e51b815260040161044090611cc8565b336000908152600c602052604090205460ff16156108105760405162461bcd60e51b815260040161044090611ba6565b6108186107a8565b3410156108375760405162461bcd60e51b815260040161044090611ade565b610841600b610c68565b600061084d600b610c64565b90506108593382610c71565b6108638184610d50565b336000908152600c60205260409020805460ff191660011790559050919050565b6001600160a01b03918216600090815260056020908152604080832093909416825291909152205460ff1690565b60006001600160e01b0319821663780e9d6360e01b148061037f575061037f82610d94565b6000908152600260205260409020546001600160a01b0316151590565b3390565b600081815260046020526040902080546001600160a01b0319166001600160a01b038416908117909155819061092d82610608565b6001600160a01b03167f8c5be1e5ebec7d5bd14f71427d1e84f3dd0314c0f7b2291e5b200ac8c7c3b92560405160405180910390a45050565b6000610971826108d7565b61098d5760405162461bcd60e51b815260040161044090611882565b600061099883610608565b9050806001600160a01b0316846001600160a01b031614806109d35750836001600160a01b03166109c884610419565b6001600160a01b0316145b806109e357506109e38185610884565b949350505050565b826001600160a01b03166109fe82610608565b6001600160a01b031614610a245760405162461bcd60e51b815260040161044090611b0e565b6001600160a01b038216610a4a5760405162461bcd60e51b815260040161044090611807565b610a55838383610dd4565b610a606000826108f8565b6001600160a01b0383166000908152600360205260408120805460019290610a89908490611d34565b90915550506001600160a01b0382166000908152600360205260408120805460019290610ab7908490611d08565b909155505060008181526002602052604080822080546001600160a01b0319166001600160a01b0386811691821790925591518493918716917fddf252ad1be2c89b69c2b068fc378daa952ba7f163c4a11628f55a4df523b3ef91a4505050565b610b238484846109eb565b610b2f84848484610ddf565b6107975760405162461bcd60e51b81526004016104409061177e565b6060610b56826108d7565b610b725760405162461bcd60e51b815260040161044090611a41565b6000828152600a602052604081208054610b8b90611d77565b80601f0160208091040260200160405190810160405280929190818152602001828054610bb790611d77565b8015610c045780601f10610bd957610100808354040283529160200191610c04565b820191906000526020600020905b815481529060010190602001808311610be757829003601f168201915b505050505090506000610c15610efa565b9050805160001415610c2957509050610382565b815115610c5b578082604051602001610c43929190611695565b60405160208183030381529060405292505050610382565b6109e384610f0c565b5490565b80546001019055565b6001600160a01b038216610c975760405162461bcd60e51b815260040161044090611a0c565b610ca0816108d7565b15610cbd5760405162461bcd60e51b8152600401610440906117d0565b610cc960008383610dd4565b6001600160a01b0382166000908152600360205260408120805460019290610cf2908490611d08565b909155505060008181526002602052604080822080546001600160a01b0319166001600160a01b03861690811790915590518392907fddf252ad1be2c89b69c2b068fc378daa952ba7f163c4a11628f55a4df523b3ef908290a45050565b610d59826108d7565b610d755760405162461bcd60e51b8152600401610440906119be565b6000828152600a6020908152604090912082516104f892840190611350565b60006001600160e01b031982166380ac58cd60e01b1480610dc557506001600160e01b03198216635b5e139f60e01b145b8061037f575061037f82610f8f565b6104f8838383610fa8565b6000610df3846001600160a01b0316611031565b15610eef57836001600160a01b031663150b7a02610e0f6108f4565b8786866040518563ffffffff1660e01b8152600401610e3194939291906116d8565b602060405180830381600087803b158015610e4b57600080fd5b505af1925050508015610e7b575060408051601f3d908101601f19168201909252610e78918101906115ef565b60015b610ed5573d808015610ea9576040519150601f19603f3d011682016040523d82523d6000602084013e610eae565b606091505b508051610ecd5760405162461bcd60e51b81526004016104409061177e565b805181602001fd5b6001600160e01b031916630a85bd0160e11b1490506109e3565b506001949350505050565b60408051602081019091526000815290565b6060610f17826108d7565b610f335760405162461bcd60e51b815260040161044090611b57565b6000610f3d610efa565b90506000815111610f5d5760405180602001604052806000815250610f88565b80610f6784611037565b604051602001610f78929190611695565b6040516020818303038152906040525b9392505050565b6001600160e01b031981166301ffc9a760e01b14919050565b610fb38383836104f8565b6001600160a01b038316610fcf57610fca81611152565b610ff2565b816001600160a01b0316836001600160a01b031614610ff257610ff28382611196565b6001600160a01b03821661100e5761100981611233565b6104f8565b826001600160a01b0316826001600160a01b0316146104f8576104f8828261130c565b3b151590565b60608161105c57506040805180820190915260018152600360fc1b6020820152610382565b8160005b8115611086578061107081611db2565b915061107f9050600a83611d20565b9150611060565b60008167ffffffffffffffff8111156110af57634e487b7160e01b600052604160045260246000fd5b6040519080825280601f01601f1916602001820160405280156110d9576020820181803683370190505b5090505b84156109e3576110ee600183611d34565b91506110fb600a86611dcd565b611106906030611d08565b60f81b81838151811061112957634e487b7160e01b600052603260045260246000fd5b60200101906001600160f81b031916908160001a90535061114b600a86611d20565b94506110dd565b600880546000838152600960205260408120829055600182018355919091527ff3f7a9fe364faab93b216da50a3214154f22a0a2b415b23a84c8169e8b636ee30155565b600060016111a38461063d565b6111ad9190611d34565b600083815260076020526040902054909150808214611200576001600160a01b03841660009081526006602090815260408083208584528252808320548484528184208190558352600790915290208190555b5060009182526007602090815260408084208490556001600160a01b039094168352600681528383209183525290812055565b60085460009061124590600190611d34565b6000838152600960205260408120546008805493945090928490811061127b57634e487b7160e01b600052603260045260246000fd5b9060005260206000200154905080600883815481106112aa57634e487b7160e01b600052603260045260246000fd5b60009182526020808320909101929092558281526009909152604080822084905585825281205560088054806112f057634e487b7160e01b600052603160045260246000fd5b6001900381819060005260206000200160009055905550505050565b60006113178361063d565b6001600160a01b039093166000908152600660209081526040808320868452825280832085905593825260079052919091209190915550565b82805461135c90611d77565b90600052602060002090601f01602090048101928261137e57600085556113c4565b82601f1061139757805160ff19168380011785556113c4565b828001600101855582156113c4579182015b828111156113c45782518255916020019190600101906113a9565b506113d09291506113d4565b5090565b5b808211156113d057600081556001016113d5565b600067ffffffffffffffff8084111561140457611404611e0d565b604051601f8501601f19168101602001828111828210171561142857611428611e0d565b60405284815291508183850186101561144057600080fd5b8484602083013760006020868301015250509392505050565b80356001600160a01b038116811461038257600080fd5b600060208284031215611481578081fd5b610f8882611459565b6000806040838503121561149c578081fd5b6114a583611459565b91506114b360208401611459565b90509250929050565b6000806000606084860312156114d0578081fd5b6114d984611459565b92506114e760208501611459565b9150604084013590509250925092565b6000806000806080858703121561150c578081fd5b61151585611459565b935061152360208601611459565b925060408501359150606085013567ffffffffffffffff811115611545578182fd5b8501601f81018713611555578182fd5b611564878235602084016113e9565b91505092959194509250565b60008060408385031215611582578182fd5b61158b83611459565b91506020830135801515811461159f578182fd5b809150509250929050565b600080604083850312156115bc578182fd5b6115c583611459565b946020939093013593505050565b6000602082840312156115e4578081fd5b8135610f8881611e23565b600060208284031215611600578081fd5b8151610f8881611e23565b60006020828403121561161c578081fd5b813567ffffffffffffffff811115611632578182fd5b8201601f81018413611642578182fd5b6109e3848235602084016113e9565b600060208284031215611662578081fd5b5035919050565b60008151808452611681816020860160208601611d4b565b601f01601f19169290920160200192915050565b600083516116a7818460208801611d4b565b8351908301906116bb818360208801611d4b565b01949350505050565b6001600160a01b0391909116815260200190565b6001600160a01b038581168252841660208201526040810183905260806060820181905260009061170b90830184611669565b9695505050505050565b901515815260200190565b600060208252610f886020830184611669565b6020808252602b908201527f455243373231456e756d657261626c653a206f776e657220696e646578206f7560408201526a74206f6620626f756e647360a81b606082015260800190565b60208082526032908201527f4552433732313a207472616e7366657220746f206e6f6e20455243373231526560408201527131b2b4bb32b91034b6b83632b6b2b73a32b960711b606082015260800190565b6020808252601c908201527f4552433732313a20746f6b656e20616c7265616479206d696e74656400000000604082015260600190565b60208082526024908201527f4552433732313a207472616e7366657220746f20746865207a65726f206164646040820152637265737360e01b606082015260800190565b60208082526019908201527f4552433732313a20617070726f766520746f2063616c6c657200000000000000604082015260600190565b6020808252602c908201527f4552433732313a206f70657261746f7220717565727920666f72206e6f6e657860408201526b34b9ba32b73a103a37b5b2b760a11b606082015260800190565b60208082526038908201527f4552433732313a20617070726f76652063616c6c6572206973206e6f74206f7760408201527f6e6572206e6f7220617070726f76656420666f7220616c6c0000000000000000606082015260800190565b6020808252602a908201527f4552433732313a2062616c616e636520717565727920666f7220746865207a65604082015269726f206164647265737360b01b606082015260800190565b60208082526029908201527f4552433732313a206f776e657220717565727920666f72206e6f6e657869737460408201526832b73a103a37b5b2b760b91b606082015260800190565b6020808252602e908201527f45524337323155524953746f726167653a2055524920736574206f66206e6f6e60408201526d32bc34b9ba32b73a103a37b5b2b760911b606082015260800190565b6020808252818101527f4552433732313a206d696e7420746f20746865207a65726f2061646472657373604082015260600190565b60208082526031908201527f45524337323155524953746f726167653a2055524920717565727920666f72206040820152703737b732bc34b9ba32b73a103a37b5b2b760791b606082015260800190565b6020808252602c908201527f4552433732313a20617070726f76656420717565727920666f72206e6f6e657860408201526b34b9ba32b73a103a37b5b2b760a11b606082015260800190565b60208082526016908201527508ae8d0cae440ecc2d8eaca40dcdee840cadcdeeaced60531b604082015260600190565b60208082526029908201527f4552433732313a207472616e73666572206f6620746f6b656e2074686174206960408201526839903737ba1037bbb760b91b606082015260800190565b6020808252602f908201527f4552433732314d657461646174613a2055524920717565727920666f72206e6f60408201526e3732bc34b9ba32b73a103a37b5b2b760891b606082015260800190565b60208082526024908201527f616464726573732068617320616c7265616479206d696e74656420616e2061726040820152631d1a5cdd60e21b606082015260800190565b60208082526021908201527f4552433732313a20617070726f76616c20746f2063757272656e74206f776e656040820152603960f91b606082015260800190565b60208082526031908201527f4552433732313a207472616e736665722063616c6c6572206973206e6f74206f6040820152701ddb995c881b9bdc88185c1c1c9bdd9959607a1b606082015260800190565b6020808252602c908201527f455243373231456e756d657261626c653a20676c6f62616c20696e646578206f60408201526b7574206f6620626f756e647360a01b606082015260800190565b60208082526019908201527f4d61782061727469737420737570706c79207265616368656400000000000000604082015260600190565b90815260200190565b60008219821115611d1b57611d1b611de1565b500190565b600082611d2f57611d2f611df7565b500490565b600082821015611d4657611d46611de1565b500390565b60005b83811015611d66578181015183820152602001611d4e565b838111156107975750506000910152565b600281046001821680611d8b57607f821691505b60208210811415611dac57634e487b7160e01b600052602260045260246000fd5b50919050565b6000600019821415611dc657611dc6611de1565b5060010190565b600082611ddc57611ddc611df7565b500690565b634e487b7160e01b600052601160045260246000fd5b634e487b7160e01b600052601260045260246000fd5b634e487b7160e01b600052604160045260246000fd5b6001600160e01b031981168114611e3957600080fd5b5056fea2646970667358221220783b656967155d766667cec6d368e980b38ace57266c540f7b0e8671960356cf64736f6c63430008000033",
  "linkReferences": {},
  "deployedLinkReferences": {}
}