{
  "_format": "hh-sol-artifact-1",
  "contractName": "USMBandToken",
  "sourceName": "contracts/USMBandToken.sol",
  "abi": [
    {
      "inputs": [
        {
          "internalType": "string",
          "name": "name",
          "type": "string"
        },
        {
          "internalType": "string",
          "name": "symbol",
          "type": "string"
        },
        {
          "internalType": "address",
          "name": "_artist",
          "type": "address"
        }
      ],
      "stateMutability": "nonpayable",
      "type": "constructor"
    },
    {
      "anonymous": false,
      "inputs": [
        {
          "indexed": true,
          "internalType": "address",
          "name": "owner",
          "type": "address"
        },
        {
          "indexed": true,
          "internalType": "address",
          "name": "approved",
          "type": "address"
        },
        {
          "indexed": true,
          "internalType": "uint256",
          "name": "tokenId",
          "type": "uint256"
        }
      ],
      "name": "Approval",
      "type": "event"
    },
    {
      "anonymous": false,
      "inputs": [
        {
          "indexed": true,
          "internalType": "address",
          "name": "owner",
          "type": "address"
        },
        {
          "indexed": true,
          "internalType": "address",
          "name": "operator",
          "type": "address"
        },
        {
          "indexed": false,
          "internalType": "bool",
          "name": "approved",
          "type": "bool"
        }
      ],
      "name": "ApprovalForAll",
      "type": "event"
    },
    {
      "anonymous": false,
      "inputs": [
        {
          "indexed": true,
          "internalType": "address",
          "name": "from",
          "type": "address"
        },
        {
          "indexed": true,
          "internalType": "address",
          "name": "to",
          "type": "address"
        },
        {
          "indexed": true,
          "internalType": "uint256",
          "name": "tokenId",
          "type": "uint256"
        }
      ],
      "name": "Transfer",
      "type": "event"
    },
    {
      "anonymous": false,
      "inputs": [
        {
          "indexed": false,
          "internalType": "uint256",
          "name": "id",
          "type": "uint256"
        },
        {
          "indexed": false,
          "internalType": "uint256",
          "name": "artistId",
          "type": "uint256"
        },
        {
          "indexed": false,
          "internalType": "address",
          "name": "owner",
          "type": "address"
        }
      ],
      "name": "bandCreate",
      "type": "event"
    },
    {
      "anonymous": false,
      "inputs": [
        {
          "indexed": false,
          "internalType": "uint256",
          "name": "id",
          "type": "uint256"
        },
        {
          "indexed": false,
          "internalType": "uint256",
          "name": "artistId",
          "type": "uint256"
        },
        {
          "indexed": false,
          "internalType": "address",
          "name": "owner",
          "type": "address"
        }
      ],
      "name": "bandJoined",
      "type": "event"
    },
    {
      "inputs": [
        {
          "internalType": "address",
          "name": "to",
          "type": "address"
        },
        {
          "internalType": "uint256",
          "name": "tokenId",
          "type": "uint256"
        }
      ],
      "name": "approve",
      "outputs": [],
      "stateMutability": "nonpayable",
      "type": "function"
    },
    {
      "inputs": [
        {
          "internalType": "address",
          "name": "owner",
          "type": "address"
        }
      ],
      "name": "balanceOf",
      "outputs": [
        {
          "internalType": "uint256",
          "name": "",
          "type": "uint256"
        }
      ],
      "stateMutability": "view",
      "type": "function"
    },
    {
      "inputs": [
        {
          "internalType": "uint256",
          "name": "",
          "type": "uint256"
        }
      ],
      "name": "bandAttestations",
      "outputs": [
        {
          "internalType": "uint256",
          "name": "",
          "type": "uint256"
        }
      ],
      "stateMutability": "view",
      "type": "function"
    },
    {
      "inputs": [
        {
          "internalType": "uint256",
          "name": "",
          "type": "uint256"
        },
        {
          "internalType": "uint256",
          "name": "",
          "type": "uint256"
        }
      ],
      "name": "bandMembers",
      "outputs": [
        {
          "internalType": "bool",
          "name": "",
          "type": "bool"
        }
      ],
      "stateMutability": "view",
      "type": "function"
    },
    {
      "inputs": [
        {
          "internalType": "uint256",
          "name": "tokenId",
          "type": "uint256"
        }
      ],
      "name": "getApproved",
      "outputs": [
        {
          "internalType": "address",
          "name": "",
          "type": "address"
        }
      ],
      "stateMutability": "view",
      "type": "function"
    },
    {
      "inputs": [
        {
          "internalType": "address",
          "name": "owner",
          "type": "address"
        },
        {
          "internalType": "address",
          "name": "operator",
          "type": "address"
        }
      ],
      "name": "isApprovedForAll",
      "outputs": [
        {
          "internalType": "bool",
          "name": "",
          "type": "bool"
        }
      ],
      "stateMutability": "view",
      "type": "function"
    },
    {
      "inputs": [
        {
          "internalType": "uint256",
          "name": "bandId",
          "type": "uint256"
        }
      ],
      "name": "isBandActive",
      "outputs": [
        {
          "internalType": "bool",
          "name": "",
          "type": "bool"
        }
      ],
      "stateMutability": "view",
      "type": "function"
    },
    {
      "inputs": [
        {
          "internalType": "uint256",
          "name": "bandId",
          "type": "uint256"
        },
        {
          "internalType": "uint256",
          "name": "member",
          "type": "uint256"
        }
      ],
      "name": "isBandMember",
      "outputs": [
        {
          "internalType": "bool",
          "name": "",
          "type": "bool"
        }
      ],
      "stateMutability": "view",
      "type": "function"
    },
    {
      "inputs": [
        {
          "internalType": "uint256",
          "name": "artistId",
          "type": "uint256"
        },
        {
          "internalType": "uint256",
          "name": "bandId",
          "type": "uint256"
        }
      ],
      "name": "joinBand",
      "outputs": [
        {
          "internalType": "uint256",
          "name": "",
          "type": "uint256"
        }
      ],
      "stateMutability": "nonpayable",
      "type": "function"
    },
    {
      "inputs": [],
      "name": "name",
      "outputs": [
        {
          "internalType": "string",
          "name": "",
          "type": "string"
        }
      ],
      "stateMutability": "view",
      "type": "function"
    },
    {
      "inputs": [
        {
          "internalType": "uint256",
          "name": "tokenId",
          "type": "uint256"
        }
      ],
      "name": "ownerOf",
      "outputs": [
        {
          "internalType": "address",
          "name": "",
          "type": "address"
        }
      ],
      "stateMutability": "view",
      "type": "function"
    },
    {
      "inputs": [
        {
          "internalType": "address",
          "name": "from",
          "type": "address"
        },
        {
          "internalType": "address",
          "name": "to",
          "type": "address"
        },
        {
          "internalType": "uint256",
          "name": "tokenId",
          "type": "uint256"
        }
      ],
      "name": "safeTransferFrom",
      "outputs": [],
      "stateMutability": "nonpayable",
      "type": "function"
    },
    {
      "inputs": [
        {
          "internalType": "address",
          "name": "from",
          "type": "address"
        },
        {
          "internalType": "address",
          "name": "to",
          "type": "address"
        },
        {
          "internalType": "uint256",
          "name": "tokenId",
          "type": "uint256"
        },
        {
          "internalType": "bytes",
          "name": "_data",
          "type": "bytes"
        }
      ],
      "name": "safeTransferFrom",
      "outputs": [],
      "stateMutability": "nonpayable",
      "type": "function"
    },
    {
      "inputs": [
        {
          "internalType": "address",
          "name": "operator",
          "type": "address"
        },
        {
          "internalType": "bool",
          "name": "approved",
          "type": "bool"
        }
      ],
      "name": "setApprovalForAll",
      "outputs": [],
      "stateMutability": "nonpayable",
      "type": "function"
    },
    {
      "inputs": [
        {
          "internalType": "uint256",
          "name": "artistId",
          "type": "uint256"
        },
        {
          "internalType": "string",
          "name": "_uri",
          "type": "string"
        }
      ],
      "name": "startBand",
      "outputs": [
        {
          "internalType": "uint256",
          "name": "",
          "type": "uint256"
        }
      ],
      "stateMutability": "nonpayable",
      "type": "function"
    },
    {
      "inputs": [
        {
          "internalType": "bytes4",
          "name": "interfaceId",
          "type": "bytes4"
        }
      ],
      "name": "supportsInterface",
      "outputs": [
        {
          "internalType": "bool",
          "name": "",
          "type": "bool"
        }
      ],
      "stateMutability": "view",
      "type": "function"
    },
    {
      "inputs": [],
      "name": "symbol",
      "outputs": [
        {
          "internalType": "string",
          "name": "",
          "type": "string"
        }
      ],
      "stateMutability": "view",
      "type": "function"
    },
    {
      "inputs": [
        {
          "internalType": "uint256",
          "name": "index",
          "type": "uint256"
        }
      ],
      "name": "tokenByIndex",
      "outputs": [
        {
          "internalType": "uint256",
          "name": "",
          "type": "uint256"
        }
      ],
      "stateMutability": "view",
      "type": "function"
    },
    {
      "inputs": [
        {
          "internalType": "address",
          "name": "owner",
          "type": "address"
        },
        {
          "internalType": "uint256",
          "name": "index",
          "type": "uint256"
        }
      ],
      "name": "tokenOfOwnerByIndex",
      "outputs": [
        {
          "internalType": "uint256",
          "name": "",
          "type": "uint256"
        }
      ],
      "stateMutability": "view",
      "type": "function"
    },
    {
      "inputs": [
        {
          "internalType": "uint256",
          "name": "tokenId",
          "type": "uint256"
        }
      ],
      "name": "tokenURI",
      "outputs": [
        {
          "internalType": "string",
          "name": "",
          "type": "string"
        }
      ],
      "stateMutability": "view",
      "type": "function"
    },
    {
      "inputs": [],
      "name": "totalSupply",
      "outputs": [
        {
          "internalType": "uint256",
          "name": "",
          "type": "uint256"
        }
      ],
      "stateMutability": "view",
      "type": "function"
    },
    {
      "inputs": [
        {
          "internalType": "address",
          "name": "from",
          "type": "address"
        },
        {
          "internalType": "address",
          "name": "to",
          "type": "address"
        },
        {
          "internalType": "uint256",
          "name": "tokenId",
          "type": "uint256"
        }
      ],
      "name": "transferFrom",
      "outputs": [],
      "stateMutability": "nonpayable",
      "type": "function"
    }
  ],
  "bytecode": "0x60806040523480156200001157600080fd5b506040516200235d3803806200235d8339810160408190526200003491620001e1565b8251839083906200004d90600090602085019062000090565b5080516200006390600190602084019062000090565b5050600c80546001600160a01b0319166001600160a01b03939093169290921790915550620002bd915050565b8280546200009e906200026a565b90600052602060002090601f016020900481019282620000c257600085556200010d565b82601f10620000dd57805160ff19168380011785556200010d565b828001600101855582156200010d579182015b828111156200010d578251825591602001919060010190620000f0565b506200011b9291506200011f565b5090565b5b808211156200011b576000815560010162000120565b600082601f83011262000147578081fd5b81516001600160401b0380821115620001645762000164620002a7565b6040516020601f8401601f19168201810183811183821017156200018c576200018c620002a7565b6040528382528584018101871015620001a3578485fd5b8492505b83831015620001c65785830181015182840182015291820191620001a7565b83831115620001d757848185840101525b5095945050505050565b600080600060608486031215620001f6578283fd5b83516001600160401b03808211156200020d578485fd5b6200021b8783880162000136565b9450602086015191508082111562000231578384fd5b50620002408682870162000136565b604086015190935090506001600160a01b03811681146200025f578182fd5b809150509250925092565b6002810460018216806200027f57607f821691505b60208210811415620002a157634e487b7160e01b600052602260045260246000fd5b50919050565b634e487b7160e01b600052604160045260246000fd5b61209080620002cd6000396000f3fe608060405234801561001057600080fd5b50600436106101425760003560e01c80636352211e116100b857806395d89b411161007c57806395d89b41146102a0578063a22cb465146102a8578063b88d4fde146102bb578063c87b56dd146102ce578063e06813e5146102e1578063e985e9c5146102f457610142565b80636352211e1461024157806370a082311461025457806378b7efc314610267578063893c329d1461027a5780638fdd453f1461028d57610142565b806323b872dd1161010a57806323b872dd146101cf5780632f745c59146101e2578063365d1d51146101f557806336b094d71461020857806342842e0e1461021b5780634f6ccce71461022e57610142565b806301ffc9a71461014757806306fdde0314610170578063081812fc14610185578063095ea7b3146101a557806318160ddd146101ba575b600080fd5b61015a610155366004611784565b610307565b60405161016791906118f9565b60405180910390f35b61017861031a565b6040516101679190611904565b6101986101933660046117bc565b6103ac565b60405161016791906118a8565b6101b86101b3366004611759565b6103f8565b005b6101c2610490565b6040516101679190611ee9565b6101b86101dd36600461166b565b610496565b6101c26101f0366004611759565b6104ce565b6101c26102033660046117d4565b610520565b6101c261021636600461182c565b610601565b6101b861022936600461166b565b6106fe565b6101c261023c3660046117bc565b610719565b61019861024f3660046117bc565b610774565b6101c26102623660046115fb565b6107a9565b61015a61027536600461182c565b6107ed565b61015a6102883660046117bc565b61080d565b61015a61029b36600461182c565b610823565b610178610843565b6101b86102b6366004611728565b610852565b6101b86102c93660046116ab565b610920565b6101786102dc3660046117bc565b61095f565b6101c26102ef3660046117bc565b61096a565b61015a610302366004611633565b61097c565b6000610312826109aa565b90505b919050565b60606000805461032990611f80565b80601f016020809104026020016040519081016040528092919081815260200182805461035590611f80565b80156103a25780601f10610377576101008083540402835291602001916103a2565b820191906000526020600020905b81548152906001019060200180831161038557829003601f168201915b5050505050905090565b60006103b7826109cf565b6103dc5760405162461bcd60e51b81526004016103d390611cb9565b60405180910390fd5b506000908152600460205260409020546001600160a01b031690565b600061040382610774565b9050806001600160a01b0316836001600160a01b031614156104375760405162461bcd60e51b81526004016103d390611d9d565b806001600160a01b03166104496109ec565b6001600160a01b031614806104655750610465816103026109ec565b6104815760405162461bcd60e51b81526004016103d390611ab2565b61048b83836109f0565b505050565b60085490565b6104a76104a16109ec565b82610a5e565b6104c35760405162461bcd60e51b81526004016103d390611e15565b61048b838383610ae3565b60006104d9836107a9565b82106104f75760405162461bcd60e51b81526004016103d390611917565b506001600160a01b03919091166000908152600660209081526040808320938352929052205490565b600061052b83610c10565b6105475760405162461bcd60e51b81526004016103d390611c25565b610551600b610ca5565b600061055d600b610cae565b6000818152600f6020908152604080832080546001600160a01b03191633908117909155600d8352818420600190819055600e84528285208a86529093529220805460ff191690911790559091506105b59082610cb2565b6105bf8184610d91565b7f05a93dd0fe50f6886f4e2b30e97c1ab2a46e6e60c7a270bd3b9cf26a7547a52f8185336040516105f293929190611ef2565b60405180910390a19392505050565b600061060c83610c10565b6106285760405162461bcd60e51b81526004016103d390611c25565b61063182610dd5565b61064d5760405162461bcd60e51b81526004016103d390611dde565b610656826109cf565b6106725760405162461bcd60e51b81526004016103d390611eb2565b6000828152600d60205260408120805491600191906106918385611f11565b90915550506000838152600e6020908152604080832087845290915290819020805460ff19166001179055517f10179efa2da6f0143251797a50b1cbcf49e6b3d46bd488648d9da83b715387aa906106ee90859087903390611ef2565b60405180910390a1509092915050565b61048b83838360405180602001604052806000815250610920565b6000610723610490565b82106107415760405162461bcd60e51b81526004016103d390611e66565b6008828154811061076257634e487b7160e01b600052603260045260246000fd5b90600052602060002001549050919050565b6000818152600260205260408120546001600160a01b0316806103125760405162461bcd60e51b81526004016103d390611b59565b60006001600160a01b0382166107d15760405162461bcd60e51b81526004016103d390611b0f565b506001600160a01b031660009081526003602052604090205490565b600e60209081526000928352604080842090915290825290205460ff1681565b6000908152600d60205260409020546002111590565b6000918252600e6020908152604080842092845291905290205460ff1690565b60606001805461032990611f80565b61085a6109ec565b6001600160a01b0316826001600160a01b0316141561088b5760405162461bcd60e51b81526004016103d390611a2f565b80600560006108986109ec565b6001600160a01b03908116825260208083019390935260409182016000908120918716808252919093529120805460ff1916921515929092179091556108dc6109ec565b6001600160a01b03167f17307eab39ab6107e8899845ad3d59bd9653f200f220920489ca2b5937696c318360405161091491906118f9565b60405180910390a35050565b61093161092b6109ec565b83610a5e565b61094d5760405162461bcd60e51b81526004016103d390611e15565b61095984848484610dea565b50505050565b606061031282610e1d565b600d6020526000908152604090205481565b6001600160a01b03918216600090815260056020908152604080832093909416825291909152205460ff1690565b60006001600160e01b0319821663780e9d6360e01b1480610312575061031282610f36565b6000908152600260205260409020546001600160a01b0316151590565b3390565b600081815260046020526040902080546001600160a01b0319166001600160a01b0384169081179091558190610a2582610774565b6001600160a01b03167f8c5be1e5ebec7d5bd14f71427d1e84f3dd0314c0f7b2291e5b200ac8c7c3b92560405160405180910390a45050565b6000610a69826109cf565b610a855760405162461bcd60e51b81526004016103d390611a66565b6000610a9083610774565b9050806001600160a01b0316846001600160a01b03161480610acb5750836001600160a01b0316610ac0846103ac565b6001600160a01b0316145b80610adb5750610adb818561097c565b949350505050565b826001600160a01b0316610af682610774565b6001600160a01b031614610b1c5760405162461bcd60e51b81526004016103d390611d05565b6001600160a01b038216610b425760405162461bcd60e51b81526004016103d3906119eb565b610b4d838383610f76565b610b586000826109f0565b6001600160a01b0383166000908152600360205260408120805460019290610b81908490611f3d565b90915550506001600160a01b0382166000908152600360205260408120805460019290610baf908490611f11565b909155505060008181526002602052604080822080546001600160a01b0319166001600160a01b0386811691821790925591518493918716917fddf252ad1be2c89b69c2b068fc378daa952ba7f163c4a11628f55a4df523b3ef91a4505050565b600c546040516331a9108f60e11b815260009133916001600160a01b0390911690636352211e90610c45908690600401611ee9565b60206040518083038186803b158015610c5d57600080fd5b505afa158015610c71573d6000803e3d6000fd5b505050506040513d601f19601f82011682018060405250810190610c959190611617565b6001600160a01b03161492915050565b80546001019055565b5490565b6001600160a01b038216610cd85760405162461bcd60e51b81526004016103d390611bf0565b610ce1816109cf565b15610cfe5760405162461bcd60e51b81526004016103d3906119b4565b610d0a60008383610f76565b6001600160a01b0382166000908152600360205260408120805460019290610d33908490611f11565b909155505060008181526002602052604080822080546001600160a01b0319166001600160a01b03861690811790915590518392907fddf252ad1be2c89b69c2b068fc378daa952ba7f163c4a11628f55a4df523b3ef908290a45050565b610d9a826109cf565b610db65760405162461bcd60e51b81526004016103d390611ba2565b6000828152600a60209081526040909120825161048b928401906114f2565b6000908152600d602052604090205460061190565b610df5848484610ae3565b610e0184848484610f81565b6109595760405162461bcd60e51b81526004016103d390611962565b6060610e28826109cf565b610e445760405162461bcd60e51b81526004016103d390611c68565b6000828152600a602052604081208054610e5d90611f80565b80601f0160208091040260200160405190810160405280929190818152602001828054610e8990611f80565b8015610ed65780601f10610eab57610100808354040283529160200191610ed6565b820191906000526020600020905b815481529060010190602001808311610eb957829003601f168201915b505050505090506000610ee761109c565b9050805160001415610efb57509050610315565b815115610f2d578082604051602001610f15929190611879565b60405160208183030381529060405292505050610315565b610adb846110ae565b60006001600160e01b031982166380ac58cd60e01b1480610f6757506001600160e01b03198216635b5e139f60e01b145b80610312575061031282611131565b61048b83838361114a565b6000610f95846001600160a01b03166111d3565b1561109157836001600160a01b031663150b7a02610fb16109ec565b8786866040518563ffffffff1660e01b8152600401610fd394939291906118bc565b602060405180830381600087803b158015610fed57600080fd5b505af192505050801561101d575060408051601f3d908101601f1916820190925261101a918101906117a0565b60015b611077573d80801561104b576040519150601f19603f3d011682016040523d82523d6000602084013e611050565b606091505b50805161106f5760405162461bcd60e51b81526004016103d390611962565b805181602001fd5b6001600160e01b031916630a85bd0160e11b149050610adb565b506001949350505050565b60408051602081019091526000815290565b60606110b9826109cf565b6110d55760405162461bcd60e51b81526004016103d390611d4e565b60006110df61109c565b905060008151116110ff576040518060200160405280600081525061112a565b80611109846111d9565b60405160200161111a929190611879565b6040516020818303038152906040525b9392505050565b6001600160e01b031981166301ffc9a760e01b14919050565b61115583838361048b565b6001600160a01b0383166111715761116c816112f4565b611194565b816001600160a01b0316836001600160a01b031614611194576111948382611338565b6001600160a01b0382166111b0576111ab816113d5565b61048b565b826001600160a01b0316826001600160a01b03161461048b5761048b82826114ae565b3b151590565b6060816111fe57506040805180820190915260018152600360fc1b6020820152610315565b8160005b8115611228578061121281611fbb565b91506112219050600a83611f29565b9150611202565b60008167ffffffffffffffff81111561125157634e487b7160e01b600052604160045260246000fd5b6040519080825280601f01601f19166020018201604052801561127b576020820181803683370190505b5090505b8415610adb57611290600183611f3d565b915061129d600a86611fd6565b6112a8906030611f11565b60f81b8183815181106112cb57634e487b7160e01b600052603260045260246000fd5b60200101906001600160f81b031916908160001a9053506112ed600a86611f29565b945061127f565b600880546000838152600960205260408120829055600182018355919091527ff3f7a9fe364faab93b216da50a3214154f22a0a2b415b23a84c8169e8b636ee30155565b60006001611345846107a9565b61134f9190611f3d565b6000838152600760205260409020549091508082146113a2576001600160a01b03841660009081526006602090815260408083208584528252808320548484528184208190558352600790915290208190555b5060009182526007602090815260408084208490556001600160a01b039094168352600681528383209183525290812055565b6008546000906113e790600190611f3d565b6000838152600960205260408120546008805493945090928490811061141d57634e487b7160e01b600052603260045260246000fd5b90600052602060002001549050806008838154811061144c57634e487b7160e01b600052603260045260246000fd5b600091825260208083209091019290925582815260099091526040808220849055858252812055600880548061149257634e487b7160e01b600052603160045260246000fd5b6001900381819060005260206000200160009055905550505050565b60006114b9836107a9565b6001600160a01b039093166000908152600660209081526040808320868452825280832085905593825260079052919091209190915550565b8280546114fe90611f80565b90600052602060002090601f0160209004810192826115205760008555611566565b82601f1061153957805160ff1916838001178555611566565b82800160010185558215611566579182015b8281111561156657825182559160200191906001019061154b565b50611572929150611576565b5090565b5b808211156115725760008155600101611577565b600067ffffffffffffffff808411156115a6576115a6612016565b604051601f8501601f1916810160200182811182821017156115ca576115ca612016565b6040528481529150818385018610156115e257600080fd5b8484602083013760006020868301015250509392505050565b60006020828403121561160c578081fd5b813561112a8161202c565b600060208284031215611628578081fd5b815161112a8161202c565b60008060408385031215611645578081fd5b82356116508161202c565b915060208301356116608161202c565b809150509250929050565b60008060006060848603121561167f578081fd5b833561168a8161202c565b9250602084013561169a8161202c565b929592945050506040919091013590565b600080600080608085870312156116c0578081fd5b84356116cb8161202c565b935060208501356116db8161202c565b925060408501359150606085013567ffffffffffffffff8111156116fd578182fd5b8501601f8101871361170d578182fd5b61171c8782356020840161158b565b91505092959194509250565b6000806040838503121561173a578182fd5b82356117458161202c565b915060208301358015158114611660578182fd5b6000806040838503121561176b578182fd5b82356117768161202c565b946020939093013593505050565b600060208284031215611795578081fd5b813561112a81612044565b6000602082840312156117b1578081fd5b815161112a81612044565b6000602082840312156117cd578081fd5b5035919050565b600080604083850312156117e6578182fd5b82359150602083013567ffffffffffffffff811115611803578182fd5b8301601f81018513611813578182fd5b6118228582356020840161158b565b9150509250929050565b6000806040838503121561183e578182fd5b50508035926020909101359150565b60008151808452611865816020860160208601611f54565b601f01601f19169290920160200192915050565b6000835161188b818460208801611f54565b83519083019061189f818360208801611f54565b01949350505050565b6001600160a01b0391909116815260200190565b6001600160a01b03858116825284166020820152604081018390526080606082018190526000906118ef9083018461184d565b9695505050505050565b901515815260200190565b60006020825261112a602083018461184d565b6020808252602b908201527f455243373231456e756d657261626c653a206f776e657220696e646578206f7560408201526a74206f6620626f756e647360a81b606082015260800190565b60208082526032908201527f4552433732313a207472616e7366657220746f206e6f6e20455243373231526560408201527131b2b4bb32b91034b6b83632b6b2b73a32b960711b606082015260800190565b6020808252601c908201527f4552433732313a20746f6b656e20616c7265616479206d696e74656400000000604082015260600190565b60208082526024908201527f4552433732313a207472616e7366657220746f20746865207a65726f206164646040820152637265737360e01b606082015260800190565b60208082526019908201527f4552433732313a20617070726f766520746f2063616c6c657200000000000000604082015260600190565b6020808252602c908201527f4552433732313a206f70657261746f7220717565727920666f72206e6f6e657860408201526b34b9ba32b73a103a37b5b2b760a11b606082015260800190565b60208082526038908201527f4552433732313a20617070726f76652063616c6c6572206973206e6f74206f7760408201527f6e6572206e6f7220617070726f76656420666f7220616c6c0000000000000000606082015260800190565b6020808252602a908201527f4552433732313a2062616c616e636520717565727920666f7220746865207a65604082015269726f206164647265737360b01b606082015260800190565b60208082526029908201527f4552433732313a206f776e657220717565727920666f72206e6f6e657869737460408201526832b73a103a37b5b2b760b91b606082015260800190565b6020808252602e908201527f45524337323155524953746f726167653a2055524920736574206f66206e6f6e60408201526d32bc34b9ba32b73a103a37b5b2b760911b606082015260800190565b6020808252818101527f4552433732313a206d696e7420746f20746865207a65726f2061646472657373604082015260600190565b60208082526023908201527f796f7520646f206e6f74206f776e2074686520737065636966696564206172746040820152621a5cdd60ea1b606082015260800190565b60208082526031908201527f45524337323155524953746f726167653a2055524920717565727920666f72206040820152703737b732bc34b9ba32b73a103a37b5b2b760791b606082015260800190565b6020808252602c908201527f4552433732313a20617070726f76656420717565727920666f72206e6f6e657860408201526b34b9ba32b73a103a37b5b2b760a11b606082015260800190565b60208082526029908201527f4552433732313a207472616e73666572206f6620746f6b656e2074686174206960408201526839903737ba1037bbb760b91b606082015260800190565b6020808252602f908201527f4552433732314d657461646174613a2055524920717565727920666f72206e6f60408201526e3732bc34b9ba32b73a103a37b5b2b760891b606082015260800190565b60208082526021908201527f4552433732313a20617070726f76616c20746f2063757272656e74206f776e656040820152603960f91b606082015260800190565b6020808252601b908201527f746869732062616e6420697320616c7265616479206163746976650000000000604082015260600190565b60208082526031908201527f4552433732313a207472616e736665722063616c6c6572206973206e6f74206f6040820152701ddb995c881b9bdc88185c1c1c9bdd9959607a1b606082015260800190565b6020808252602c908201527f455243373231456e756d657261626c653a20676c6f62616c20696e646578206f60408201526b7574206f6620626f756e647360a01b606082015260800190565b60208082526018908201527f746869732062616e6420646f6573206e6f742065786973740000000000000000604082015260600190565b90815260200190565b92835260208301919091526001600160a01b0316604082015260600190565b60008219821115611f2457611f24611fea565b500190565b600082611f3857611f38612000565b500490565b600082821015611f4f57611f4f611fea565b500390565b60005b83811015611f6f578181015183820152602001611f57565b838111156109595750506000910152565b600281046001821680611f9457607f821691505b60208210811415611fb557634e487b7160e01b600052602260045260246000fd5b50919050565b6000600019821415611fcf57611fcf611fea565b5060010190565b600082611fe557611fe5612000565b500690565b634e487b7160e01b600052601160045260246000fd5b634e487b7160e01b600052601260045260246000fd5b634e487b7160e01b600052604160045260246000fd5b6001600160a01b038116811461204157600080fd5b50565b6001600160e01b03198116811461204157600080fdfea26469706673582212202f3b693ee369a46f480e2707665b232fab46dd00e2b2e2d38f41dd5280c6ef2b64736f6c63430008000033",
  "linkReferences": {},
  "deployedLinkReferences": {}
}