{
  "_format": "hh-sol-artifact-1",
  "contractName": "USMTrackToken",
  "sourceName": "contracts/USMTrackToken.sol",
  "abi": [
    {
      "inputs": [
        {
          "internalType": "string",
          "name": "name",
          "type": "string"
        },
        {
          "internalType": "string",
          "name": "symbol",
          "type": "string"
        },
        {
          "internalType": "address",
          "name": "_artist",
          "type": "address"
        },
        {
          "internalType": "address",
          "name": "_band",
          "type": "address"
        }
      ],
      "stateMutability": "nonpayable",
      "type": "constructor"
    },
    {
      "anonymous": false,
      "inputs": [
        {
          "indexed": true,
          "internalType": "address",
          "name": "owner",
          "type": "address"
        },
        {
          "indexed": true,
          "internalType": "address",
          "name": "approved",
          "type": "address"
        },
        {
          "indexed": true,
          "internalType": "uint256",
          "name": "tokenId",
          "type": "uint256"
        }
      ],
      "name": "Approval",
      "type": "event"
    },
    {
      "anonymous": false,
      "inputs": [
        {
          "indexed": true,
          "internalType": "address",
          "name": "owner",
          "type": "address"
        },
        {
          "indexed": true,
          "internalType": "address",
          "name": "operator",
          "type": "address"
        },
        {
          "indexed": false,
          "internalType": "bool",
          "name": "approved",
          "type": "bool"
        }
      ],
      "name": "ApprovalForAll",
      "type": "event"
    },
    {
      "anonymous": false,
      "inputs": [
        {
          "indexed": true,
          "internalType": "address",
          "name": "from",
          "type": "address"
        },
        {
          "indexed": true,
          "internalType": "address",
          "name": "to",
          "type": "address"
        },
        {
          "indexed": true,
          "internalType": "uint256",
          "name": "tokenId",
          "type": "uint256"
        }
      ],
      "name": "Transfer",
      "type": "event"
    },
    {
      "anonymous": false,
      "inputs": [
        {
          "indexed": false,
          "internalType": "uint256",
          "name": "trackId",
          "type": "uint256"
        },
        {
          "indexed": false,
          "internalType": "uint256",
          "name": "bandId",
          "type": "uint256"
        },
        {
          "indexed": false,
          "internalType": "uint256",
          "name": "artistId",
          "type": "uint256"
        },
        {
          "indexed": false,
          "internalType": "address",
          "name": "owner",
          "type": "address"
        }
      ],
      "name": "trackCreated",
      "type": "event"
    },
    {
      "inputs": [
        {
          "internalType": "address",
          "name": "to",
          "type": "address"
        },
        {
          "internalType": "uint256",
          "name": "tokenId",
          "type": "uint256"
        }
      ],
      "name": "approve",
      "outputs": [],
      "stateMutability": "nonpayable",
      "type": "function"
    },
    {
      "inputs": [
        {
          "internalType": "address",
          "name": "owner",
          "type": "address"
        }
      ],
      "name": "balanceOf",
      "outputs": [
        {
          "internalType": "uint256",
          "name": "",
          "type": "uint256"
        }
      ],
      "stateMutability": "view",
      "type": "function"
    },
    {
      "inputs": [
        {
          "internalType": "uint256",
          "name": "artistId",
          "type": "uint256"
        },
        {
          "internalType": "uint256",
          "name": "bandId",
          "type": "uint256"
        },
        {
          "internalType": "string",
          "name": "_uri",
          "type": "string"
        }
      ],
      "name": "createTrack",
      "outputs": [
        {
          "internalType": "uint256",
          "name": "",
          "type": "uint256"
        }
      ],
      "stateMutability": "nonpayable",
      "type": "function"
    },
    {
      "inputs": [
        {
          "internalType": "uint256",
          "name": "tokenId",
          "type": "uint256"
        }
      ],
      "name": "getApproved",
      "outputs": [
        {
          "internalType": "address",
          "name": "",
          "type": "address"
        }
      ],
      "stateMutability": "view",
      "type": "function"
    },
    {
      "inputs": [
        {
          "internalType": "address",
          "name": "owner",
          "type": "address"
        },
        {
          "internalType": "address",
          "name": "operator",
          "type": "address"
        }
      ],
      "name": "isApprovedForAll",
      "outputs": [
        {
          "internalType": "bool",
          "name": "",
          "type": "bool"
        }
      ],
      "stateMutability": "view",
      "type": "function"
    },
    {
      "inputs": [],
      "name": "name",
      "outputs": [
        {
          "internalType": "string",
          "name": "",
          "type": "string"
        }
      ],
      "stateMutability": "view",
      "type": "function"
    },
    {
      "inputs": [
        {
          "internalType": "uint256",
          "name": "tokenId",
          "type": "uint256"
        }
      ],
      "name": "ownerOf",
      "outputs": [
        {
          "internalType": "address",
          "name": "",
          "type": "address"
        }
      ],
      "stateMutability": "view",
      "type": "function"
    },
    {
      "inputs": [
        {
          "internalType": "address",
          "name": "from",
          "type": "address"
        },
        {
          "internalType": "address",
          "name": "to",
          "type": "address"
        },
        {
          "internalType": "uint256",
          "name": "tokenId",
          "type": "uint256"
        }
      ],
      "name": "safeTransferFrom",
      "outputs": [],
      "stateMutability": "nonpayable",
      "type": "function"
    },
    {
      "inputs": [
        {
          "internalType": "address",
          "name": "from",
          "type": "address"
        },
        {
          "internalType": "address",
          "name": "to",
          "type": "address"
        },
        {
          "internalType": "uint256",
          "name": "tokenId",
          "type": "uint256"
        },
        {
          "internalType": "bytes",
          "name": "_data",
          "type": "bytes"
        }
      ],
      "name": "safeTransferFrom",
      "outputs": [],
      "stateMutability": "nonpayable",
      "type": "function"
    },
    {
      "inputs": [
        {
          "internalType": "address",
          "name": "operator",
          "type": "address"
        },
        {
          "internalType": "bool",
          "name": "approved",
          "type": "bool"
        }
      ],
      "name": "setApprovalForAll",
      "outputs": [],
      "stateMutability": "nonpayable",
      "type": "function"
    },
    {
      "inputs": [
        {
          "internalType": "bytes4",
          "name": "interfaceId",
          "type": "bytes4"
        }
      ],
      "name": "supportsInterface",
      "outputs": [
        {
          "internalType": "bool",
          "name": "",
          "type": "bool"
        }
      ],
      "stateMutability": "view",
      "type": "function"
    },
    {
      "inputs": [],
      "name": "symbol",
      "outputs": [
        {
          "internalType": "string",
          "name": "",
          "type": "string"
        }
      ],
      "stateMutability": "view",
      "type": "function"
    },
    {
      "inputs": [
        {
          "internalType": "uint256",
          "name": "index",
          "type": "uint256"
        }
      ],
      "name": "tokenByIndex",
      "outputs": [
        {
          "internalType": "uint256",
          "name": "",
          "type": "uint256"
        }
      ],
      "stateMutability": "view",
      "type": "function"
    },
    {
      "inputs": [
        {
          "internalType": "address",
          "name": "owner",
          "type": "address"
        },
        {
          "internalType": "uint256",
          "name": "index",
          "type": "uint256"
        }
      ],
      "name": "tokenOfOwnerByIndex",
      "outputs": [
        {
          "internalType": "uint256",
          "name": "",
          "type": "uint256"
        }
      ],
      "stateMutability": "view",
      "type": "function"
    },
    {
      "inputs": [
        {
          "internalType": "uint256",
          "name": "tokenId",
          "type": "uint256"
        }
      ],
      "name": "tokenURI",
      "outputs": [
        {
          "internalType": "string",
          "name": "",
          "type": "string"
        }
      ],
      "stateMutability": "view",
      "type": "function"
    },
    {
      "inputs": [],
      "name": "totalSupply",
      "outputs": [
        {
          "internalType": "uint256",
          "name": "",
          "type": "uint256"
        }
      ],
      "stateMutability": "view",
      "type": "function"
    },
    {
      "inputs": [
        {
          "internalType": "address",
          "name": "from",
          "type": "address"
        },
        {
          "internalType": "address",
          "name": "to",
          "type": "address"
        },
        {
          "internalType": "uint256",
          "name": "tokenId",
          "type": "uint256"
        }
      ],
      "name": "transferFrom",
      "outputs": [],
      "stateMutability": "nonpayable",
      "type": "function"
    }
  ],
  "bytecode": "0x60806040523480156200001157600080fd5b50604051620023453803806200234583398101604081905262000034916200020d565b8351849084906200004d9060009060208501906200009f565b508051620000639060019060208401906200009f565b5050600c80546001600160a01b039485166001600160a01b031991821617909155600d80549390941692169190911790915550620002ec915050565b828054620000ad9062000299565b90600052602060002090601f016020900481019282620000d157600085556200011c565b82601f10620000ec57805160ff19168380011785556200011c565b828001600101855582156200011c579182015b828111156200011c578251825591602001919060010190620000ff565b506200012a9291506200012e565b5090565b5b808211156200012a57600081556001016200012f565b80516001600160a01b03811681146200015d57600080fd5b919050565b600082601f83011262000173578081fd5b81516001600160401b0380821115620001905762000190620002d6565b6040516020601f8401601f1916820181018381118382101715620001b857620001b8620002d6565b6040528382528584018101871015620001cf578485fd5b8492505b83831015620001f25785830181015182840182015291820191620001d3565b838311156200020357848185840101525b5095945050505050565b6000806000806080858703121562000223578384fd5b84516001600160401b03808211156200023a578586fd5b620002488883890162000162565b955060208701519150808211156200025e578485fd5b506200026d8782880162000162565b9350506200027e6040860162000145565b91506200028e6060860162000145565b905092959194509250565b600281046001821680620002ae57607f821691505b60208210811415620002d057634e487b7160e01b600052602260045260246000fd5b50919050565b634e487b7160e01b600052604160045260246000fd5b61204980620002fc6000396000f3fe608060405234801561001057600080fd5b506004361061010b5760003560e01c80634f6ccce7116100a2578063a22cb46511610071578063a22cb46514610212578063b88d4fde14610225578063c87b56dd14610238578063e985e9c51461024b578063f15436361461025e5761010b565b80634f6ccce7146101d15780636352211e146101e457806370a08231146101f757806395d89b411461020a5761010b565b806318160ddd116100de57806318160ddd1461018357806323b872dd146101985780632f745c59146101ab57806342842e0e146101be5761010b565b806301ffc9a71461011057806306fdde0314610139578063081812fc1461014e578063095ea7b31461016e575b600080fd5b61012361011e366004611704565b610271565b6040516101309190611861565b60405180910390f35b610141610284565b604051610130919061186c565b61016161015c36600461173c565b610316565b6040516101309190611810565b61018161017c3660046116bd565b610362565b005b61018b6103fa565b6040516101309190611e81565b6101816101a63660046115d3565b610400565b61018b6101b93660046116bd565b610438565b6101816101cc3660046115d3565b61048a565b61018b6101df36600461173c565b6104a5565b6101616101f236600461173c565b610500565b61018b610205366004611563565b610535565b610141610579565b610181610220366004611690565b610588565b610181610233366004611613565b610656565b61014161024636600461173c565b610695565b61012361025936600461159b565b6106a0565b61018b61026c366004611754565b6106ce565b600061027c826107fd565b90505b919050565b60606000805461029390611f2b565b80601f01602080910402602001604051908101604052809291908181526020018280546102bf90611f2b565b801561030c5780601f106102e15761010080835404028352916020019161030c565b820191906000526020600020905b8154815290600101906020018083116102ef57829003601f168201915b5050505050905090565b600061032182610822565b6103465760405162461bcd60e51b815260040161033d90611c58565b60405180910390fd5b506000908152600460205260409020546001600160a01b031690565b600061036d82610500565b9050806001600160a01b0316836001600160a01b031614156103a15760405162461bcd60e51b815260040161033d90611d3c565b806001600160a01b03166103b361083f565b6001600160a01b031614806103cf57506103cf8161025961083f565b6103eb5760405162461bcd60e51b815260040161033d90611a51565b6103f58383610843565b505050565b60085490565b61041161040b61083f565b826108b1565b61042d5760405162461bcd60e51b815260040161033d90611de4565b6103f5838383610936565b600061044383610535565b82106104615760405162461bcd60e51b815260040161033d9061187f565b506001600160a01b03919091166000908152600660209081526040808320938352929052205490565b6103f583838360405180602001604052806000815250610656565b60006104af6103fa565b82106104cd5760405162461bcd60e51b815260040161033d90611e35565b600882815481106104ee57634e487b7160e01b600052603260045260246000fd5b90600052602060002001549050919050565b6000818152600260205260408120546001600160a01b03168061027c5760405162461bcd60e51b815260040161033d90611af8565b60006001600160a01b03821661055d5760405162461bcd60e51b815260040161033d90611aae565b506001600160a01b031660009081526003602052604090205490565b60606001805461029390611f2b565b61059061083f565b6001600160a01b0316826001600160a01b031614156105c15760405162461bcd60e51b815260040161033d90611997565b80600560006105ce61083f565b6001600160a01b03908116825260208083019390935260409182016000908120918716808252919093529120805460ff19169215159290921790915561061261083f565b6001600160a01b03167f17307eab39ab6107e8899845ad3d59bd9653f200f220920489ca2b5937696c318360405161064a9190611861565b60405180910390a35050565b61066761066161083f565b836108b1565b6106835760405162461bcd60e51b815260040161033d90611de4565b61068f84848484610a63565b50505050565b606061027c82610a96565b6001600160a01b03918216600090815260056020908152604080832093909416825291909152205460ff1690565b60006106d984610baf565b6106f55760405162461bcd60e51b815260040161033d90611bc4565b6106ff8385610c44565b61071b5760405162461bcd60e51b815260040161033d90611db4565b6107258385610cce565b156107425760405162461bcd60e51b815260040161033d90611d7d565b61074b83610cee565b6107675760405162461bcd60e51b815260040161033d90611a1a565b610771600b610d6f565b600061077d600b610d78565b90506107893382610d7c565b6107938184610e5b565b6000848152600e6020908152604080832088845290915290819020805460ff19166001179055517f65eabf8f7f240d3a7f5e15ddd7e2c1f4d639aea00746ea5729d8daa8ec4ef41f906107ed908390879089903390611e98565b60405180910390a1949350505050565b60006001600160e01b0319821663780e9d6360e01b148061027c575061027c82610e9f565b6000908152600260205260409020546001600160a01b0316151590565b3390565b600081815260046020526040902080546001600160a01b0319166001600160a01b038416908117909155819061087882610500565b6001600160a01b03167f8c5be1e5ebec7d5bd14f71427d1e84f3dd0314c0f7b2291e5b200ac8c7c3b92560405160405180910390a45050565b60006108bc82610822565b6108d85760405162461bcd60e51b815260040161033d906119ce565b60006108e383610500565b9050806001600160a01b0316846001600160a01b0316148061091e5750836001600160a01b031661091384610316565b6001600160a01b0316145b8061092e575061092e81856106a0565b949350505050565b826001600160a01b031661094982610500565b6001600160a01b03161461096f5760405162461bcd60e51b815260040161033d90611ca4565b6001600160a01b0382166109955760405162461bcd60e51b815260040161033d90611953565b6109a0838383610edf565b6109ab600082610843565b6001600160a01b03831660009081526003602052604081208054600192906109d4908490611ee8565b90915550506001600160a01b0382166000908152600360205260408120805460019290610a02908490611ebc565b909155505060008181526002602052604080822080546001600160a01b0319166001600160a01b0386811691821790925591518493918716917fddf252ad1be2c89b69c2b068fc378daa952ba7f163c4a11628f55a4df523b3ef91a4505050565b610a6e848484610936565b610a7a84848484610eea565b61068f5760405162461bcd60e51b815260040161033d906118ca565b6060610aa182610822565b610abd5760405162461bcd60e51b815260040161033d90611c07565b6000828152600a602052604081208054610ad690611f2b565b80601f0160208091040260200160405190810160405280929190818152602001828054610b0290611f2b565b8015610b4f5780601f10610b2457610100808354040283529160200191610b4f565b820191906000526020600020905b815481529060010190602001808311610b3257829003601f168201915b505050505090506000610b60611005565b9050805160001415610b745750905061027f565b815115610ba6578082604051602001610b8e9291906117e1565b6040516020818303038152906040529250505061027f565b61092e84611017565b600c546040516331a9108f60e11b815260009133916001600160a01b0390911690636352211e90610be4908690600401611e81565b60206040518083038186803b158015610bfc57600080fd5b505afa158015610c10573d6000803e3d6000fd5b505050506040513d601f19601f82011682018060405250810190610c34919061157f565b6001600160a01b03161492915050565b600d54604051638fdd453f60e01b81526000916001600160a01b031690638fdd453f90610c779086908690600401611e8a565b60206040518083038186803b158015610c8f57600080fd5b505afa158015610ca3573d6000803e3d6000fd5b505050506040513d601f19601f82011682018060405250810190610cc791906116e8565b9392505050565b6000918252600e6020908152604080842092845291905290205460ff1690565b600d5460405163893c329d60e01b81526000916001600160a01b03169063893c329d90610d1f908590600401611e81565b60206040518083038186803b158015610d3757600080fd5b505afa158015610d4b573d6000803e3d6000fd5b505050506040513d601f19601f8201168201806040525081019061027c91906116e8565b80546001019055565b5490565b6001600160a01b038216610da25760405162461bcd60e51b815260040161033d90611b8f565b610dab81610822565b15610dc85760405162461bcd60e51b815260040161033d9061191c565b610dd460008383610edf565b6001600160a01b0382166000908152600360205260408120805460019290610dfd908490611ebc565b909155505060008181526002602052604080822080546001600160a01b0319166001600160a01b03861690811790915590518392907fddf252ad1be2c89b69c2b068fc378daa952ba7f163c4a11628f55a4df523b3ef908290a45050565b610e6482610822565b610e805760405162461bcd60e51b815260040161033d90611b41565b6000828152600a6020908152604090912082516103f59284019061145a565b60006001600160e01b031982166380ac58cd60e01b1480610ed057506001600160e01b03198216635b5e139f60e01b145b8061027c575061027c82611099565b6103f58383836110b2565b6000610efe846001600160a01b031661113b565b15610ffa57836001600160a01b031663150b7a02610f1a61083f565b8786866040518563ffffffff1660e01b8152600401610f3c9493929190611824565b602060405180830381600087803b158015610f5657600080fd5b505af1925050508015610f86575060408051601f3d908101601f19168201909252610f8391810190611720565b60015b610fe0573d808015610fb4576040519150601f19603f3d011682016040523d82523d6000602084013e610fb9565b606091505b508051610fd85760405162461bcd60e51b815260040161033d906118ca565b805181602001fd5b6001600160e01b031916630a85bd0160e11b14905061092e565b506001949350505050565b60408051602081019091526000815290565b606061102282610822565b61103e5760405162461bcd60e51b815260040161033d90611ced565b6000611048611005565b905060008151116110685760405180602001604052806000815250610cc7565b8061107284611141565b6040516020016110839291906117e1565b6040516020818303038152906040529392505050565b6001600160e01b031981166301ffc9a760e01b14919050565b6110bd8383836103f5565b6001600160a01b0383166110d9576110d48161125c565b6110fc565b816001600160a01b0316836001600160a01b0316146110fc576110fc83826112a0565b6001600160a01b038216611118576111138161133d565b6103f5565b826001600160a01b0316826001600160a01b0316146103f5576103f58282611416565b3b151590565b60608161116657506040805180820190915260018152600360fc1b602082015261027f565b8160005b8115611190578061117a81611f66565b91506111899050600a83611ed4565b915061116a565b60008167ffffffffffffffff8111156111b957634e487b7160e01b600052604160045260246000fd5b6040519080825280601f01601f1916602001820160405280156111e3576020820181803683370190505b5090505b841561092e576111f8600183611ee8565b9150611205600a86611f81565b611210906030611ebc565b60f81b81838151811061123357634e487b7160e01b600052603260045260246000fd5b60200101906001600160f81b031916908160001a905350611255600a86611ed4565b94506111e7565b600880546000838152600960205260408120829055600182018355919091527ff3f7a9fe364faab93b216da50a3214154f22a0a2b415b23a84c8169e8b636ee30155565b600060016112ad84610535565b6112b79190611ee8565b60008381526007602052604090205490915080821461130a576001600160a01b03841660009081526006602090815260408083208584528252808320548484528184208190558352600790915290208190555b5060009182526007602090815260408084208490556001600160a01b039094168352600681528383209183525290812055565b60085460009061134f90600190611ee8565b6000838152600960205260408120546008805493945090928490811061138557634e487b7160e01b600052603260045260246000fd5b9060005260206000200154905080600883815481106113b457634e487b7160e01b600052603260045260246000fd5b60009182526020808320909101929092558281526009909152604080822084905585825281205560088054806113fa57634e487b7160e01b600052603160045260246000fd5b6001900381819060005260206000200160009055905550505050565b600061142183610535565b6001600160a01b039093166000908152600660209081526040808320868452825280832085905593825260079052919091209190915550565b82805461146690611f2b565b90600052602060002090601f01602090048101928261148857600085556114ce565b82601f106114a157805160ff19168380011785556114ce565b828001600101855582156114ce579182015b828111156114ce5782518255916020019190600101906114b3565b506114da9291506114de565b5090565b5b808211156114da57600081556001016114df565b600067ffffffffffffffff8084111561150e5761150e611fc1565b604051601f8501601f19168101602001828111828210171561153257611532611fc1565b60405284815291508183850186101561154a57600080fd5b8484602083013760006020868301015250509392505050565b600060208284031215611574578081fd5b8135610cc781611fd7565b600060208284031215611590578081fd5b8151610cc781611fd7565b600080604083850312156115ad578081fd5b82356115b881611fd7565b915060208301356115c881611fd7565b809150509250929050565b6000806000606084860312156115e7578081fd5b83356115f281611fd7565b9250602084013561160281611fd7565b929592945050506040919091013590565b60008060008060808587031215611628578081fd5b843561163381611fd7565b9350602085013561164381611fd7565b925060408501359150606085013567ffffffffffffffff811115611665578182fd5b8501601f81018713611675578182fd5b611684878235602084016114f3565b91505092959194509250565b600080604083850312156116a2578182fd5b82356116ad81611fd7565b915060208301356115c881611fef565b600080604083850312156116cf578182fd5b82356116da81611fd7565b946020939093013593505050565b6000602082840312156116f9578081fd5b8151610cc781611fef565b600060208284031215611715578081fd5b8135610cc781611ffd565b600060208284031215611731578081fd5b8151610cc781611ffd565b60006020828403121561174d578081fd5b5035919050565b600080600060608486031215611768578283fd5b8335925060208401359150604084013567ffffffffffffffff81111561178c578182fd5b8401601f8101861361179c578182fd5b6117ab868235602084016114f3565b9150509250925092565b600081518084526117cd816020860160208601611eff565b601f01601f19169290920160200192915050565b600083516117f3818460208801611eff565b835190830190611807818360208801611eff565b01949350505050565b6001600160a01b0391909116815260200190565b6001600160a01b0385811682528416602082015260408101839052608060608201819052600090611857908301846117b5565b9695505050505050565b901515815260200190565b600060208252610cc760208301846117b5565b6020808252602b908201527f455243373231456e756d657261626c653a206f776e657220696e646578206f7560408201526a74206f6620626f756e647360a81b606082015260800190565b60208082526032908201527f4552433732313a207472616e7366657220746f206e6f6e20455243373231526560408201527131b2b4bb32b91034b6b83632b6b2b73a32b960711b606082015260800190565b6020808252601c908201527f4552433732313a20746f6b656e20616c7265616479206d696e74656400000000604082015260600190565b60208082526024908201527f4552433732313a207472616e7366657220746f20746865207a65726f206164646040820152637265737360e01b606082015260800190565b60208082526019908201527f4552433732313a20617070726f766520746f2063616c6c657200000000000000604082015260600190565b6020808252602c908201527f4552433732313a206f70657261746f7220717565727920666f72206e6f6e657860408201526b34b9ba32b73a103a37b5b2b760a11b606082015260800190565b60208082526017908201527f746869732062616e64206973206e6f7420616374697665000000000000000000604082015260600190565b60208082526038908201527f4552433732313a20617070726f76652063616c6c6572206973206e6f74206f7760408201527f6e6572206e6f7220617070726f76656420666f7220616c6c0000000000000000606082015260800190565b6020808252602a908201527f4552433732313a2062616c616e636520717565727920666f7220746865207a65604082015269726f206164647265737360b01b606082015260800190565b60208082526029908201527f4552433732313a206f776e657220717565727920666f72206e6f6e657869737460408201526832b73a103a37b5b2b760b91b606082015260800190565b6020808252602e908201527f45524337323155524953746f726167653a2055524920736574206f66206e6f6e60408201526d32bc34b9ba32b73a103a37b5b2b760911b606082015260800190565b6020808252818101527f4552433732313a206d696e7420746f20746865207a65726f2061646472657373604082015260600190565b60208082526023908201527f796f7520646f206e6f74206f776e2074686520737065636966696564206172746040820152621a5cdd60ea1b606082015260800190565b60208082526031908201527f45524337323155524953746f726167653a2055524920717565727920666f72206040820152703737b732bc34b9ba32b73a103a37b5b2b760791b606082015260800190565b6020808252602c908201527f4552433732313a20617070726f76656420717565727920666f72206e6f6e657860408201526b34b9ba32b73a103a37b5b2b760a11b606082015260800190565b60208082526029908201527f4552433732313a207472616e73666572206f6620746f6b656e2074686174206960408201526839903737ba1037bbb760b91b606082015260800190565b6020808252602f908201527f4552433732314d657461646174613a2055524920717565727920666f72206e6f60408201526e3732bc34b9ba32b73a103a37b5b2b760891b606082015260800190565b60208082526021908201527f4552433732313a20617070726f76616c20746f2063757272656e74206f776e656040820152603960f91b606082015260800190565b6020808252601b908201527f61727469737420616c7265616479206d696e74656420747261636b0000000000604082015260600190565b6020808252601690820152751e5bdd49dc99481b9bdd081a5b881d1a194818985b9960521b604082015260600190565b60208082526031908201527f4552433732313a207472616e736665722063616c6c6572206973206e6f74206f6040820152701ddb995c881b9bdc88185c1c1c9bdd9959607a1b606082015260800190565b6020808252602c908201527f455243373231456e756d657261626c653a20676c6f62616c20696e646578206f60408201526b7574206f6620626f756e647360a01b606082015260800190565b90815260200190565b918252602082015260400190565b938452602084019290925260408301526001600160a01b0316606082015260800190565b60008219821115611ecf57611ecf611f95565b500190565b600082611ee357611ee3611fab565b500490565b600082821015611efa57611efa611f95565b500390565b60005b83811015611f1a578181015183820152602001611f02565b8381111561068f5750506000910152565b600281046001821680611f3f57607f821691505b60208210811415611f6057634e487b7160e01b600052602260045260246000fd5b50919050565b6000600019821415611f7a57611f7a611f95565b5060010190565b600082611f9057611f90611fab565b500690565b634e487b7160e01b600052601160045260246000fd5b634e487b7160e01b600052601260045260246000fd5b634e487b7160e01b600052604160045260246000fd5b6001600160a01b0381168114611fec57600080fd5b50565b8015158114611fec57600080fd5b6001600160e01b031981168114611fec57600080fdfea264697066735822122000ae4acc268395a5066c274d3035ed38d33af5b993205e0ad19201b20202d45264736f6c63430008000033",
  "linkReferences": {},
  "deployedLinkReferences": {}
}