{
  "_format": "hh-sol-artifact-1",
  "contractName": "USMArtistToken",
  "sourceName": "contracts/USMArtistToken.sol",
  "abi": [
    {
      "inputs": [
        {
          "internalType": "string",
          "name": "name",
          "type": "string"
        },
        {
          "internalType": "string",
          "name": "symbol",
          "type": "string"
        }
      ],
      "stateMutability": "nonpayable",
      "type": "constructor"
    },
    {
      "anonymous": false,
      "inputs": [
        {
          "indexed": true,
          "internalType": "address",
          "name": "owner",
          "type": "address"
        },
        {
          "indexed": true,
          "internalType": "address",
          "name": "approved",
          "type": "address"
        },
        {
          "indexed": true,
          "internalType": "uint256",
          "name": "tokenId",
          "type": "uint256"
        }
      ],
      "name": "Approval",
      "type": "event"
    },
    {
      "anonymous": false,
      "inputs": [
        {
          "indexed": true,
          "internalType": "address",
          "name": "owner",
          "type": "address"
        },
        {
          "indexed": true,
          "internalType": "address",
          "name": "operator",
          "type": "address"
        },
        {
          "indexed": false,
          "internalType": "bool",
          "name": "approved",
          "type": "bool"
        }
      ],
      "name": "ApprovalForAll",
      "type": "event"
    },
    {
      "anonymous": false,
      "inputs": [
        {
          "indexed": true,
          "internalType": "address",
          "name": "from",
          "type": "address"
        },
        {
          "indexed": true,
          "internalType": "address",
          "name": "to",
          "type": "address"
        },
        {
          "indexed": true,
          "internalType": "uint256",
          "name": "tokenId",
          "type": "uint256"
        }
      ],
      "name": "Transfer",
      "type": "event"
    },
    {
      "inputs": [],
      "name": "ARTIST_CAP",
      "outputs": [
        {
          "internalType": "uint256",
          "name": "",
          "type": "uint256"
        }
      ],
      "stateMutability": "view",
      "type": "function"
    },
    {
      "inputs": [
        {
          "internalType": "address",
          "name": "to",
          "type": "address"
        },
        {
          "internalType": "uint256",
          "name": "tokenId",
          "type": "uint256"
        }
      ],
      "name": "approve",
      "outputs": [],
      "stateMutability": "nonpayable",
      "type": "function"
    },
    {
      "inputs": [
        {
          "internalType": "address",
          "name": "owner",
          "type": "address"
        }
      ],
      "name": "balanceOf",
      "outputs": [
        {
          "internalType": "uint256",
          "name": "",
          "type": "uint256"
        }
      ],
      "stateMutability": "view",
      "type": "function"
    },
    {
      "inputs": [],
      "name": "calculatePrice",
      "outputs": [
        {
          "internalType": "uint256",
          "name": "",
          "type": "uint256"
        }
      ],
      "stateMutability": "view",
      "type": "function"
    },
    {
      "inputs": [
        {
          "internalType": "string",
          "name": "uri",
          "type": "string"
        }
      ],
      "name": "createArtist",
      "outputs": [
        {
          "internalType": "uint256",
          "name": "",
          "type": "uint256"
        }
      ],
      "stateMutability": "payable",
      "type": "function"
    },
    {
      "inputs": [
        {
          "internalType": "uint256",
          "name": "tokenId",
          "type": "uint256"
        }
      ],
      "name": "getApproved",
      "outputs": [
        {
          "internalType": "address",
          "name": "",
          "type": "address"
        }
      ],
      "stateMutability": "view",
      "type": "function"
    },
    {
      "inputs": [
        {
          "internalType": "address",
          "name": "owner",
          "type": "address"
        },
        {
          "internalType": "address",
          "name": "operator",
          "type": "address"
        }
      ],
      "name": "isApprovedForAll",
      "outputs": [
        {
          "internalType": "bool",
          "name": "",
          "type": "bool"
        }
      ],
      "stateMutability": "view",
      "type": "function"
    },
    {
      "inputs": [],
      "name": "name",
      "outputs": [
        {
          "internalType": "string",
          "name": "",
          "type": "string"
        }
      ],
      "stateMutability": "view",
      "type": "function"
    },
    {
      "inputs": [
        {
          "internalType": "uint256",
          "name": "tokenId",
          "type": "uint256"
        }
      ],
      "name": "ownerOf",
      "outputs": [
        {
          "internalType": "address",
          "name": "",
          "type": "address"
        }
      ],
      "stateMutability": "view",
      "type": "function"
    },
    {
      "inputs": [
        {
          "internalType": "address",
          "name": "from",
          "type": "address"
        },
        {
          "internalType": "address",
          "name": "to",
          "type": "address"
        },
        {
          "internalType": "uint256",
          "name": "tokenId",
          "type": "uint256"
        }
      ],
      "name": "safeTransferFrom",
      "outputs": [],
      "stateMutability": "nonpayable",
      "type": "function"
    },
    {
      "inputs": [
        {
          "internalType": "address",
          "name": "from",
          "type": "address"
        },
        {
          "internalType": "address",
          "name": "to",
          "type": "address"
        },
        {
          "internalType": "uint256",
          "name": "tokenId",
          "type": "uint256"
        },
        {
          "internalType": "bytes",
          "name": "_data",
          "type": "bytes"
        }
      ],
      "name": "safeTransferFrom",
      "outputs": [],
      "stateMutability": "nonpayable",
      "type": "function"
    },
    {
      "inputs": [
        {
          "internalType": "address",
          "name": "operator",
          "type": "address"
        },
        {
          "internalType": "bool",
          "name": "approved",
          "type": "bool"
        }
      ],
      "name": "setApprovalForAll",
      "outputs": [],
      "stateMutability": "nonpayable",
      "type": "function"
    },
    {
      "inputs": [
        {
          "internalType": "bytes4",
          "name": "interfaceId",
          "type": "bytes4"
        }
      ],
      "name": "supportsInterface",
      "outputs": [
        {
          "internalType": "bool",
          "name": "",
          "type": "bool"
        }
      ],
      "stateMutability": "view",
      "type": "function"
    },
    {
      "inputs": [],
      "name": "symbol",
      "outputs": [
        {
          "internalType": "string",
          "name": "",
          "type": "string"
        }
      ],
      "stateMutability": "view",
      "type": "function"
    },
    {
      "inputs": [
        {
          "internalType": "uint256",
          "name": "index",
          "type": "uint256"
        }
      ],
      "name": "tokenByIndex",
      "outputs": [
        {
          "internalType": "uint256",
          "name": "",
          "type": "uint256"
        }
      ],
      "stateMutability": "view",
      "type": "function"
    },
    {
      "inputs": [
        {
          "internalType": "address",
          "name": "owner",
          "type": "address"
        },
        {
          "internalType": "uint256",
          "name": "index",
          "type": "uint256"
        }
      ],
      "name": "tokenOfOwnerByIndex",
      "outputs": [
        {
          "internalType": "uint256",
          "name": "",
          "type": "uint256"
        }
      ],
      "stateMutability": "view",
      "type": "function"
    },
    {
      "inputs": [
        {
          "internalType": "uint256",
          "name": "tokenId",
          "type": "uint256"
        }
      ],
      "name": "tokenURI",
      "outputs": [
        {
          "internalType": "string",
          "name": "",
          "type": "string"
        }
      ],
      "stateMutability": "view",
      "type": "function"
    },
    {
      "inputs": [],
      "name": "totalSupply",
      "outputs": [
        {
          "internalType": "uint256",
          "name": "",
          "type": "uint256"
        }
      ],
      "stateMutability": "view",
      "type": "function"
    },
    {
      "inputs": [
        {
          "internalType": "address",
          "name": "from",
          "type": "address"
        },
        {
          "internalType": "address",
          "name": "to",
          "type": "address"
        },
        {
          "internalType": "uint256",
          "name": "tokenId",
          "type": "uint256"
        }
      ],
      "name": "transferFrom",
      "outputs": [],
      "stateMutability": "nonpayable",
      "type": "function"
    }
  ],
  "bytecode": "0x60806040523480156200001157600080fd5b50604051620039f0380380620039f0833981810160405281019062000037919062000197565b818181600090805190602001906200005192919062000075565b5080600190805190602001906200006a92919062000075565b50505050506200033b565b8280546200008390620002a7565b90600052602060002090601f016020900481019282620000a75760008555620000f3565b82601f10620000c257805160ff1916838001178555620000f3565b82800160010185558215620000f3579182015b82811115620000f2578251825591602001919060010190620000d5565b5b50905062000102919062000106565b5090565b5b808211156200012157600081600090555060010162000107565b5090565b60006200013c62000136846200023e565b6200020a565b9050828152602081018484840111156200015557600080fd5b6200016284828562000271565b509392505050565b600082601f8301126200017c57600080fd5b81516200018e84826020860162000125565b91505092915050565b60008060408385031215620001ab57600080fd5b600083015167ffffffffffffffff811115620001c657600080fd5b620001d4858286016200016a565b925050602083015167ffffffffffffffff811115620001f257600080fd5b62000200858286016200016a565b9150509250929050565b6000604051905081810181811067ffffffffffffffff821117156200023457620002336200030c565b5b8060405250919050565b600067ffffffffffffffff8211156200025c576200025b6200030c565b5b601f19601f8301169050602081019050919050565b60005b838110156200029157808201518184015260208101905062000274565b83811115620002a1576000848401525b50505050565b60006002820490506001821680620002c057607f821691505b60208210811415620002d757620002d6620002dd565b5b50919050565b7f4e487b7100000000000000000000000000000000000000000000000000000000600052602260045260246000fd5b7f4e487b7100000000000000000000000000000000000000000000000000000000600052604160045260246000fd5b6136a5806200034b6000396000f3fe6080604052600436106101145760003560e01c80634f6ccce7116100a0578063b88d4fde11610064578063b88d4fde146103d7578063c87b56dd14610400578063d348b4091461043d578063e089690314610468578063e985e9c51461049857610114565b80634f6ccce7146102cc5780636352211e1461030957806370a082311461034657806395d89b4114610383578063a22cb465146103ae57610114565b806318160ddd116100e757806318160ddd146101e757806323b872dd146102125780632f745c591461023b5780633a97438e1461027857806342842e0e146102a357610114565b806301ffc9a71461011957806306fdde0314610156578063081812fc14610181578063095ea7b3146101be575b600080fd5b34801561012557600080fd5b50610140600480360381019061013b91906125a6565b6104d5565b60405161014d9190612f5d565b60405180910390f35b34801561016257600080fd5b5061016b6104e7565b6040516101789190612f78565b60405180910390f35b34801561018d57600080fd5b506101a860048036038101906101a39190612639565b610579565b6040516101b59190612ef6565b60405180910390f35b3480156101ca57600080fd5b506101e560048036038101906101e0919061256a565b6105fe565b005b3480156101f357600080fd5b506101fc610716565b604051610209919061323a565b60405180910390f35b34801561021e57600080fd5b5061023960048036038101906102349190612464565b610723565b005b34801561024757600080fd5b50610262600480360381019061025d919061256a565b610783565b60405161026f919061323a565b60405180910390f35b34801561028457600080fd5b5061028d610828565b60405161029a919061323a565b60405180910390f35b3480156102af57600080fd5b506102ca60048036038101906102c59190612464565b61082d565b005b3480156102d857600080fd5b506102f360048036038101906102ee9190612639565b61084d565b604051610300919061323a565b60405180910390f35b34801561031557600080fd5b50610330600480360381019061032b9190612639565b6108e4565b60405161033d9190612ef6565b60405180910390f35b34801561035257600080fd5b5061036d600480360381019061036891906123ff565b610996565b60405161037a919061323a565b60405180910390f35b34801561038f57600080fd5b50610398610a4e565b6040516103a59190612f78565b60405180910390f35b3480156103ba57600080fd5b506103d560048036038101906103d0919061252e565b610ae0565b005b3480156103e357600080fd5b506103fe60048036038101906103f991906124b3565b610c61565b005b34801561040c57600080fd5b5061042760048036038101906104229190612639565b610cc3565b6040516104349190612f78565b60405180910390f35b34801561044957600080fd5b50610452610cd5565b60405161045f919061323a565b60405180910390f35b610482600480360381019061047d91906125f8565b610ce5565b60405161048f919061323a565b60405180910390f35b3480156104a457600080fd5b506104bf60048036038101906104ba9190612428565b610e98565b6040516104cc9190612f5d565b60405180910390f35b60006104e082610f2c565b9050919050565b6060600080546104f69061349a565b80601f01602080910402602001604051908101604052809291908181526020018280546105229061349a565b801561056f5780601f106105445761010080835404028352916020019161056f565b820191906000526020600020905b81548152906001019060200180831161055257829003601f168201915b5050505050905090565b600061058482610fa6565b6105c3576040517f08c379a00000000000000000000000000000000000000000000000000000000081526004016105ba9061311a565b60405180910390fd5b6004600083815260200190815260200160002060009054906101000a900473ffffffffffffffffffffffffffffffffffffffff169050919050565b6000610609826108e4565b90508073ffffffffffffffffffffffffffffffffffffffff168373ffffffffffffffffffffffffffffffffffffffff16141561067a576040517f08c379a0000000000000000000000000000000000000000000000000000000008152600401610671906131ba565b60405180910390fd5b8073ffffffffffffffffffffffffffffffffffffffff16610699611012565b73ffffffffffffffffffffffffffffffffffffffff1614806106c857506106c7816106c2611012565b610e98565b5b610707576040517f08c379a00000000000000000000000000000000000000000000000000000000081526004016106fe9061305a565b60405180910390fd5b610711838361101a565b505050565b6000600880549050905090565b61073461072e611012565b826110d3565b610773576040517f08c379a000000000000000000000000000000000000000000000000000000000815260040161076a906131da565b60405180910390fd5b61077e8383836111b1565b505050565b600061078e83610996565b82106107cf576040517f08c379a00000000000000000000000000000000000000000000000000000000081526004016107c690612f9a565b60405180910390fd5b600660008473ffffffffffffffffffffffffffffffffffffffff1673ffffffffffffffffffffffffffffffffffffffff168152602001908152602001600020600083815260200190815260200160002054905092915050565b605081565b61084883838360405180602001604052806000815250610c61565b505050565b6000610857610716565b8210610898576040517f08c379a000000000000000000000000000000000000000000000000000000000815260040161088f906131fa565b60405180910390fd5b600882815481106108d2577f4e487b7100000000000000000000000000000000000000000000000000000000600052603260045260246000fd5b90600052602060002001549050919050565b6000806002600084815260200190815260200160002060009054906101000a900473ffffffffffffffffffffffffffffffffffffffff169050600073ffffffffffffffffffffffffffffffffffffffff168173ffffffffffffffffffffffffffffffffffffffff16141561098d576040517f08c379a00000000000000000000000000000000000000000000000000000000081526004016109849061309a565b60405180910390fd5b80915050919050565b60008073ffffffffffffffffffffffffffffffffffffffff168273ffffffffffffffffffffffffffffffffffffffff161415610a07576040517f08c379a00000000000000000000000000000000000000000000000000000000081526004016109fe9061307a565b60405180910390fd5b600360008373ffffffffffffffffffffffffffffffffffffffff1673ffffffffffffffffffffffffffffffffffffffff168152602001908152602001600020549050919050565b606060018054610a5d9061349a565b80601f0160208091040260200160405190810160405280929190818152602001828054610a899061349a565b8015610ad65780601f10610aab57610100808354040283529160200191610ad6565b820191906000526020600020905b815481529060010190602001808311610ab957829003601f168201915b5050505050905090565b610ae8611012565b73ffffffffffffffffffffffffffffffffffffffff168273ffffffffffffffffffffffffffffffffffffffff161415610b56576040517f08c379a0000000000000000000000000000000000000000000000000000000008152600401610b4d9061301a565b60405180910390fd5b8060056000610b63611012565b73ffffffffffffffffffffffffffffffffffffffff1673ffffffffffffffffffffffffffffffffffffffff16815260200190815260200160002060008473ffffffffffffffffffffffffffffffffffffffff1673ffffffffffffffffffffffffffffffffffffffff16815260200190815260200160002060006101000a81548160ff0219169083151502179055508173ffffffffffffffffffffffffffffffffffffffff16610c10611012565b73ffffffffffffffffffffffffffffffffffffffff167f17307eab39ab6107e8899845ad3d59bd9653f200f220920489ca2b5937696c3183604051610c559190612f5d565b60405180910390a35050565b610c72610c6c611012565b836110d3565b610cb1576040517f08c379a0000000000000000000000000000000000000000000000000000000008152600401610ca8906131da565b60405180910390fd5b610cbd8484848461140d565b50505050565b6060610cce82611469565b9050919050565b6000670214e8348c4f0000905090565b60006050610cf3600b6115bb565b1115610d34576040517f08c379a0000000000000000000000000000000000000000000000000000000008152600401610d2b9061321a565b60405180910390fd5b600c60003373ffffffffffffffffffffffffffffffffffffffff1673ffffffffffffffffffffffffffffffffffffffff16815260200190815260200160002060009054906101000a900460ff1615610dc1576040517f08c379a0000000000000000000000000000000000000000000000000000000008152600401610db89061319a565b60405180910390fd5b610dc9610cd5565b341015610e0b576040517f08c379a0000000000000000000000000000000000000000000000000000000008152600401610e029061313a565b60405180910390fd5b610e15600b6115c9565b6000610e21600b6115bb565b9050610e2d33826115df565b610e3781846117ad565b6001600c60003373ffffffffffffffffffffffffffffffffffffffff1673ffffffffffffffffffffffffffffffffffffffff16815260200190815260200160002060006101000a81548160ff02191690831515021790555080915050919050565b6000600560008473ffffffffffffffffffffffffffffffffffffffff1673ffffffffffffffffffffffffffffffffffffffff16815260200190815260200160002060008373ffffffffffffffffffffffffffffffffffffffff1673ffffffffffffffffffffffffffffffffffffffff16815260200190815260200160002060009054906101000a900460ff16905092915050565b60007f780e9d63000000000000000000000000000000000000000000000000000000007bffffffffffffffffffffffffffffffffffffffffffffffffffffffff1916827bffffffffffffffffffffffffffffffffffffffffffffffffffffffff19161480610f9f5750610f9e82611821565b5b9050919050565b60008073ffffffffffffffffffffffffffffffffffffffff166002600084815260200190815260200160002060009054906101000a900473ffffffffffffffffffffffffffffffffffffffff1673ffffffffffffffffffffffffffffffffffffffff1614159050919050565b600033905090565b816004600083815260200190815260200160002060006101000a81548173ffffffffffffffffffffffffffffffffffffffff021916908373ffffffffffffffffffffffffffffffffffffffff160217905550808273ffffffffffffffffffffffffffffffffffffffff1661108d836108e4565b73ffffffffffffffffffffffffffffffffffffffff167f8c5be1e5ebec7d5bd14f71427d1e84f3dd0314c0f7b2291e5b200ac8c7c3b92560405160405180910390a45050565b60006110de82610fa6565b61111d576040517f08c379a00000000000000000000000000000000000000000000000000000000081526004016111149061303a565b60405180910390fd5b6000611128836108e4565b90508073ffffffffffffffffffffffffffffffffffffffff168473ffffffffffffffffffffffffffffffffffffffff16148061119757508373ffffffffffffffffffffffffffffffffffffffff1661117f84610579565b73ffffffffffffffffffffffffffffffffffffffff16145b806111a857506111a78185610e98565b5b91505092915050565b8273ffffffffffffffffffffffffffffffffffffffff166111d1826108e4565b73ffffffffffffffffffffffffffffffffffffffff1614611227576040517f08c379a000000000000000000000000000000000000000000000000000000000815260040161121e9061315a565b60405180910390fd5b600073ffffffffffffffffffffffffffffffffffffffff168273ffffffffffffffffffffffffffffffffffffffff161415611297576040517f08c379a000000000000000000000000000000000000000000000000000000000815260040161128e90612ffa565b60405180910390fd5b6112a2838383611903565b6112ad60008261101a565b6001600360008573ffffffffffffffffffffffffffffffffffffffff1673ffffffffffffffffffffffffffffffffffffffff16815260200190815260200160002060008282546112fd91906133b0565b925050819055506001600360008473ffffffffffffffffffffffffffffffffffffffff1673ffffffffffffffffffffffffffffffffffffffff16815260200190815260200160002060008282546113549190613329565b92505081905550816002600083815260200190815260200160002060006101000a81548173ffffffffffffffffffffffffffffffffffffffff021916908373ffffffffffffffffffffffffffffffffffffffff160217905550808273ffffffffffffffffffffffffffffffffffffffff168473ffffffffffffffffffffffffffffffffffffffff167fddf252ad1be2c89b69c2b068fc378daa952ba7f163c4a11628f55a4df523b3ef60405160405180910390a4505050565b6114188484846111b1565b61142484848484611913565b611463576040517f08c379a000000000000000000000000000000000000000000000000000000000815260040161145a90612fba565b60405180910390fd5b50505050565b606061147482610fa6565b6114b3576040517f08c379a00000000000000000000000000000000000000000000000000000000081526004016114aa906130fa565b60405180910390fd5b6000600a600084815260200190815260200160002080546114d39061349a565b80601f01602080910402602001604051908101604052809291908181526020018280546114ff9061349a565b801561154c5780601f106115215761010080835404028352916020019161154c565b820191906000526020600020905b81548152906001019060200180831161152f57829003601f168201915b50505050509050600061155d611aaa565b90506000815114156115735781925050506115b6565b6000825111156115a8578082604051602001611590929190612ed2565b604051602081830303815290604052925050506115b6565b6115b184611ac1565b925050505b919050565b600081600001549050919050565b6001816000016000828254019250508190555050565b600073ffffffffffffffffffffffffffffffffffffffff168273ffffffffffffffffffffffffffffffffffffffff16141561164f576040517f08c379a0000000000000000000000000000000000000000000000000000000008152600401611646906130da565b60405180910390fd5b61165881610fa6565b15611698576040517f08c379a000000000000000000000000000000000000000000000000000000000815260040161168f90612fda565b60405180910390fd5b6116a460008383611903565b6001600360008473ffffffffffffffffffffffffffffffffffffffff1673ffffffffffffffffffffffffffffffffffffffff16815260200190815260200160002060008282546116f49190613329565b92505081905550816002600083815260200190815260200160002060006101000a81548173ffffffffffffffffffffffffffffffffffffffff021916908373ffffffffffffffffffffffffffffffffffffffff160217905550808273ffffffffffffffffffffffffffffffffffffffff16600073ffffffffffffffffffffffffffffffffffffffff167fddf252ad1be2c89b69c2b068fc378daa952ba7f163c4a11628f55a4df523b3ef60405160405180910390a45050565b6117b682610fa6565b6117f5576040517f08c379a00000000000000000000000000000000000000000000000000000000081526004016117ec906130ba565b60405180910390fd5b80600a6000848152602001908152602001600020908051906020019061181c929190612223565b505050565b60007f80ac58cd000000000000000000000000000000000000000000000000000000007bffffffffffffffffffffffffffffffffffffffffffffffffffffffff1916827bffffffffffffffffffffffffffffffffffffffffffffffffffffffff191614806118ec57507f5b5e139f000000000000000000000000000000000000000000000000000000007bffffffffffffffffffffffffffffffffffffffffffffffffffffffff1916827bffffffffffffffffffffffffffffffffffffffffffffffffffffffff1916145b806118fc57506118fb82611b68565b5b9050919050565b61190e838383611bd2565b505050565b60006119348473ffffffffffffffffffffffffffffffffffffffff16611ce6565b15611a9d578373ffffffffffffffffffffffffffffffffffffffff1663150b7a0261195d611012565b8786866040518563ffffffff1660e01b815260040161197f9493929190612f11565b602060405180830381600087803b15801561199957600080fd5b505af19250505080156119ca57506040513d601f19601f820116820180604052508101906119c791906125cf565b60015b611a4d573d80600081146119fa576040519150601f19603f3d011682016040523d82523d6000602084013e6119ff565b606091505b50600081511415611a45576040517f08c379a0000000000000000000000000000000000000000000000000000000008152600401611a3c90612fba565b60405180910390fd5b805181602001fd5b63150b7a0260e01b7bffffffffffffffffffffffffffffffffffffffffffffffffffffffff1916817bffffffffffffffffffffffffffffffffffffffffffffffffffffffff191614915050611aa2565b600190505b949350505050565b606060405180602001604052806000815250905090565b6060611acc82610fa6565b611b0b576040517f08c379a0000000000000000000000000000000000000000000000000000000008152600401611b029061317a565b60405180910390fd5b6000611b15611aaa565b90506000815111611b355760405180602001604052806000815250611b60565b80611b3f84611cf9565b604051602001611b50929190612ed2565b6040516020818303038152906040525b915050919050565b60007f01ffc9a7000000000000000000000000000000000000000000000000000000007bffffffffffffffffffffffffffffffffffffffffffffffffffffffff1916827bffffffffffffffffffffffffffffffffffffffffffffffffffffffff1916149050919050565b611bdd838383611ea6565b600073ffffffffffffffffffffffffffffffffffffffff168373ffffffffffffffffffffffffffffffffffffffff161415611c2057611c1b81611eab565b611c5f565b8173ffffffffffffffffffffffffffffffffffffffff168373ffffffffffffffffffffffffffffffffffffffff1614611c5e57611c5d8382611ef4565b5b5b600073ffffffffffffffffffffffffffffffffffffffff168273ffffffffffffffffffffffffffffffffffffffff161415611ca257611c9d81612061565b611ce1565b8273ffffffffffffffffffffffffffffffffffffffff168273ffffffffffffffffffffffffffffffffffffffff1614611ce057611cdf82826121a4565b5b5b505050565b600080823b905060008111915050919050565b60606000821415611d41576040518060400160405280600181526020017f30000000000000000000000000000000000000000000000000000000000000008152509050611ea1565b600082905060005b60008214611d73578080611d5c906134cc565b915050600a82611d6c919061337f565b9150611d49565b60008167ffffffffffffffff811115611db5577f4e487b7100000000000000000000000000000000000000000000000000000000600052604160045260246000fd5b6040519080825280601f01601f191660200182016040528015611de75781602001600182028036833780820191505090505b5090505b60008514611e9a57600182611e0091906133b0565b9150600a85611e0f9190613515565b6030611e1b9190613329565b60f81b818381518110611e57577f4e487b7100000000000000000000000000000000000000000000000000000000600052603260045260246000fd5b60200101907effffffffffffffffffffffffffffffffffffffffffffffffffffffffffffff1916908160001a905350600a85611e93919061337f565b9450611deb565b8093505050505b919050565b505050565b6008805490506009600083815260200190815260200160002081905550600881908060018154018082558091505060019003906000526020600020016000909190919091505550565b60006001611f0184610996565b611f0b91906133b0565b9050600060076000848152602001908152602001600020549050818114611ff0576000600660008673ffffffffffffffffffffffffffffffffffffffff1673ffffffffffffffffffffffffffffffffffffffff168152602001908152602001600020600084815260200190815260200160002054905080600660008773ffffffffffffffffffffffffffffffffffffffff1673ffffffffffffffffffffffffffffffffffffffff168152602001908152602001600020600084815260200190815260200160002081905550816007600083815260200190815260200160002081905550505b6007600084815260200190815260200160002060009055600660008573ffffffffffffffffffffffffffffffffffffffff1673ffffffffffffffffffffffffffffffffffffffff16815260200190815260200160002060008381526020019081526020016000206000905550505050565b6000600160088054905061207591906133b0565b90506000600960008481526020019081526020016000205490506000600883815481106120cb577f4e487b7100000000000000000000000000000000000000000000000000000000600052603260045260246000fd5b906000526020600020015490508060088381548110612113577f4e487b7100000000000000000000000000000000000000000000000000000000600052603260045260246000fd5b906000526020600020018190555081600960008381526020019081526020016000208190555060096000858152602001908152602001600020600090556008805480612188577f4e487b7100000000000000000000000000000000000000000000000000000000600052603160045260246000fd5b6001900381819060005260206000200160009055905550505050565b60006121af83610996565b905081600660008573ffffffffffffffffffffffffffffffffffffffff1673ffffffffffffffffffffffffffffffffffffffff168152602001908152602001600020600083815260200190815260200160002081905550806007600084815260200190815260200160002081905550505050565b82805461222f9061349a565b90600052602060002090601f0160209004810192826122515760008555612298565b82601f1061226a57805160ff1916838001178555612298565b82800160010185558215612298579182015b8281111561229757825182559160200191906001019061227c565b5b5090506122a591906122a9565b5090565b5b808211156122c25760008160009055506001016122aa565b5090565b60006122d96122d484613286565b613255565b9050828152602081018484840111156122f157600080fd5b6122fc848285613458565b509392505050565b6000612317612312846132b6565b613255565b90508281526020810184848401111561232f57600080fd5b61233a848285613458565b509392505050565b60008135905061235181613613565b92915050565b6000813590506123668161362a565b92915050565b60008135905061237b81613641565b92915050565b60008151905061239081613641565b92915050565b600082601f8301126123a757600080fd5b81356123b78482602086016122c6565b91505092915050565b600082601f8301126123d157600080fd5b81356123e1848260208601612304565b91505092915050565b6000813590506123f981613658565b92915050565b60006020828403121561241157600080fd5b600061241f84828501612342565b91505092915050565b6000806040838503121561243b57600080fd5b600061244985828601612342565b925050602061245a85828601612342565b9150509250929050565b60008060006060848603121561247957600080fd5b600061248786828701612342565b935050602061249886828701612342565b92505060406124a9868287016123ea565b9150509250925092565b600080600080608085870312156124c957600080fd5b60006124d787828801612342565b94505060206124e887828801612342565b93505060406124f9878288016123ea565b925050606085013567ffffffffffffffff81111561251657600080fd5b61252287828801612396565b91505092959194509250565b6000806040838503121561254157600080fd5b600061254f85828601612342565b925050602061256085828601612357565b9150509250929050565b6000806040838503121561257d57600080fd5b600061258b85828601612342565b925050602061259c858286016123ea565b9150509250929050565b6000602082840312156125b857600080fd5b60006125c68482850161236c565b91505092915050565b6000602082840312156125e157600080fd5b60006125ef84828501612381565b91505092915050565b60006020828403121561260a57600080fd5b600082013567ffffffffffffffff81111561262457600080fd5b612630848285016123c0565b91505092915050565b60006020828403121561264b57600080fd5b6000612659848285016123ea565b91505092915050565b61266b816133e4565b82525050565b61267a816133f6565b82525050565b600061268b826132e6565b61269581856132fc565b93506126a5818560208601613467565b6126ae81613602565b840191505092915050565b60006126c4826132f1565b6126ce818561330d565b93506126de818560208601613467565b6126e781613602565b840191505092915050565b60006126fd826132f1565b612707818561331e565b9350612717818560208601613467565b80840191505092915050565b6000612730602b8361330d565b91507f455243373231456e756d657261626c653a206f776e657220696e646578206f7560008301527f74206f6620626f756e64730000000000000000000000000000000000000000006020830152604082019050919050565b600061279660328361330d565b91507f4552433732313a207472616e7366657220746f206e6f6e20455243373231526560008301527f63656976657220696d706c656d656e74657200000000000000000000000000006020830152604082019050919050565b60006127fc601c8361330d565b91507f4552433732313a20746f6b656e20616c7265616479206d696e746564000000006000830152602082019050919050565b600061283c60248361330d565b91507f4552433732313a207472616e7366657220746f20746865207a65726f2061646460008301527f72657373000000000000000000000000000000000000000000000000000000006020830152604082019050919050565b60006128a260198361330d565b91507f4552433732313a20617070726f766520746f2063616c6c6572000000000000006000830152602082019050919050565b60006128e2602c8361330d565b91507f4552433732313a206f70657261746f7220717565727920666f72206e6f6e657860008301527f697374656e7420746f6b656e00000000000000000000000000000000000000006020830152604082019050919050565b600061294860388361330d565b91507f4552433732313a20617070726f76652063616c6c6572206973206e6f74206f7760008301527f6e6572206e6f7220617070726f76656420666f7220616c6c00000000000000006020830152604082019050919050565b60006129ae602a8361330d565b91507f4552433732313a2062616c616e636520717565727920666f7220746865207a6560008301527f726f2061646472657373000000000000000000000000000000000000000000006020830152604082019050919050565b6000612a1460298361330d565b91507f4552433732313a206f776e657220717565727920666f72206e6f6e657869737460008301527f656e7420746f6b656e00000000000000000000000000000000000000000000006020830152604082019050919050565b6000612a7a602e8361330d565b91507f45524337323155524953746f726167653a2055524920736574206f66206e6f6e60008301527f6578697374656e7420746f6b656e0000000000000000000000000000000000006020830152604082019050919050565b6000612ae060208361330d565b91507f4552433732313a206d696e7420746f20746865207a65726f20616464726573736000830152602082019050919050565b6000612b2060318361330d565b91507f45524337323155524953746f726167653a2055524920717565727920666f722060008301527f6e6f6e6578697374656e7420746f6b656e0000000000000000000000000000006020830152604082019050919050565b6000612b86602c8361330d565b91507f4552433732313a20617070726f76656420717565727920666f72206e6f6e657860008301527f697374656e7420746f6b656e00000000000000000000000000000000000000006020830152604082019050919050565b6000612bec60168361330d565b91507f45746865722076616c7565206e6f7420656e6f756768000000000000000000006000830152602082019050919050565b6000612c2c60298361330d565b91507f4552433732313a207472616e73666572206f6620746f6b656e2074686174206960008301527f73206e6f74206f776e00000000000000000000000000000000000000000000006020830152604082019050919050565b6000612c92602f8361330d565b91507f4552433732314d657461646174613a2055524920717565727920666f72206e6f60008301527f6e6578697374656e7420746f6b656e00000000000000000000000000000000006020830152604082019050919050565b6000612cf860248361330d565b91507f616464726573732068617320616c7265616479206d696e74656420616e20617260008301527f74697374000000000000000000000000000000000000000000000000000000006020830152604082019050919050565b6000612d5e60218361330d565b91507f4552433732313a20617070726f76616c20746f2063757272656e74206f776e6560008301527f72000000000000000000000000000000000000000000000000000000000000006020830152604082019050919050565b6000612dc460318361330d565b91507f4552433732313a207472616e736665722063616c6c6572206973206e6f74206f60008301527f776e6572206e6f7220617070726f7665640000000000000000000000000000006020830152604082019050919050565b6000612e2a602c8361330d565b91507f455243373231456e756d657261626c653a20676c6f62616c20696e646578206f60008301527f7574206f6620626f756e647300000000000000000000000000000000000000006020830152604082019050919050565b6000612e9060198361330d565b91507f4d61782061727469737420737570706c792072656163686564000000000000006000830152602082019050919050565b612ecc8161344e565b82525050565b6000612ede82856126f2565b9150612eea82846126f2565b91508190509392505050565b6000602082019050612f0b6000830184612662565b92915050565b6000608082019050612f266000830187612662565b612f336020830186612662565b612f406040830185612ec3565b8181036060830152612f528184612680565b905095945050505050565b6000602082019050612f726000830184612671565b92915050565b60006020820190508181036000830152612f9281846126b9565b905092915050565b60006020820190508181036000830152612fb381612723565b9050919050565b60006020820190508181036000830152612fd381612789565b9050919050565b60006020820190508181036000830152612ff3816127ef565b9050919050565b600060208201905081810360008301526130138161282f565b9050919050565b6000602082019050818103600083015261303381612895565b9050919050565b60006020820190508181036000830152613053816128d5565b9050919050565b600060208201905081810360008301526130738161293b565b9050919050565b60006020820190508181036000830152613093816129a1565b9050919050565b600060208201905081810360008301526130b381612a07565b9050919050565b600060208201905081810360008301526130d381612a6d565b9050919050565b600060208201905081810360008301526130f381612ad3565b9050919050565b6000602082019050818103600083015261311381612b13565b9050919050565b6000602082019050818103600083015261313381612b79565b9050919050565b6000602082019050818103600083015261315381612bdf565b9050919050565b6000602082019050818103600083015261317381612c1f565b9050919050565b6000602082019050818103600083015261319381612c85565b9050919050565b600060208201905081810360008301526131b381612ceb565b9050919050565b600060208201905081810360008301526131d381612d51565b9050919050565b600060208201905081810360008301526131f381612db7565b9050919050565b6000602082019050818103600083015261321381612e1d565b9050919050565b6000602082019050818103600083015261323381612e83565b9050919050565b600060208201905061324f6000830184612ec3565b92915050565b6000604051905081810181811067ffffffffffffffff8211171561327c5761327b6135d3565b5b8060405250919050565b600067ffffffffffffffff8211156132a1576132a06135d3565b5b601f19601f8301169050602081019050919050565b600067ffffffffffffffff8211156132d1576132d06135d3565b5b601f19601f8301169050602081019050919050565b600081519050919050565b600081519050919050565b600082825260208201905092915050565b600082825260208201905092915050565b600081905092915050565b60006133348261344e565b915061333f8361344e565b9250827fffffffffffffffffffffffffffffffffffffffffffffffffffffffffffffffff0382111561337457613373613546565b5b828201905092915050565b600061338a8261344e565b91506133958361344e565b9250826133a5576133a4613575565b5b828204905092915050565b60006133bb8261344e565b91506133c68361344e565b9250828210156133d9576133d8613546565b5b828203905092915050565b60006133ef8261342e565b9050919050565b60008115159050919050565b60007fffffffff0000000000000000000000000000000000000000000000000000000082169050919050565b600073ffffffffffffffffffffffffffffffffffffffff82169050919050565b6000819050919050565b82818337600083830152505050565b60005b8381101561348557808201518184015260208101905061346a565b83811115613494576000848401525b50505050565b600060028204905060018216806134b257607f821691505b602082108114156134c6576134c56135a4565b5b50919050565b60006134d78261344e565b91507fffffffffffffffffffffffffffffffffffffffffffffffffffffffffffffffff82141561350a57613509613546565b5b600182019050919050565b60006135208261344e565b915061352b8361344e565b92508261353b5761353a613575565b5b828206905092915050565b7f4e487b7100000000000000000000000000000000000000000000000000000000600052601160045260246000fd5b7f4e487b7100000000000000000000000000000000000000000000000000000000600052601260045260246000fd5b7f4e487b7100000000000000000000000000000000000000000000000000000000600052602260045260246000fd5b7f4e487b7100000000000000000000000000000000000000000000000000000000600052604160045260246000fd5b6000601f19601f8301169050919050565b61361c816133e4565b811461362757600080fd5b50565b613633816133f6565b811461363e57600080fd5b50565b61364a81613402565b811461365557600080fd5b50565b6136618161344e565b811461366c57600080fd5b5056fea2646970667358221220698fa990cb717e3ec2c94d9d238cad80691da2cbb73ebe7ea5335dc095da230364736f6c63430008000033",
  "linkReferences": {},
  "deployedLinkReferences": {}
}