{
  "_format": "hh-sol-artifact-1",
  "contractName": "USMBandToken",
  "sourceName": "contracts/USMBandToken.sol",
  "abi": [
    {
      "inputs": [
        {
          "internalType": "string",
          "name": "name",
          "type": "string"
        },
        {
          "internalType": "string",
          "name": "symbol",
          "type": "string"
        },
        {
          "internalType": "address",
          "name": "_artist",
          "type": "address"
        }
      ],
      "stateMutability": "nonpayable",
      "type": "constructor"
    },
    {
      "anonymous": false,
      "inputs": [
        {
          "indexed": true,
          "internalType": "address",
          "name": "owner",
          "type": "address"
        },
        {
          "indexed": true,
          "internalType": "address",
          "name": "approved",
          "type": "address"
        },
        {
          "indexed": true,
          "internalType": "uint256",
          "name": "tokenId",
          "type": "uint256"
        }
      ],
      "name": "Approval",
      "type": "event"
    },
    {
      "anonymous": false,
      "inputs": [
        {
          "indexed": true,
          "internalType": "address",
          "name": "owner",
          "type": "address"
        },
        {
          "indexed": true,
          "internalType": "address",
          "name": "operator",
          "type": "address"
        },
        {
          "indexed": false,
          "internalType": "bool",
          "name": "approved",
          "type": "bool"
        }
      ],
      "name": "ApprovalForAll",
      "type": "event"
    },
    {
      "anonymous": false,
      "inputs": [
        {
          "indexed": true,
          "internalType": "address",
          "name": "from",
          "type": "address"
        },
        {
          "indexed": true,
          "internalType": "address",
          "name": "to",
          "type": "address"
        },
        {
          "indexed": true,
          "internalType": "uint256",
          "name": "tokenId",
          "type": "uint256"
        }
      ],
      "name": "Transfer",
      "type": "event"
    },
    {
      "anonymous": false,
      "inputs": [
        {
          "indexed": false,
          "internalType": "uint256",
          "name": "id",
          "type": "uint256"
        },
        {
          "indexed": false,
          "internalType": "uint256",
          "name": "artistId",
          "type": "uint256"
        },
        {
          "indexed": false,
          "internalType": "address",
          "name": "owner",
          "type": "address"
        }
      ],
      "name": "bandCreate",
      "type": "event"
    },
    {
      "anonymous": false,
      "inputs": [
        {
          "indexed": false,
          "internalType": "uint256",
          "name": "id",
          "type": "uint256"
        },
        {
          "indexed": false,
          "internalType": "uint256",
          "name": "artistId",
          "type": "uint256"
        },
        {
          "indexed": false,
          "internalType": "address",
          "name": "owner",
          "type": "address"
        }
      ],
      "name": "bandJoined",
      "type": "event"
    },
    {
      "inputs": [
        {
          "internalType": "address",
          "name": "to",
          "type": "address"
        },
        {
          "internalType": "uint256",
          "name": "tokenId",
          "type": "uint256"
        }
      ],
      "name": "approve",
      "outputs": [],
      "stateMutability": "nonpayable",
      "type": "function"
    },
    {
      "inputs": [
        {
          "internalType": "address",
          "name": "owner",
          "type": "address"
        }
      ],
      "name": "balanceOf",
      "outputs": [
        {
          "internalType": "uint256",
          "name": "",
          "type": "uint256"
        }
      ],
      "stateMutability": "view",
      "type": "function"
    },
    {
      "inputs": [
        {
          "internalType": "uint256",
          "name": "",
          "type": "uint256"
        }
      ],
      "name": "bandAttestations",
      "outputs": [
        {
          "internalType": "uint256",
          "name": "",
          "type": "uint256"
        }
      ],
      "stateMutability": "view",
      "type": "function"
    },
    {
      "inputs": [
        {
          "internalType": "uint256",
          "name": "",
          "type": "uint256"
        },
        {
          "internalType": "uint256",
          "name": "",
          "type": "uint256"
        }
      ],
      "name": "bandMembers",
      "outputs": [
        {
          "internalType": "bool",
          "name": "",
          "type": "bool"
        }
      ],
      "stateMutability": "view",
      "type": "function"
    },
    {
      "inputs": [
        {
          "internalType": "uint256",
          "name": "tokenId",
          "type": "uint256"
        }
      ],
      "name": "getApproved",
      "outputs": [
        {
          "internalType": "address",
          "name": "",
          "type": "address"
        }
      ],
      "stateMutability": "view",
      "type": "function"
    },
    {
      "inputs": [
        {
          "internalType": "address",
          "name": "owner",
          "type": "address"
        },
        {
          "internalType": "address",
          "name": "operator",
          "type": "address"
        }
      ],
      "name": "isApprovedForAll",
      "outputs": [
        {
          "internalType": "bool",
          "name": "",
          "type": "bool"
        }
      ],
      "stateMutability": "view",
      "type": "function"
    },
    {
      "inputs": [
        {
          "internalType": "uint256",
          "name": "bandId",
          "type": "uint256"
        }
      ],
      "name": "isBandActive",
      "outputs": [
        {
          "internalType": "bool",
          "name": "",
          "type": "bool"
        }
      ],
      "stateMutability": "view",
      "type": "function"
    },
    {
      "inputs": [
        {
          "internalType": "uint256",
          "name": "bandId",
          "type": "uint256"
        },
        {
          "internalType": "uint256",
          "name": "member",
          "type": "uint256"
        }
      ],
      "name": "isBandMember",
      "outputs": [
        {
          "internalType": "bool",
          "name": "",
          "type": "bool"
        }
      ],
      "stateMutability": "view",
      "type": "function"
    },
    {
      "inputs": [
        {
          "internalType": "uint256",
          "name": "artistId",
          "type": "uint256"
        },
        {
          "internalType": "uint256",
          "name": "bandId",
          "type": "uint256"
        }
      ],
      "name": "joinBand",
      "outputs": [
        {
          "internalType": "uint256",
          "name": "",
          "type": "uint256"
        }
      ],
      "stateMutability": "nonpayable",
      "type": "function"
    },
    {
      "inputs": [],
      "name": "name",
      "outputs": [
        {
          "internalType": "string",
          "name": "",
          "type": "string"
        }
      ],
      "stateMutability": "view",
      "type": "function"
    },
    {
      "inputs": [
        {
          "internalType": "uint256",
          "name": "tokenId",
          "type": "uint256"
        }
      ],
      "name": "ownerOf",
      "outputs": [
        {
          "internalType": "address",
          "name": "",
          "type": "address"
        }
      ],
      "stateMutability": "view",
      "type": "function"
    },
    {
      "inputs": [
        {
          "internalType": "address",
          "name": "from",
          "type": "address"
        },
        {
          "internalType": "address",
          "name": "to",
          "type": "address"
        },
        {
          "internalType": "uint256",
          "name": "tokenId",
          "type": "uint256"
        }
      ],
      "name": "safeTransferFrom",
      "outputs": [],
      "stateMutability": "nonpayable",
      "type": "function"
    },
    {
      "inputs": [
        {
          "internalType": "address",
          "name": "from",
          "type": "address"
        },
        {
          "internalType": "address",
          "name": "to",
          "type": "address"
        },
        {
          "internalType": "uint256",
          "name": "tokenId",
          "type": "uint256"
        },
        {
          "internalType": "bytes",
          "name": "_data",
          "type": "bytes"
        }
      ],
      "name": "safeTransferFrom",
      "outputs": [],
      "stateMutability": "nonpayable",
      "type": "function"
    },
    {
      "inputs": [
        {
          "internalType": "address",
          "name": "operator",
          "type": "address"
        },
        {
          "internalType": "bool",
          "name": "approved",
          "type": "bool"
        }
      ],
      "name": "setApprovalForAll",
      "outputs": [],
      "stateMutability": "nonpayable",
      "type": "function"
    },
    {
      "inputs": [
        {
          "internalType": "uint256",
          "name": "artistId",
          "type": "uint256"
        },
        {
          "internalType": "string",
          "name": "_uri",
          "type": "string"
        }
      ],
      "name": "startBand",
      "outputs": [
        {
          "internalType": "uint256",
          "name": "",
          "type": "uint256"
        }
      ],
      "stateMutability": "nonpayable",
      "type": "function"
    },
    {
      "inputs": [
        {
          "internalType": "bytes4",
          "name": "interfaceId",
          "type": "bytes4"
        }
      ],
      "name": "supportsInterface",
      "outputs": [
        {
          "internalType": "bool",
          "name": "",
          "type": "bool"
        }
      ],
      "stateMutability": "view",
      "type": "function"
    },
    {
      "inputs": [],
      "name": "symbol",
      "outputs": [
        {
          "internalType": "string",
          "name": "",
          "type": "string"
        }
      ],
      "stateMutability": "view",
      "type": "function"
    },
    {
      "inputs": [
        {
          "internalType": "uint256",
          "name": "index",
          "type": "uint256"
        }
      ],
      "name": "tokenByIndex",
      "outputs": [
        {
          "internalType": "uint256",
          "name": "",
          "type": "uint256"
        }
      ],
      "stateMutability": "view",
      "type": "function"
    },
    {
      "inputs": [
        {
          "internalType": "address",
          "name": "owner",
          "type": "address"
        },
        {
          "internalType": "uint256",
          "name": "index",
          "type": "uint256"
        }
      ],
      "name": "tokenOfOwnerByIndex",
      "outputs": [
        {
          "internalType": "uint256",
          "name": "",
          "type": "uint256"
        }
      ],
      "stateMutability": "view",
      "type": "function"
    },
    {
      "inputs": [
        {
          "internalType": "uint256",
          "name": "tokenId",
          "type": "uint256"
        }
      ],
      "name": "tokenURI",
      "outputs": [
        {
          "internalType": "string",
          "name": "",
          "type": "string"
        }
      ],
      "stateMutability": "view",
      "type": "function"
    },
    {
      "inputs": [],
      "name": "totalSupply",
      "outputs": [
        {
          "internalType": "uint256",
          "name": "",
          "type": "uint256"
        }
      ],
      "stateMutability": "view",
      "type": "function"
    },
    {
      "inputs": [
        {
          "internalType": "address",
          "name": "from",
          "type": "address"
        },
        {
          "internalType": "address",
          "name": "to",
          "type": "address"
        },
        {
          "internalType": "uint256",
          "name": "tokenId",
          "type": "uint256"
        }
      ],
      "name": "transferFrom",
      "outputs": [],
      "stateMutability": "nonpayable",
      "type": "function"
    }
  ],
  "bytecode": "0x60806040523480156200001157600080fd5b5060405162003e4838038062003e488339818101604052810190620000379190620001f0565b8282816000908051906020019062000051929190620000b7565b5080600190805190602001906200006a929190620000b7565b50505080600c60006101000a81548173ffffffffffffffffffffffffffffffffffffffff021916908373ffffffffffffffffffffffffffffffffffffffff160217905550505050620003f7565b828054620000c59062000349565b90600052602060002090601f016020900481019282620000e9576000855562000135565b82601f106200010457805160ff191683800117855562000135565b8280016001018555821562000135579182015b828111156200013457825182559160200191906001019062000117565b5b50905062000144919062000148565b5090565b5b808211156200016357600081600090555060010162000149565b5090565b60006200017e6200017884620002ac565b62000278565b9050828152602081018484840111156200019757600080fd5b620001a484828562000313565b509392505050565b600081519050620001bd81620003dd565b92915050565b600082601f830112620001d557600080fd5b8151620001e784826020860162000167565b91505092915050565b6000806000606084860312156200020657600080fd5b600084015167ffffffffffffffff8111156200022157600080fd5b6200022f86828701620001c3565b935050602084015167ffffffffffffffff8111156200024d57600080fd5b6200025b86828701620001c3565b92505060406200026e86828701620001ac565b9150509250925092565b6000604051905081810181811067ffffffffffffffff82111715620002a257620002a1620003ae565b5b8060405250919050565b600067ffffffffffffffff821115620002ca57620002c9620003ae565b5b601f19601f8301169050602081019050919050565b6000620002ec82620002f3565b9050919050565b600073ffffffffffffffffffffffffffffffffffffffff82169050919050565b60005b838110156200033357808201518184015260208101905062000316565b8381111562000343576000848401525b50505050565b600060028204905060018216806200036257607f821691505b602082108114156200037957620003786200037f565b5b50919050565b7f4e487b7100000000000000000000000000000000000000000000000000000000600052602260045260246000fd5b7f4e487b7100000000000000000000000000000000000000000000000000000000600052604160045260246000fd5b620003e881620002df565b8114620003f457600080fd5b50565b613a4180620004076000396000f3fe608060405234801561001057600080fd5b50600436106101425760003560e01c80636352211e116100b857806395d89b411161007c57806395d89b41146103e7578063a22cb46514610405578063b88d4fde14610421578063c87b56dd1461043d578063e06813e51461046d578063e985e9c51461049d57610142565b80636352211e146102f757806370a082311461032757806378b7efc314610357578063893c329d146103875780638fdd453f146103b757610142565b806323b872dd1161010a57806323b872dd146101ff5780632f745c591461021b578063365d1d511461024b57806336b094d71461027b57806342842e0e146102ab5780634f6ccce7146102c757610142565b806301ffc9a71461014757806306fdde0314610177578063081812fc14610195578063095ea7b3146101c557806318160ddd146101e1575b600080fd5b610161600480360381019061015c91906128bc565b6104cd565b60405161016e91906132c2565b60405180910390f35b61017f6104df565b60405161018c91906132dd565b60405180910390f35b6101af60048036038101906101aa919061290e565b610571565b6040516101bc919061325b565b60405180910390f35b6101df60048036038101906101da9190612880565b6105f6565b005b6101e961070e565b6040516101f6919061359f565b60405180910390f35b6102196004803603810190610214919061277a565b61071b565b005b61023560048036038101906102309190612880565b61077b565b604051610242919061359f565b60405180910390f35b61026560048036038101906102609190612937565b610820565b604051610272919061359f565b60405180910390f35b6102956004803603810190610290919061298b565b610983565b6040516102a2919061359f565b60405180910390f35b6102c560048036038101906102c0919061277a565b610b22565b005b6102e160048036038101906102dc919061290e565b610b42565b6040516102ee919061359f565b60405180910390f35b610311600480360381019061030c919061290e565b610bd9565b60405161031e919061325b565b60405180910390f35b610341600480360381019061033c91906126ec565b610c8b565b60405161034e919061359f565b60405180910390f35b610371600480360381019061036c919061298b565b610d43565b60405161037e91906132c2565b60405180910390f35b6103a1600480360381019061039c919061290e565b610d72565b6040516103ae91906132c2565b60405180910390f35b6103d160048036038101906103cc919061298b565b610d93565b6040516103de91906132c2565b60405180910390f35b6103ef610dcf565b6040516103fc91906132dd565b60405180910390f35b61041f600480360381019061041a9190612844565b610e61565b005b61043b600480360381019061043691906127c9565b610fe2565b005b6104576004803603810190610452919061290e565b611044565b60405161046491906132dd565b60405180910390f35b6104876004803603810190610482919061290e565b611056565b604051610494919061359f565b60405180910390f35b6104b760048036038101906104b2919061273e565b61106e565b6040516104c491906132c2565b60405180910390f35b60006104d882611102565b9050919050565b6060600080546104ee90613836565b80601f016020809104026020016040519081016040528092919081815260200182805461051a90613836565b80156105675780601f1061053c57610100808354040283529160200191610567565b820191906000526020600020905b81548152906001019060200180831161054a57829003601f168201915b5050505050905090565b600061057c8261117c565b6105bb576040517f08c379a00000000000000000000000000000000000000000000000000000000081526004016105b29061349f565b60405180910390fd5b6004600083815260200190815260200160002060009054906101000a900473ffffffffffffffffffffffffffffffffffffffff169050919050565b600061060182610bd9565b90508073ffffffffffffffffffffffffffffffffffffffff168373ffffffffffffffffffffffffffffffffffffffff161415610672576040517f08c379a0000000000000000000000000000000000000000000000000000000008152600401610669906134ff565b60405180910390fd5b8073ffffffffffffffffffffffffffffffffffffffff166106916111e8565b73ffffffffffffffffffffffffffffffffffffffff1614806106c057506106bf816106ba6111e8565b61106e565b5b6106ff576040517f08c379a00000000000000000000000000000000000000000000000000000000081526004016106f6906133bf565b60405180910390fd5b61070983836111f0565b505050565b6000600880549050905090565b61072c6107266111e8565b826112a9565b61076b576040517f08c379a00000000000000000000000000000000000000000000000000000000081526004016107629061353f565b60405180910390fd5b610776838383611387565b505050565b600061078683610c8b565b82106107c7576040517f08c379a00000000000000000000000000000000000000000000000000000000081526004016107be906132ff565b60405180910390fd5b600660008473ffffffffffffffffffffffffffffffffffffffff1673ffffffffffffffffffffffffffffffffffffffff168152602001908152602001600020600083815260200190815260200160002054905092915050565b600061082b836115e3565b61086a576040517f08c379a00000000000000000000000000000000000000000000000000000000081526004016108619061345f565b60405180910390fd5b610874600b6116c5565b6000610880600b6116db565b905033600f600083815260200190815260200160002060006101000a81548173ffffffffffffffffffffffffffffffffffffffff021916908373ffffffffffffffffffffffffffffffffffffffff1602179055506001600d6000838152602001908152602001600020819055506001600e6000838152602001908152602001600020600086815260200190815260200160002060006101000a81548160ff02191690831515021790555061093433826116e9565b61093e81846118b7565b7f05a93dd0fe50f6886f4e2b30e97c1ab2a46e6e60c7a270bd3b9cf26a7547a52f818533604051610971939291906135ba565b60405180910390a18091505092915050565b600061098e836115e3565b6109cd576040517f08c379a00000000000000000000000000000000000000000000000000000000081526004016109c49061345f565b60405180910390fd5b6109d68261192b565b610a15576040517f08c379a0000000000000000000000000000000000000000000000000000000008152600401610a0c9061351f565b60405180910390fd5b610a1e8261117c565b610a5d576040517f08c379a0000000000000000000000000000000000000000000000000000000008152600401610a549061357f565b60405180910390fd5b6000600d60008481526020019081526020016000205490506001600d60008581526020019081526020016000206000828254610a9991906136c5565b925050819055506001600e6000858152602001908152602001600020600086815260200190815260200160002060006101000a81548160ff0219169083151502179055507f10179efa2da6f0143251797a50b1cbcf49e6b3d46bd488648d9da83b715387aa838533604051610b10939291906135ba565b60405180910390a18291505092915050565b610b3d83838360405180602001604052806000815250610fe2565b505050565b6000610b4c61070e565b8210610b8d576040517f08c379a0000000000000000000000000000000000000000000000000000000008152600401610b849061355f565b60405180910390fd5b60088281548110610bc7577f4e487b7100000000000000000000000000000000000000000000000000000000600052603260045260246000fd5b90600052602060002001549050919050565b6000806002600084815260200190815260200160002060009054906101000a900473ffffffffffffffffffffffffffffffffffffffff169050600073ffffffffffffffffffffffffffffffffffffffff168173ffffffffffffffffffffffffffffffffffffffff161415610c82576040517f08c379a0000000000000000000000000000000000000000000000000000000008152600401610c79906133ff565b60405180910390fd5b80915050919050565b60008073ffffffffffffffffffffffffffffffffffffffff168273ffffffffffffffffffffffffffffffffffffffff161415610cfc576040517f08c379a0000000000000000000000000000000000000000000000000000000008152600401610cf3906133df565b60405180910390fd5b600360008373ffffffffffffffffffffffffffffffffffffffff1673ffffffffffffffffffffffffffffffffffffffff168152602001908152602001600020549050919050565b600e6020528160005260406000206020528060005260406000206000915091509054906101000a900460ff1681565b60006002600d60008481526020019081526020016000205410159050919050565b6000600e6000848152602001908152602001600020600083815260200190815260200160002060009054906101000a900460ff16905092915050565b606060018054610dde90613836565b80601f0160208091040260200160405190810160405280929190818152602001828054610e0a90613836565b8015610e575780601f10610e2c57610100808354040283529160200191610e57565b820191906000526020600020905b815481529060010190602001808311610e3a57829003601f168201915b5050505050905090565b610e696111e8565b73ffffffffffffffffffffffffffffffffffffffff168273ffffffffffffffffffffffffffffffffffffffff161415610ed7576040517f08c379a0000000000000000000000000000000000000000000000000000000008152600401610ece9061337f565b60405180910390fd5b8060056000610ee46111e8565b73ffffffffffffffffffffffffffffffffffffffff1673ffffffffffffffffffffffffffffffffffffffff16815260200190815260200160002060008473ffffffffffffffffffffffffffffffffffffffff1673ffffffffffffffffffffffffffffffffffffffff16815260200190815260200160002060006101000a81548160ff0219169083151502179055508173ffffffffffffffffffffffffffffffffffffffff16610f916111e8565b73ffffffffffffffffffffffffffffffffffffffff167f17307eab39ab6107e8899845ad3d59bd9653f200f220920489ca2b5937696c3183604051610fd691906132c2565b60405180910390a35050565b610ff3610fed6111e8565b836112a9565b611032576040517f08c379a00000000000000000000000000000000000000000000000000000000081526004016110299061353f565b60405180910390fd5b61103e8484848461194b565b50505050565b606061104f826119a7565b9050919050565b600d6020528060005260406000206000915090505481565b6000600560008473ffffffffffffffffffffffffffffffffffffffff1673ffffffffffffffffffffffffffffffffffffffff16815260200190815260200160002060008373ffffffffffffffffffffffffffffffffffffffff1673ffffffffffffffffffffffffffffffffffffffff16815260200190815260200160002060009054906101000a900460ff16905092915050565b60007f780e9d63000000000000000000000000000000000000000000000000000000007bffffffffffffffffffffffffffffffffffffffffffffffffffffffff1916827bffffffffffffffffffffffffffffffffffffffffffffffffffffffff19161480611175575061117482611af9565b5b9050919050565b60008073ffffffffffffffffffffffffffffffffffffffff166002600084815260200190815260200160002060009054906101000a900473ffffffffffffffffffffffffffffffffffffffff1673ffffffffffffffffffffffffffffffffffffffff1614159050919050565b600033905090565b816004600083815260200190815260200160002060006101000a81548173ffffffffffffffffffffffffffffffffffffffff021916908373ffffffffffffffffffffffffffffffffffffffff160217905550808273ffffffffffffffffffffffffffffffffffffffff1661126383610bd9565b73ffffffffffffffffffffffffffffffffffffffff167f8c5be1e5ebec7d5bd14f71427d1e84f3dd0314c0f7b2291e5b200ac8c7c3b92560405160405180910390a45050565b60006112b48261117c565b6112f3576040517f08c379a00000000000000000000000000000000000000000000000000000000081526004016112ea9061339f565b60405180910390fd5b60006112fe83610bd9565b90508073ffffffffffffffffffffffffffffffffffffffff168473ffffffffffffffffffffffffffffffffffffffff16148061136d57508373ffffffffffffffffffffffffffffffffffffffff1661135584610571565b73ffffffffffffffffffffffffffffffffffffffff16145b8061137e575061137d818561106e565b5b91505092915050565b8273ffffffffffffffffffffffffffffffffffffffff166113a782610bd9565b73ffffffffffffffffffffffffffffffffffffffff16146113fd576040517f08c379a00000000000000000000000000000000000000000000000000000000081526004016113f4906134bf565b60405180910390fd5b600073ffffffffffffffffffffffffffffffffffffffff168273ffffffffffffffffffffffffffffffffffffffff16141561146d576040517f08c379a00000000000000000000000000000000000000000000000000000000081526004016114649061335f565b60405180910390fd5b611478838383611bdb565b6114836000826111f0565b6001600360008573ffffffffffffffffffffffffffffffffffffffff1673ffffffffffffffffffffffffffffffffffffffff16815260200190815260200160002060008282546114d3919061374c565b925050819055506001600360008473ffffffffffffffffffffffffffffffffffffffff1673ffffffffffffffffffffffffffffffffffffffff168152602001908152602001600020600082825461152a91906136c5565b92505081905550816002600083815260200190815260200160002060006101000a81548173ffffffffffffffffffffffffffffffffffffffff021916908373ffffffffffffffffffffffffffffffffffffffff160217905550808273ffffffffffffffffffffffffffffffffffffffff168473ffffffffffffffffffffffffffffffffffffffff167fddf252ad1be2c89b69c2b068fc378daa952ba7f163c4a11628f55a4df523b3ef60405160405180910390a4505050565b60003373ffffffffffffffffffffffffffffffffffffffff16600c60009054906101000a900473ffffffffffffffffffffffffffffffffffffffff1673ffffffffffffffffffffffffffffffffffffffff16636352211e846040518263ffffffff1660e01b8152600401611657919061359f565b60206040518083038186803b15801561166f57600080fd5b505afa158015611683573d6000803e3d6000fd5b505050506040513d601f19601f820116820180604052508101906116a79190612715565b73ffffffffffffffffffffffffffffffffffffffff16149050919050565b6001816000016000828254019250508190555050565b600081600001549050919050565b600073ffffffffffffffffffffffffffffffffffffffff168273ffffffffffffffffffffffffffffffffffffffff161415611759576040517f08c379a00000000000000000000000000000000000000000000000000000000081526004016117509061343f565b60405180910390fd5b6117628161117c565b156117a2576040517f08c379a00000000000000000000000000000000000000000000000000000000081526004016117999061333f565b60405180910390fd5b6117ae60008383611bdb565b6001600360008473ffffffffffffffffffffffffffffffffffffffff1673ffffffffffffffffffffffffffffffffffffffff16815260200190815260200160002060008282546117fe91906136c5565b92505081905550816002600083815260200190815260200160002060006101000a81548173ffffffffffffffffffffffffffffffffffffffff021916908373ffffffffffffffffffffffffffffffffffffffff160217905550808273ffffffffffffffffffffffffffffffffffffffff16600073ffffffffffffffffffffffffffffffffffffffff167fddf252ad1be2c89b69c2b068fc378daa952ba7f163c4a11628f55a4df523b3ef60405160405180910390a45050565b6118c08261117c565b6118ff576040517f08c379a00000000000000000000000000000000000000000000000000000000081526004016118f69061341f565b60405180910390fd5b80600a600084815260200190815260200160002090805190602001906119269291906124fb565b505050565b60006006600d600084815260200190815260200160002054109050919050565b611956848484611387565b61196284848484611beb565b6119a1576040517f08c379a00000000000000000000000000000000000000000000000000000000081526004016119989061331f565b60405180910390fd5b50505050565b60606119b28261117c565b6119f1576040517f08c379a00000000000000000000000000000000000000000000000000000000081526004016119e89061347f565b60405180910390fd5b6000600a60008481526020019081526020016000208054611a1190613836565b80601f0160208091040260200160405190810160405280929190818152602001828054611a3d90613836565b8015611a8a5780601f10611a5f57610100808354040283529160200191611a8a565b820191906000526020600020905b815481529060010190602001808311611a6d57829003601f168201915b505050505090506000611a9b611d82565b9050600081511415611ab1578192505050611af4565b600082511115611ae6578082604051602001611ace929190613237565b60405160208183030381529060405292505050611af4565b611aef84611d99565b925050505b919050565b60007f80ac58cd000000000000000000000000000000000000000000000000000000007bffffffffffffffffffffffffffffffffffffffffffffffffffffffff1916827bffffffffffffffffffffffffffffffffffffffffffffffffffffffff19161480611bc457507f5b5e139f000000000000000000000000000000000000000000000000000000007bffffffffffffffffffffffffffffffffffffffffffffffffffffffff1916827bffffffffffffffffffffffffffffffffffffffffffffffffffffffff1916145b80611bd45750611bd382611e40565b5b9050919050565b611be6838383611eaa565b505050565b6000611c0c8473ffffffffffffffffffffffffffffffffffffffff16611fbe565b15611d75578373ffffffffffffffffffffffffffffffffffffffff1663150b7a02611c356111e8565b8786866040518563ffffffff1660e01b8152600401611c579493929190613276565b602060405180830381600087803b158015611c7157600080fd5b505af1925050508015611ca257506040513d601f19601f82011682018060405250810190611c9f91906128e5565b60015b611d25573d8060008114611cd2576040519150601f19603f3d011682016040523d82523d6000602084013e611cd7565b606091505b50600081511415611d1d576040517f08c379a0000000000000000000000000000000000000000000000000000000008152600401611d149061331f565b60405180910390fd5b805181602001fd5b63150b7a0260e01b7bffffffffffffffffffffffffffffffffffffffffffffffffffffffff1916817bffffffffffffffffffffffffffffffffffffffffffffffffffffffff191614915050611d7a565b600190505b949350505050565b606060405180602001604052806000815250905090565b6060611da48261117c565b611de3576040517f08c379a0000000000000000000000000000000000000000000000000000000008152600401611dda906134df565b60405180910390fd5b6000611ded611d82565b90506000815111611e0d5760405180602001604052806000815250611e38565b80611e1784611fd1565b604051602001611e28929190613237565b6040516020818303038152906040525b915050919050565b60007f01ffc9a7000000000000000000000000000000000000000000000000000000007bffffffffffffffffffffffffffffffffffffffffffffffffffffffff1916827bffffffffffffffffffffffffffffffffffffffffffffffffffffffff1916149050919050565b611eb583838361217e565b600073ffffffffffffffffffffffffffffffffffffffff168373ffffffffffffffffffffffffffffffffffffffff161415611ef857611ef381612183565b611f37565b8173ffffffffffffffffffffffffffffffffffffffff168373ffffffffffffffffffffffffffffffffffffffff1614611f3657611f3583826121cc565b5b5b600073ffffffffffffffffffffffffffffffffffffffff168273ffffffffffffffffffffffffffffffffffffffff161415611f7a57611f7581612339565b611fb9565b8273ffffffffffffffffffffffffffffffffffffffff168273ffffffffffffffffffffffffffffffffffffffff1614611fb857611fb7828261247c565b5b5b505050565b600080823b905060008111915050919050565b60606000821415612019576040518060400160405280600181526020017f30000000000000000000000000000000000000000000000000000000000000008152509050612179565b600082905060005b6000821461204b57808061203490613868565b915050600a82612044919061371b565b9150612021565b60008167ffffffffffffffff81111561208d577f4e487b7100000000000000000000000000000000000000000000000000000000600052604160045260246000fd5b6040519080825280601f01601f1916602001820160405280156120bf5781602001600182028036833780820191505090505b5090505b60008514612172576001826120d8919061374c565b9150600a856120e791906138b1565b60306120f391906136c5565b60f81b81838151811061212f577f4e487b7100000000000000000000000000000000000000000000000000000000600052603260045260246000fd5b60200101907effffffffffffffffffffffffffffffffffffffffffffffffffffffffffffff1916908160001a905350600a8561216b919061371b565b94506120c3565b8093505050505b919050565b505050565b6008805490506009600083815260200190815260200160002081905550600881908060018154018082558091505060019003906000526020600020016000909190919091505550565b600060016121d984610c8b565b6121e3919061374c565b90506000600760008481526020019081526020016000205490508181146122c8576000600660008673ffffffffffffffffffffffffffffffffffffffff1673ffffffffffffffffffffffffffffffffffffffff168152602001908152602001600020600084815260200190815260200160002054905080600660008773ffffffffffffffffffffffffffffffffffffffff1673ffffffffffffffffffffffffffffffffffffffff168152602001908152602001600020600084815260200190815260200160002081905550816007600083815260200190815260200160002081905550505b6007600084815260200190815260200160002060009055600660008573ffffffffffffffffffffffffffffffffffffffff1673ffffffffffffffffffffffffffffffffffffffff16815260200190815260200160002060008381526020019081526020016000206000905550505050565b6000600160088054905061234d919061374c565b90506000600960008481526020019081526020016000205490506000600883815481106123a3577f4e487b7100000000000000000000000000000000000000000000000000000000600052603260045260246000fd5b9060005260206000200154905080600883815481106123eb577f4e487b7100000000000000000000000000000000000000000000000000000000600052603260045260246000fd5b906000526020600020018190555081600960008381526020019081526020016000208190555060096000858152602001908152602001600020600090556008805480612460577f4e487b7100000000000000000000000000000000000000000000000000000000600052603160045260246000fd5b6001900381819060005260206000200160009055905550505050565b600061248783610c8b565b905081600660008573ffffffffffffffffffffffffffffffffffffffff1673ffffffffffffffffffffffffffffffffffffffff168152602001908152602001600020600083815260200190815260200160002081905550806007600084815260200190815260200160002081905550505050565b82805461250790613836565b90600052602060002090601f0160209004810192826125295760008555612570565b82601f1061254257805160ff1916838001178555612570565b82800160010185558215612570579182015b8281111561256f578251825591602001919060010190612554565b5b50905061257d9190612581565b5090565b5b8082111561259a576000816000905550600101612582565b5090565b60006125b16125ac84613622565b6135f1565b9050828152602081018484840111156125c957600080fd5b6125d48482856137f4565b509392505050565b60006125ef6125ea84613652565b6135f1565b90508281526020810184848401111561260757600080fd5b6126128482856137f4565b509392505050565b600081359050612629816139af565b92915050565b60008151905061263e816139af565b92915050565b600081359050612653816139c6565b92915050565b600081359050612668816139dd565b92915050565b60008151905061267d816139dd565b92915050565b600082601f83011261269457600080fd5b81356126a484826020860161259e565b91505092915050565b600082601f8301126126be57600080fd5b81356126ce8482602086016125dc565b91505092915050565b6000813590506126e6816139f4565b92915050565b6000602082840312156126fe57600080fd5b600061270c8482850161261a565b91505092915050565b60006020828403121561272757600080fd5b60006127358482850161262f565b91505092915050565b6000806040838503121561275157600080fd5b600061275f8582860161261a565b92505060206127708582860161261a565b9150509250929050565b60008060006060848603121561278f57600080fd5b600061279d8682870161261a565b93505060206127ae8682870161261a565b92505060406127bf868287016126d7565b9150509250925092565b600080600080608085870312156127df57600080fd5b60006127ed8782880161261a565b94505060206127fe8782880161261a565b935050604061280f878288016126d7565b925050606085013567ffffffffffffffff81111561282c57600080fd5b61283887828801612683565b91505092959194509250565b6000806040838503121561285757600080fd5b60006128658582860161261a565b925050602061287685828601612644565b9150509250929050565b6000806040838503121561289357600080fd5b60006128a18582860161261a565b92505060206128b2858286016126d7565b9150509250929050565b6000602082840312156128ce57600080fd5b60006128dc84828501612659565b91505092915050565b6000602082840312156128f757600080fd5b60006129058482850161266e565b91505092915050565b60006020828403121561292057600080fd5b600061292e848285016126d7565b91505092915050565b6000806040838503121561294a57600080fd5b6000612958858286016126d7565b925050602083013567ffffffffffffffff81111561297557600080fd5b612981858286016126ad565b9150509250929050565b6000806040838503121561299e57600080fd5b60006129ac858286016126d7565b92505060206129bd858286016126d7565b9150509250929050565b6129d081613780565b82525050565b6129df81613792565b82525050565b60006129f082613682565b6129fa8185613698565b9350612a0a818560208601613803565b612a138161399e565b840191505092915050565b6000612a298261368d565b612a3381856136a9565b9350612a43818560208601613803565b612a4c8161399e565b840191505092915050565b6000612a628261368d565b612a6c81856136ba565b9350612a7c818560208601613803565b80840191505092915050565b6000612a95602b836136a9565b91507f455243373231456e756d657261626c653a206f776e657220696e646578206f7560008301527f74206f6620626f756e64730000000000000000000000000000000000000000006020830152604082019050919050565b6000612afb6032836136a9565b91507f4552433732313a207472616e7366657220746f206e6f6e20455243373231526560008301527f63656976657220696d706c656d656e74657200000000000000000000000000006020830152604082019050919050565b6000612b61601c836136a9565b91507f4552433732313a20746f6b656e20616c7265616479206d696e746564000000006000830152602082019050919050565b6000612ba16024836136a9565b91507f4552433732313a207472616e7366657220746f20746865207a65726f2061646460008301527f72657373000000000000000000000000000000000000000000000000000000006020830152604082019050919050565b6000612c076019836136a9565b91507f4552433732313a20617070726f766520746f2063616c6c6572000000000000006000830152602082019050919050565b6000612c47602c836136a9565b91507f4552433732313a206f70657261746f7220717565727920666f72206e6f6e657860008301527f697374656e7420746f6b656e00000000000000000000000000000000000000006020830152604082019050919050565b6000612cad6038836136a9565b91507f4552433732313a20617070726f76652063616c6c6572206973206e6f74206f7760008301527f6e6572206e6f7220617070726f76656420666f7220616c6c00000000000000006020830152604082019050919050565b6000612d13602a836136a9565b91507f4552433732313a2062616c616e636520717565727920666f7220746865207a6560008301527f726f2061646472657373000000000000000000000000000000000000000000006020830152604082019050919050565b6000612d796029836136a9565b91507f4552433732313a206f776e657220717565727920666f72206e6f6e657869737460008301527f656e7420746f6b656e00000000000000000000000000000000000000000000006020830152604082019050919050565b6000612ddf602e836136a9565b91507f45524337323155524953746f726167653a2055524920736574206f66206e6f6e60008301527f6578697374656e7420746f6b656e0000000000000000000000000000000000006020830152604082019050919050565b6000612e456020836136a9565b91507f4552433732313a206d696e7420746f20746865207a65726f20616464726573736000830152602082019050919050565b6000612e856023836136a9565b91507f796f7520646f206e6f74206f776e20746865207370656369666965642061727460008301527f69737400000000000000000000000000000000000000000000000000000000006020830152604082019050919050565b6000612eeb6031836136a9565b91507f45524337323155524953746f726167653a2055524920717565727920666f722060008301527f6e6f6e6578697374656e7420746f6b656e0000000000000000000000000000006020830152604082019050919050565b6000612f51602c836136a9565b91507f4552433732313a20617070726f76656420717565727920666f72206e6f6e657860008301527f697374656e7420746f6b656e00000000000000000000000000000000000000006020830152604082019050919050565b6000612fb76029836136a9565b91507f4552433732313a207472616e73666572206f6620746f6b656e2074686174206960008301527f73206e6f74206f776e00000000000000000000000000000000000000000000006020830152604082019050919050565b600061301d602f836136a9565b91507f4552433732314d657461646174613a2055524920717565727920666f72206e6f60008301527f6e6578697374656e7420746f6b656e00000000000000000000000000000000006020830152604082019050919050565b60006130836021836136a9565b91507f4552433732313a20617070726f76616c20746f2063757272656e74206f776e6560008301527f72000000000000000000000000000000000000000000000000000000000000006020830152604082019050919050565b60006130e9601b836136a9565b91507f746869732062616e6420697320616c72656164792061637469766500000000006000830152602082019050919050565b60006131296031836136a9565b91507f4552433732313a207472616e736665722063616c6c6572206973206e6f74206f60008301527f776e6572206e6f7220617070726f7665640000000000000000000000000000006020830152604082019050919050565b600061318f602c836136a9565b91507f455243373231456e756d657261626c653a20676c6f62616c20696e646578206f60008301527f7574206f6620626f756e647300000000000000000000000000000000000000006020830152604082019050919050565b60006131f56018836136a9565b91507f746869732062616e6420646f6573206e6f7420657869737400000000000000006000830152602082019050919050565b613231816137ea565b82525050565b60006132438285612a57565b915061324f8284612a57565b91508190509392505050565b600060208201905061327060008301846129c7565b92915050565b600060808201905061328b60008301876129c7565b61329860208301866129c7565b6132a56040830185613228565b81810360608301526132b781846129e5565b905095945050505050565b60006020820190506132d760008301846129d6565b92915050565b600060208201905081810360008301526132f78184612a1e565b905092915050565b6000602082019050818103600083015261331881612a88565b9050919050565b6000602082019050818103600083015261333881612aee565b9050919050565b6000602082019050818103600083015261335881612b54565b9050919050565b6000602082019050818103600083015261337881612b94565b9050919050565b6000602082019050818103600083015261339881612bfa565b9050919050565b600060208201905081810360008301526133b881612c3a565b9050919050565b600060208201905081810360008301526133d881612ca0565b9050919050565b600060208201905081810360008301526133f881612d06565b9050919050565b6000602082019050818103600083015261341881612d6c565b9050919050565b6000602082019050818103600083015261343881612dd2565b9050919050565b6000602082019050818103600083015261345881612e38565b9050919050565b6000602082019050818103600083015261347881612e78565b9050919050565b6000602082019050818103600083015261349881612ede565b9050919050565b600060208201905081810360008301526134b881612f44565b9050919050565b600060208201905081810360008301526134d881612faa565b9050919050565b600060208201905081810360008301526134f881613010565b9050919050565b6000602082019050818103600083015261351881613076565b9050919050565b60006020820190508181036000830152613538816130dc565b9050919050565b600060208201905081810360008301526135588161311c565b9050919050565b6000602082019050818103600083015261357881613182565b9050919050565b60006020820190508181036000830152613598816131e8565b9050919050565b60006020820190506135b46000830184613228565b92915050565b60006060820190506135cf6000830186613228565b6135dc6020830185613228565b6135e960408301846129c7565b949350505050565b6000604051905081810181811067ffffffffffffffff821117156136185761361761396f565b5b8060405250919050565b600067ffffffffffffffff82111561363d5761363c61396f565b5b601f19601f8301169050602081019050919050565b600067ffffffffffffffff82111561366d5761366c61396f565b5b601f19601f8301169050602081019050919050565b600081519050919050565b600081519050919050565b600082825260208201905092915050565b600082825260208201905092915050565b600081905092915050565b60006136d0826137ea565b91506136db836137ea565b9250827fffffffffffffffffffffffffffffffffffffffffffffffffffffffffffffffff038211156137105761370f6138e2565b5b828201905092915050565b6000613726826137ea565b9150613731836137ea565b92508261374157613740613911565b5b828204905092915050565b6000613757826137ea565b9150613762836137ea565b925082821015613775576137746138e2565b5b828203905092915050565b600061378b826137ca565b9050919050565b60008115159050919050565b60007fffffffff0000000000000000000000000000000000000000000000000000000082169050919050565b600073ffffffffffffffffffffffffffffffffffffffff82169050919050565b6000819050919050565b82818337600083830152505050565b60005b83811015613821578082015181840152602081019050613806565b83811115613830576000848401525b50505050565b6000600282049050600182168061384e57607f821691505b6020821081141561386257613861613940565b5b50919050565b6000613873826137ea565b91507fffffffffffffffffffffffffffffffffffffffffffffffffffffffffffffffff8214156138a6576138a56138e2565b5b600182019050919050565b60006138bc826137ea565b91506138c7836137ea565b9250826138d7576138d6613911565b5b828206905092915050565b7f4e487b7100000000000000000000000000000000000000000000000000000000600052601160045260246000fd5b7f4e487b7100000000000000000000000000000000000000000000000000000000600052601260045260246000fd5b7f4e487b7100000000000000000000000000000000000000000000000000000000600052602260045260246000fd5b7f4e487b7100000000000000000000000000000000000000000000000000000000600052604160045260246000fd5b6000601f19601f8301169050919050565b6139b881613780565b81146139c357600080fd5b50565b6139cf81613792565b81146139da57600080fd5b50565b6139e68161379e565b81146139f157600080fd5b50565b6139fd816137ea565b8114613a0857600080fd5b5056fea264697066735822122060c8f836a8de3da2b61a7d2f078a42f7746b901c86ea32cb5331401e3095b62764736f6c63430008000033",
  "linkReferences": {},
  "deployedLinkReferences": {}
}