{
  "_format": "hh-sol-artifact-1",
  "contractName": "USMTrackToken",
  "sourceName": "contracts/USMTrackToken.sol",
  "abi": [
    {
      "inputs": [
        {
          "internalType": "string",
          "name": "name",
          "type": "string"
        },
        {
          "internalType": "string",
          "name": "symbol",
          "type": "string"
        },
        {
          "internalType": "address",
          "name": "_artist",
          "type": "address"
        },
        {
          "internalType": "address",
          "name": "_band",
          "type": "address"
        }
      ],
      "stateMutability": "nonpayable",
      "type": "constructor"
    },
    {
      "anonymous": false,
      "inputs": [
        {
          "indexed": true,
          "internalType": "address",
          "name": "owner",
          "type": "address"
        },
        {
          "indexed": true,
          "internalType": "address",
          "name": "approved",
          "type": "address"
        },
        {
          "indexed": true,
          "internalType": "uint256",
          "name": "tokenId",
          "type": "uint256"
        }
      ],
      "name": "Approval",
      "type": "event"
    },
    {
      "anonymous": false,
      "inputs": [
        {
          "indexed": true,
          "internalType": "address",
          "name": "owner",
          "type": "address"
        },
        {
          "indexed": true,
          "internalType": "address",
          "name": "operator",
          "type": "address"
        },
        {
          "indexed": false,
          "internalType": "bool",
          "name": "approved",
          "type": "bool"
        }
      ],
      "name": "ApprovalForAll",
      "type": "event"
    },
    {
      "anonymous": false,
      "inputs": [
        {
          "indexed": true,
          "internalType": "address",
          "name": "from",
          "type": "address"
        },
        {
          "indexed": true,
          "internalType": "address",
          "name": "to",
          "type": "address"
        },
        {
          "indexed": true,
          "internalType": "uint256",
          "name": "tokenId",
          "type": "uint256"
        }
      ],
      "name": "Transfer",
      "type": "event"
    },
    {
      "anonymous": false,
      "inputs": [
        {
          "indexed": false,
          "internalType": "uint256",
          "name": "trackId",
          "type": "uint256"
        },
        {
          "indexed": false,
          "internalType": "uint256",
          "name": "bandId",
          "type": "uint256"
        },
        {
          "indexed": false,
          "internalType": "uint256",
          "name": "artistId",
          "type": "uint256"
        },
        {
          "indexed": false,
          "internalType": "address",
          "name": "owner",
          "type": "address"
        }
      ],
      "name": "trackCreated",
      "type": "event"
    },
    {
      "inputs": [
        {
          "internalType": "address",
          "name": "to",
          "type": "address"
        },
        {
          "internalType": "uint256",
          "name": "tokenId",
          "type": "uint256"
        }
      ],
      "name": "approve",
      "outputs": [],
      "stateMutability": "nonpayable",
      "type": "function"
    },
    {
      "inputs": [
        {
          "internalType": "address",
          "name": "owner",
          "type": "address"
        }
      ],
      "name": "balanceOf",
      "outputs": [
        {
          "internalType": "uint256",
          "name": "",
          "type": "uint256"
        }
      ],
      "stateMutability": "view",
      "type": "function"
    },
    {
      "inputs": [
        {
          "internalType": "uint256",
          "name": "artistId",
          "type": "uint256"
        },
        {
          "internalType": "uint256",
          "name": "bandId",
          "type": "uint256"
        },
        {
          "internalType": "string",
          "name": "_uri",
          "type": "string"
        }
      ],
      "name": "createTrack",
      "outputs": [
        {
          "internalType": "uint256",
          "name": "",
          "type": "uint256"
        }
      ],
      "stateMutability": "nonpayable",
      "type": "function"
    },
    {
      "inputs": [
        {
          "internalType": "uint256",
          "name": "tokenId",
          "type": "uint256"
        }
      ],
      "name": "getApproved",
      "outputs": [
        {
          "internalType": "address",
          "name": "",
          "type": "address"
        }
      ],
      "stateMutability": "view",
      "type": "function"
    },
    {
      "inputs": [
        {
          "internalType": "address",
          "name": "owner",
          "type": "address"
        },
        {
          "internalType": "address",
          "name": "operator",
          "type": "address"
        }
      ],
      "name": "isApprovedForAll",
      "outputs": [
        {
          "internalType": "bool",
          "name": "",
          "type": "bool"
        }
      ],
      "stateMutability": "view",
      "type": "function"
    },
    {
      "inputs": [],
      "name": "name",
      "outputs": [
        {
          "internalType": "string",
          "name": "",
          "type": "string"
        }
      ],
      "stateMutability": "view",
      "type": "function"
    },
    {
      "inputs": [
        {
          "internalType": "uint256",
          "name": "tokenId",
          "type": "uint256"
        }
      ],
      "name": "ownerOf",
      "outputs": [
        {
          "internalType": "address",
          "name": "",
          "type": "address"
        }
      ],
      "stateMutability": "view",
      "type": "function"
    },
    {
      "inputs": [
        {
          "internalType": "address",
          "name": "from",
          "type": "address"
        },
        {
          "internalType": "address",
          "name": "to",
          "type": "address"
        },
        {
          "internalType": "uint256",
          "name": "tokenId",
          "type": "uint256"
        }
      ],
      "name": "safeTransferFrom",
      "outputs": [],
      "stateMutability": "nonpayable",
      "type": "function"
    },
    {
      "inputs": [
        {
          "internalType": "address",
          "name": "from",
          "type": "address"
        },
        {
          "internalType": "address",
          "name": "to",
          "type": "address"
        },
        {
          "internalType": "uint256",
          "name": "tokenId",
          "type": "uint256"
        },
        {
          "internalType": "bytes",
          "name": "_data",
          "type": "bytes"
        }
      ],
      "name": "safeTransferFrom",
      "outputs": [],
      "stateMutability": "nonpayable",
      "type": "function"
    },
    {
      "inputs": [
        {
          "internalType": "address",
          "name": "operator",
          "type": "address"
        },
        {
          "internalType": "bool",
          "name": "approved",
          "type": "bool"
        }
      ],
      "name": "setApprovalForAll",
      "outputs": [],
      "stateMutability": "nonpayable",
      "type": "function"
    },
    {
      "inputs": [
        {
          "internalType": "bytes4",
          "name": "interfaceId",
          "type": "bytes4"
        }
      ],
      "name": "supportsInterface",
      "outputs": [
        {
          "internalType": "bool",
          "name": "",
          "type": "bool"
        }
      ],
      "stateMutability": "view",
      "type": "function"
    },
    {
      "inputs": [],
      "name": "symbol",
      "outputs": [
        {
          "internalType": "string",
          "name": "",
          "type": "string"
        }
      ],
      "stateMutability": "view",
      "type": "function"
    },
    {
      "inputs": [
        {
          "internalType": "uint256",
          "name": "index",
          "type": "uint256"
        }
      ],
      "name": "tokenByIndex",
      "outputs": [
        {
          "internalType": "uint256",
          "name": "",
          "type": "uint256"
        }
      ],
      "stateMutability": "view",
      "type": "function"
    },
    {
      "inputs": [
        {
          "internalType": "address",
          "name": "owner",
          "type": "address"
        },
        {
          "internalType": "uint256",
          "name": "index",
          "type": "uint256"
        }
      ],
      "name": "tokenOfOwnerByIndex",
      "outputs": [
        {
          "internalType": "uint256",
          "name": "",
          "type": "uint256"
        }
      ],
      "stateMutability": "view",
      "type": "function"
    },
    {
      "inputs": [
        {
          "internalType": "uint256",
          "name": "tokenId",
          "type": "uint256"
        }
      ],
      "name": "tokenURI",
      "outputs": [
        {
          "internalType": "string",
          "name": "",
          "type": "string"
        }
      ],
      "stateMutability": "view",
      "type": "function"
    },
    {
      "inputs": [],
      "name": "totalSupply",
      "outputs": [
        {
          "internalType": "uint256",
          "name": "",
          "type": "uint256"
        }
      ],
      "stateMutability": "view",
      "type": "function"
    },
    {
      "inputs": [
        {
          "internalType": "address",
          "name": "from",
          "type": "address"
        },
        {
          "internalType": "address",
          "name": "to",
          "type": "address"
        },
        {
          "internalType": "uint256",
          "name": "tokenId",
          "type": "uint256"
        }
      ],
      "name": "transferFrom",
      "outputs": [],
      "stateMutability": "nonpayable",
      "type": "function"
    }
  ],
  "bytecode": "0x60806040523480156200001157600080fd5b5060405162003ddc38038062003ddc833981810160405281019062000037919062000232565b8383816000908051906020019062000051929190620000f9565b5080600190805190602001906200006a929190620000f9565b50505081600c60006101000a81548173ffffffffffffffffffffffffffffffffffffffff021916908373ffffffffffffffffffffffffffffffffffffffff16021790555080600d60006101000a81548173ffffffffffffffffffffffffffffffffffffffff021916908373ffffffffffffffffffffffffffffffffffffffff160217905550505050506200044f565b8280546200010790620003a1565b90600052602060002090601f0160209004810192826200012b576000855562000177565b82601f106200014657805160ff191683800117855562000177565b8280016001018555821562000177579182015b828111156200017657825182559160200191906001019062000159565b5b5090506200018691906200018a565b5090565b5b80821115620001a55760008160009055506001016200018b565b5090565b6000620001c0620001ba8462000304565b620002d0565b905082815260208101848484011115620001d957600080fd5b620001e68482856200036b565b509392505050565b600081519050620001ff8162000435565b92915050565b600082601f8301126200021757600080fd5b815162000229848260208601620001a9565b91505092915050565b600080600080608085870312156200024957600080fd5b600085015167ffffffffffffffff8111156200026457600080fd5b620002728782880162000205565b945050602085015167ffffffffffffffff8111156200029057600080fd5b6200029e8782880162000205565b9350506040620002b187828801620001ee565b9250506060620002c487828801620001ee565b91505092959194509250565b6000604051905081810181811067ffffffffffffffff82111715620002fa57620002f962000406565b5b8060405250919050565b600067ffffffffffffffff82111562000322576200032162000406565b5b601f19601f8301169050602081019050919050565b600062000344826200034b565b9050919050565b600073ffffffffffffffffffffffffffffffffffffffff82169050919050565b60005b838110156200038b5780820151818401526020810190506200036e565b838111156200039b576000848401525b50505050565b60006002820490506001821680620003ba57607f821691505b60208210811415620003d157620003d0620003d7565b5b50919050565b7f4e487b7100000000000000000000000000000000000000000000000000000000600052602260045260246000fd5b7f4e487b7100000000000000000000000000000000000000000000000000000000600052604160045260246000fd5b620004408162000337565b81146200044c57600080fd5b50565b61397d806200045f6000396000f3fe608060405234801561001057600080fd5b506004361061010b5760003560e01c80634f6ccce7116100a2578063a22cb46511610071578063a22cb465146102de578063b88d4fde146102fa578063c87b56dd14610316578063e985e9c514610346578063f1543636146103765761010b565b80634f6ccce7146102305780636352211e1461026057806370a082311461029057806395d89b41146102c05761010b565b806318160ddd116100de57806318160ddd146101aa57806323b872dd146101c85780632f745c59146101e457806342842e0e146102145761010b565b806301ffc9a71461011057806306fdde0314610140578063081812fc1461015e578063095ea7b31461018e575b600080fd5b61012a6004803603810190610125919061278a565b6103a6565b60405161013791906131a7565b60405180910390f35b6101486103b8565b60405161015591906131c2565b60405180910390f35b610178600480360381019061017391906127dc565b61044a565b6040516101859190613140565b60405180910390f35b6101a860048036038101906101a39190612725565b6104cf565b005b6101b26105e7565b6040516101bf91906134a4565b60405180910390f35b6101e260048036038101906101dd919061261f565b6105f4565b005b6101fe60048036038101906101f99190612725565b610654565b60405161020b91906134a4565b60405180910390f35b61022e6004803603810190610229919061261f565b6106f9565b005b61024a600480360381019061024591906127dc565b610719565b60405161025791906134a4565b60405180910390f35b61027a600480360381019061027591906127dc565b6107b0565b6040516102879190613140565b60405180910390f35b6102aa60048036038101906102a59190612591565b610862565b6040516102b791906134a4565b60405180910390f35b6102c861091a565b6040516102d591906131c2565b60405180910390f35b6102f860048036038101906102f391906126e9565b6109ac565b005b610314600480360381019061030f919061266e565b610b2d565b005b610330600480360381019061032b91906127dc565b610b8f565b60405161033d91906131c2565b60405180910390f35b610360600480360381019061035b91906125e3565b610ba1565b60405161036d91906131a7565b60405180910390f35b610390600480360381019061038b9190612805565b610c35565b60405161039d91906134a4565b60405180910390f35b60006103b182610e0b565b9050919050565b6060600080546103c790613772565b80601f01602080910402602001604051908101604052809291908181526020018280546103f390613772565b80156104405780601f1061041557610100808354040283529160200191610440565b820191906000526020600020905b81548152906001019060200180831161042357829003601f168201915b5050505050905090565b600061045582610e85565b610494576040517f08c379a000000000000000000000000000000000000000000000000000000000815260040161048b906133a4565b60405180910390fd5b6004600083815260200190815260200160002060009054906101000a900473ffffffffffffffffffffffffffffffffffffffff169050919050565b60006104da826107b0565b90508073ffffffffffffffffffffffffffffffffffffffff168373ffffffffffffffffffffffffffffffffffffffff16141561054b576040517f08c379a000000000000000000000000000000000000000000000000000000000815260040161054290613404565b60405180910390fd5b8073ffffffffffffffffffffffffffffffffffffffff1661056a610ef1565b73ffffffffffffffffffffffffffffffffffffffff161480610599575061059881610593610ef1565b610ba1565b5b6105d8576040517f08c379a00000000000000000000000000000000000000000000000000000000081526004016105cf906132c4565b60405180910390fd5b6105e28383610ef9565b505050565b6000600880549050905090565b6106056105ff610ef1565b82610fb2565b610644576040517f08c379a000000000000000000000000000000000000000000000000000000000815260040161063b90613464565b60405180910390fd5b61064f838383611090565b505050565b600061065f83610862565b82106106a0576040517f08c379a0000000000000000000000000000000000000000000000000000000008152600401610697906131e4565b60405180910390fd5b600660008473ffffffffffffffffffffffffffffffffffffffff1673ffffffffffffffffffffffffffffffffffffffff168152602001908152602001600020600083815260200190815260200160002054905092915050565b61071483838360405180602001604052806000815250610b2d565b505050565b60006107236105e7565b8210610764576040517f08c379a000000000000000000000000000000000000000000000000000000000815260040161075b90613484565b60405180910390fd5b6008828154811061079e577f4e487b7100000000000000000000000000000000000000000000000000000000600052603260045260246000fd5b90600052602060002001549050919050565b6000806002600084815260200190815260200160002060009054906101000a900473ffffffffffffffffffffffffffffffffffffffff169050600073ffffffffffffffffffffffffffffffffffffffff168173ffffffffffffffffffffffffffffffffffffffff161415610859576040517f08c379a000000000000000000000000000000000000000000000000000000000815260040161085090613304565b60405180910390fd5b80915050919050565b60008073ffffffffffffffffffffffffffffffffffffffff168273ffffffffffffffffffffffffffffffffffffffff1614156108d3576040517f08c379a00000000000000000000000000000000000000000000000000000000081526004016108ca906132e4565b60405180910390fd5b600360008373ffffffffffffffffffffffffffffffffffffffff1673ffffffffffffffffffffffffffffffffffffffff168152602001908152602001600020549050919050565b60606001805461092990613772565b80601f016020809104026020016040519081016040528092919081815260200182805461095590613772565b80156109a25780601f10610977576101008083540402835291602001916109a2565b820191906000526020600020905b81548152906001019060200180831161098557829003601f168201915b5050505050905090565b6109b4610ef1565b73ffffffffffffffffffffffffffffffffffffffff168273ffffffffffffffffffffffffffffffffffffffff161415610a22576040517f08c379a0000000000000000000000000000000000000000000000000000000008152600401610a1990613264565b60405180910390fd5b8060056000610a2f610ef1565b73ffffffffffffffffffffffffffffffffffffffff1673ffffffffffffffffffffffffffffffffffffffff16815260200190815260200160002060008473ffffffffffffffffffffffffffffffffffffffff1673ffffffffffffffffffffffffffffffffffffffff16815260200190815260200160002060006101000a81548160ff0219169083151502179055508173ffffffffffffffffffffffffffffffffffffffff16610adc610ef1565b73ffffffffffffffffffffffffffffffffffffffff167f17307eab39ab6107e8899845ad3d59bd9653f200f220920489ca2b5937696c3183604051610b2191906131a7565b60405180910390a35050565b610b3e610b38610ef1565b83610fb2565b610b7d576040517f08c379a0000000000000000000000000000000000000000000000000000000008152600401610b7490613464565b60405180910390fd5b610b89848484846112ec565b50505050565b6060610b9a82611348565b9050919050565b6000600560008473ffffffffffffffffffffffffffffffffffffffff1673ffffffffffffffffffffffffffffffffffffffff16815260200190815260200160002060008373ffffffffffffffffffffffffffffffffffffffff1673ffffffffffffffffffffffffffffffffffffffff16815260200190815260200160002060009054906101000a900460ff16905092915050565b6000610c408461149a565b610c7f576040517f08c379a0000000000000000000000000000000000000000000000000000000008152600401610c7690613364565b60405180910390fd5b610c89838561157c565b610cc8576040517f08c379a0000000000000000000000000000000000000000000000000000000008152600401610cbf90613444565b60405180910390fd5b610cd28385611633565b15610d12576040517f08c379a0000000000000000000000000000000000000000000000000000000008152600401610d0990613424565b60405180910390fd5b610d1b8361166f565b610d5a576040517f08c379a0000000000000000000000000000000000000000000000000000000008152600401610d51906132a4565b60405180910390fd5b610d64600b611723565b6000610d70600b611739565b9050610d7c3382611747565b610d868184611915565b6001600e6000868152602001908152602001600020600087815260200190815260200160002060006101000a81548160ff0219169083151502179055507f65eabf8f7f240d3a7f5e15ddd7e2c1f4d639aea00746ea5729d8daa8ec4ef41f81858733604051610df894939291906134e8565b60405180910390a1809150509392505050565b60007f780e9d63000000000000000000000000000000000000000000000000000000007bffffffffffffffffffffffffffffffffffffffffffffffffffffffff1916827bffffffffffffffffffffffffffffffffffffffffffffffffffffffff19161480610e7e5750610e7d82611989565b5b9050919050565b60008073ffffffffffffffffffffffffffffffffffffffff166002600084815260200190815260200160002060009054906101000a900473ffffffffffffffffffffffffffffffffffffffff1673ffffffffffffffffffffffffffffffffffffffff1614159050919050565b600033905090565b816004600083815260200190815260200160002060006101000a81548173ffffffffffffffffffffffffffffffffffffffff021916908373ffffffffffffffffffffffffffffffffffffffff160217905550808273ffffffffffffffffffffffffffffffffffffffff16610f6c836107b0565b73ffffffffffffffffffffffffffffffffffffffff167f8c5be1e5ebec7d5bd14f71427d1e84f3dd0314c0f7b2291e5b200ac8c7c3b92560405160405180910390a45050565b6000610fbd82610e85565b610ffc576040517f08c379a0000000000000000000000000000000000000000000000000000000008152600401610ff390613284565b60405180910390fd5b6000611007836107b0565b90508073ffffffffffffffffffffffffffffffffffffffff168473ffffffffffffffffffffffffffffffffffffffff16148061107657508373ffffffffffffffffffffffffffffffffffffffff1661105e8461044a565b73ffffffffffffffffffffffffffffffffffffffff16145b8061108757506110868185610ba1565b5b91505092915050565b8273ffffffffffffffffffffffffffffffffffffffff166110b0826107b0565b73ffffffffffffffffffffffffffffffffffffffff1614611106576040517f08c379a00000000000000000000000000000000000000000000000000000000081526004016110fd906133c4565b60405180910390fd5b600073ffffffffffffffffffffffffffffffffffffffff168273ffffffffffffffffffffffffffffffffffffffff161415611176576040517f08c379a000000000000000000000000000000000000000000000000000000000815260040161116d90613244565b60405180910390fd5b611181838383611a6b565b61118c600082610ef9565b6001600360008573ffffffffffffffffffffffffffffffffffffffff1673ffffffffffffffffffffffffffffffffffffffff16815260200190815260200160002060008282546111dc9190613688565b925050819055506001600360008473ffffffffffffffffffffffffffffffffffffffff1673ffffffffffffffffffffffffffffffffffffffff16815260200190815260200160002060008282546112339190613601565b92505081905550816002600083815260200190815260200160002060006101000a81548173ffffffffffffffffffffffffffffffffffffffff021916908373ffffffffffffffffffffffffffffffffffffffff160217905550808273ffffffffffffffffffffffffffffffffffffffff168473ffffffffffffffffffffffffffffffffffffffff167fddf252ad1be2c89b69c2b068fc378daa952ba7f163c4a11628f55a4df523b3ef60405160405180910390a4505050565b6112f7848484611090565b61130384848484611a7b565b611342576040517f08c379a000000000000000000000000000000000000000000000000000000000815260040161133990613204565b60405180910390fd5b50505050565b606061135382610e85565b611392576040517f08c379a000000000000000000000000000000000000000000000000000000000815260040161138990613384565b60405180910390fd5b6000600a600084815260200190815260200160002080546113b290613772565b80601f01602080910402602001604051908101604052809291908181526020018280546113de90613772565b801561142b5780601f106114005761010080835404028352916020019161142b565b820191906000526020600020905b81548152906001019060200180831161140e57829003601f168201915b50505050509050600061143c611c12565b9050600081511415611452578192505050611495565b60008251111561148757808260405160200161146f92919061311c565b60405160208183030381529060405292505050611495565b61149084611c29565b925050505b919050565b60003373ffffffffffffffffffffffffffffffffffffffff16600c60009054906101000a900473ffffffffffffffffffffffffffffffffffffffff1673ffffffffffffffffffffffffffffffffffffffff16636352211e846040518263ffffffff1660e01b815260040161150e91906134a4565b60206040518083038186803b15801561152657600080fd5b505afa15801561153a573d6000803e3d6000fd5b505050506040513d601f19601f8201168201806040525081019061155e91906125ba565b73ffffffffffffffffffffffffffffffffffffffff16149050919050565b6000600d60009054906101000a900473ffffffffffffffffffffffffffffffffffffffff1673ffffffffffffffffffffffffffffffffffffffff16638fdd453f84846040518363ffffffff1660e01b81526004016115db9291906134bf565b60206040518083038186803b1580156115f357600080fd5b505afa158015611607573d6000803e3d6000fd5b505050506040513d601f19601f8201168201806040525081019061162b9190612761565b905092915050565b6000600e6000848152602001908152602001600020600083815260200190815260200160002060009054906101000a900460ff16905092915050565b6000600d60009054906101000a900473ffffffffffffffffffffffffffffffffffffffff1673ffffffffffffffffffffffffffffffffffffffff1663893c329d836040518263ffffffff1660e01b81526004016116cc91906134a4565b60206040518083038186803b1580156116e457600080fd5b505afa1580156116f8573d6000803e3d6000fd5b505050506040513d601f19601f8201168201806040525081019061171c9190612761565b9050919050565b6001816000016000828254019250508190555050565b600081600001549050919050565b600073ffffffffffffffffffffffffffffffffffffffff168273ffffffffffffffffffffffffffffffffffffffff1614156117b7576040517f08c379a00000000000000000000000000000000000000000000000000000000081526004016117ae90613344565b60405180910390fd5b6117c081610e85565b15611800576040517f08c379a00000000000000000000000000000000000000000000000000000000081526004016117f790613224565b60405180910390fd5b61180c60008383611a6b565b6001600360008473ffffffffffffffffffffffffffffffffffffffff1673ffffffffffffffffffffffffffffffffffffffff168152602001908152602001600020600082825461185c9190613601565b92505081905550816002600083815260200190815260200160002060006101000a81548173ffffffffffffffffffffffffffffffffffffffff021916908373ffffffffffffffffffffffffffffffffffffffff160217905550808273ffffffffffffffffffffffffffffffffffffffff16600073ffffffffffffffffffffffffffffffffffffffff167fddf252ad1be2c89b69c2b068fc378daa952ba7f163c4a11628f55a4df523b3ef60405160405180910390a45050565b61191e82610e85565b61195d576040517f08c379a000000000000000000000000000000000000000000000000000000000815260040161195490613324565b60405180910390fd5b80600a6000848152602001908152602001600020908051906020019061198492919061238b565b505050565b60007f80ac58cd000000000000000000000000000000000000000000000000000000007bffffffffffffffffffffffffffffffffffffffffffffffffffffffff1916827bffffffffffffffffffffffffffffffffffffffffffffffffffffffff19161480611a5457507f5b5e139f000000000000000000000000000000000000000000000000000000007bffffffffffffffffffffffffffffffffffffffffffffffffffffffff1916827bffffffffffffffffffffffffffffffffffffffffffffffffffffffff1916145b80611a645750611a6382611cd0565b5b9050919050565b611a76838383611d3a565b505050565b6000611a9c8473ffffffffffffffffffffffffffffffffffffffff16611e4e565b15611c05578373ffffffffffffffffffffffffffffffffffffffff1663150b7a02611ac5610ef1565b8786866040518563ffffffff1660e01b8152600401611ae7949392919061315b565b602060405180830381600087803b158015611b0157600080fd5b505af1925050508015611b3257506040513d601f19601f82011682018060405250810190611b2f91906127b3565b60015b611bb5573d8060008114611b62576040519150601f19603f3d011682016040523d82523d6000602084013e611b67565b606091505b50600081511415611bad576040517f08c379a0000000000000000000000000000000000000000000000000000000008152600401611ba490613204565b60405180910390fd5b805181602001fd5b63150b7a0260e01b7bffffffffffffffffffffffffffffffffffffffffffffffffffffffff1916817bffffffffffffffffffffffffffffffffffffffffffffffffffffffff191614915050611c0a565b600190505b949350505050565b606060405180602001604052806000815250905090565b6060611c3482610e85565b611c73576040517f08c379a0000000000000000000000000000000000000000000000000000000008152600401611c6a906133e4565b60405180910390fd5b6000611c7d611c12565b90506000815111611c9d5760405180602001604052806000815250611cc8565b80611ca784611e61565b604051602001611cb892919061311c565b6040516020818303038152906040525b915050919050565b60007f01ffc9a7000000000000000000000000000000000000000000000000000000007bffffffffffffffffffffffffffffffffffffffffffffffffffffffff1916827bffffffffffffffffffffffffffffffffffffffffffffffffffffffff1916149050919050565b611d4583838361200e565b600073ffffffffffffffffffffffffffffffffffffffff168373ffffffffffffffffffffffffffffffffffffffff161415611d8857611d8381612013565b611dc7565b8173ffffffffffffffffffffffffffffffffffffffff168373ffffffffffffffffffffffffffffffffffffffff1614611dc657611dc5838261205c565b5b5b600073ffffffffffffffffffffffffffffffffffffffff168273ffffffffffffffffffffffffffffffffffffffff161415611e0a57611e05816121c9565b611e49565b8273ffffffffffffffffffffffffffffffffffffffff168273ffffffffffffffffffffffffffffffffffffffff1614611e4857611e47828261230c565b5b5b505050565b600080823b905060008111915050919050565b60606000821415611ea9576040518060400160405280600181526020017f30000000000000000000000000000000000000000000000000000000000000008152509050612009565b600082905060005b60008214611edb578080611ec4906137a4565b915050600a82611ed49190613657565b9150611eb1565b60008167ffffffffffffffff811115611f1d577f4e487b7100000000000000000000000000000000000000000000000000000000600052604160045260246000fd5b6040519080825280601f01601f191660200182016040528015611f4f5781602001600182028036833780820191505090505b5090505b6000851461200257600182611f689190613688565b9150600a85611f7791906137ed565b6030611f839190613601565b60f81b818381518110611fbf577f4e487b7100000000000000000000000000000000000000000000000000000000600052603260045260246000fd5b60200101907effffffffffffffffffffffffffffffffffffffffffffffffffffffffffffff1916908160001a905350600a85611ffb9190613657565b9450611f53565b8093505050505b919050565b505050565b6008805490506009600083815260200190815260200160002081905550600881908060018154018082558091505060019003906000526020600020016000909190919091505550565b6000600161206984610862565b6120739190613688565b9050600060076000848152602001908152602001600020549050818114612158576000600660008673ffffffffffffffffffffffffffffffffffffffff1673ffffffffffffffffffffffffffffffffffffffff168152602001908152602001600020600084815260200190815260200160002054905080600660008773ffffffffffffffffffffffffffffffffffffffff1673ffffffffffffffffffffffffffffffffffffffff168152602001908152602001600020600084815260200190815260200160002081905550816007600083815260200190815260200160002081905550505b6007600084815260200190815260200160002060009055600660008573ffffffffffffffffffffffffffffffffffffffff1673ffffffffffffffffffffffffffffffffffffffff16815260200190815260200160002060008381526020019081526020016000206000905550505050565b600060016008805490506121dd9190613688565b9050600060096000848152602001908152602001600020549050600060088381548110612233577f4e487b7100000000000000000000000000000000000000000000000000000000600052603260045260246000fd5b90600052602060002001549050806008838154811061227b577f4e487b7100000000000000000000000000000000000000000000000000000000600052603260045260246000fd5b9060005260206000200181905550816009600083815260200190815260200160002081905550600960008581526020019081526020016000206000905560088054806122f0577f4e487b7100000000000000000000000000000000000000000000000000000000600052603160045260246000fd5b6001900381819060005260206000200160009055905550505050565b600061231783610862565b905081600660008573ffffffffffffffffffffffffffffffffffffffff1673ffffffffffffffffffffffffffffffffffffffff168152602001908152602001600020600083815260200190815260200160002081905550806007600084815260200190815260200160002081905550505050565b82805461239790613772565b90600052602060002090601f0160209004810192826123b95760008555612400565b82601f106123d257805160ff1916838001178555612400565b82800160010185558215612400579182015b828111156123ff5782518255916020019190600101906123e4565b5b50905061240d9190612411565b5090565b5b8082111561242a576000816000905550600101612412565b5090565b600061244161243c8461355e565b61352d565b90508281526020810184848401111561245957600080fd5b612464848285613730565b509392505050565b600061247f61247a8461358e565b61352d565b90508281526020810184848401111561249757600080fd5b6124a2848285613730565b509392505050565b6000813590506124b9816138eb565b92915050565b6000815190506124ce816138eb565b92915050565b6000813590506124e381613902565b92915050565b6000815190506124f881613902565b92915050565b60008135905061250d81613919565b92915050565b60008151905061252281613919565b92915050565b600082601f83011261253957600080fd5b813561254984826020860161242e565b91505092915050565b600082601f83011261256357600080fd5b813561257384826020860161246c565b91505092915050565b60008135905061258b81613930565b92915050565b6000602082840312156125a357600080fd5b60006125b1848285016124aa565b91505092915050565b6000602082840312156125cc57600080fd5b60006125da848285016124bf565b91505092915050565b600080604083850312156125f657600080fd5b6000612604858286016124aa565b9250506020612615858286016124aa565b9150509250929050565b60008060006060848603121561263457600080fd5b6000612642868287016124aa565b9350506020612653868287016124aa565b92505060406126648682870161257c565b9150509250925092565b6000806000806080858703121561268457600080fd5b6000612692878288016124aa565b94505060206126a3878288016124aa565b93505060406126b48782880161257c565b925050606085013567ffffffffffffffff8111156126d157600080fd5b6126dd87828801612528565b91505092959194509250565b600080604083850312156126fc57600080fd5b600061270a858286016124aa565b925050602061271b858286016124d4565b9150509250929050565b6000806040838503121561273857600080fd5b6000612746858286016124aa565b92505060206127578582860161257c565b9150509250929050565b60006020828403121561277357600080fd5b6000612781848285016124e9565b91505092915050565b60006020828403121561279c57600080fd5b60006127aa848285016124fe565b91505092915050565b6000602082840312156127c557600080fd5b60006127d384828501612513565b91505092915050565b6000602082840312156127ee57600080fd5b60006127fc8482850161257c565b91505092915050565b60008060006060848603121561281a57600080fd5b60006128288682870161257c565b93505060206128398682870161257c565b925050604084013567ffffffffffffffff81111561285657600080fd5b61286286828701612552565b9150509250925092565b612875816136bc565b82525050565b612884816136ce565b82525050565b6000612895826135be565b61289f81856135d4565b93506128af81856020860161373f565b6128b8816138da565b840191505092915050565b60006128ce826135c9565b6128d881856135e5565b93506128e881856020860161373f565b6128f1816138da565b840191505092915050565b6000612907826135c9565b61291181856135f6565b935061292181856020860161373f565b80840191505092915050565b600061293a602b836135e5565b91507f455243373231456e756d657261626c653a206f776e657220696e646578206f7560008301527f74206f6620626f756e64730000000000000000000000000000000000000000006020830152604082019050919050565b60006129a06032836135e5565b91507f4552433732313a207472616e7366657220746f206e6f6e20455243373231526560008301527f63656976657220696d706c656d656e74657200000000000000000000000000006020830152604082019050919050565b6000612a06601c836135e5565b91507f4552433732313a20746f6b656e20616c7265616479206d696e746564000000006000830152602082019050919050565b6000612a466024836135e5565b91507f4552433732313a207472616e7366657220746f20746865207a65726f2061646460008301527f72657373000000000000000000000000000000000000000000000000000000006020830152604082019050919050565b6000612aac6019836135e5565b91507f4552433732313a20617070726f766520746f2063616c6c6572000000000000006000830152602082019050919050565b6000612aec602c836135e5565b91507f4552433732313a206f70657261746f7220717565727920666f72206e6f6e657860008301527f697374656e7420746f6b656e00000000000000000000000000000000000000006020830152604082019050919050565b6000612b526017836135e5565b91507f746869732062616e64206973206e6f74206163746976650000000000000000006000830152602082019050919050565b6000612b926038836135e5565b91507f4552433732313a20617070726f76652063616c6c6572206973206e6f74206f7760008301527f6e6572206e6f7220617070726f76656420666f7220616c6c00000000000000006020830152604082019050919050565b6000612bf8602a836135e5565b91507f4552433732313a2062616c616e636520717565727920666f7220746865207a6560008301527f726f2061646472657373000000000000000000000000000000000000000000006020830152604082019050919050565b6000612c5e6029836135e5565b91507f4552433732313a206f776e657220717565727920666f72206e6f6e657869737460008301527f656e7420746f6b656e00000000000000000000000000000000000000000000006020830152604082019050919050565b6000612cc4602e836135e5565b91507f45524337323155524953746f726167653a2055524920736574206f66206e6f6e60008301527f6578697374656e7420746f6b656e0000000000000000000000000000000000006020830152604082019050919050565b6000612d2a6020836135e5565b91507f4552433732313a206d696e7420746f20746865207a65726f20616464726573736000830152602082019050919050565b6000612d6a6023836135e5565b91507f796f7520646f206e6f74206f776e20746865207370656369666965642061727460008301527f69737400000000000000000000000000000000000000000000000000000000006020830152604082019050919050565b6000612dd06031836135e5565b91507f45524337323155524953746f726167653a2055524920717565727920666f722060008301527f6e6f6e6578697374656e7420746f6b656e0000000000000000000000000000006020830152604082019050919050565b6000612e36602c836135e5565b91507f4552433732313a20617070726f76656420717565727920666f72206e6f6e657860008301527f697374656e7420746f6b656e00000000000000000000000000000000000000006020830152604082019050919050565b6000612e9c6029836135e5565b91507f4552433732313a207472616e73666572206f6620746f6b656e2074686174206960008301527f73206e6f74206f776e00000000000000000000000000000000000000000000006020830152604082019050919050565b6000612f02602f836135e5565b91507f4552433732314d657461646174613a2055524920717565727920666f72206e6f60008301527f6e6578697374656e7420746f6b656e00000000000000000000000000000000006020830152604082019050919050565b6000612f686021836135e5565b91507f4552433732313a20617070726f76616c20746f2063757272656e74206f776e6560008301527f72000000000000000000000000000000000000000000000000000000000000006020830152604082019050919050565b6000612fce601b836135e5565b91507f61727469737420616c7265616479206d696e74656420747261636b00000000006000830152602082019050919050565b600061300e6016836135e5565b91507f796f75277265206e6f7420696e207468652062616e64000000000000000000006000830152602082019050919050565b600061304e6031836135e5565b91507f4552433732313a207472616e736665722063616c6c6572206973206e6f74206f60008301527f776e6572206e6f7220617070726f7665640000000000000000000000000000006020830152604082019050919050565b60006130b4602c836135e5565b91507f455243373231456e756d657261626c653a20676c6f62616c20696e646578206f60008301527f7574206f6620626f756e647300000000000000000000000000000000000000006020830152604082019050919050565b61311681613726565b82525050565b600061312882856128fc565b915061313482846128fc565b91508190509392505050565b6000602082019050613155600083018461286c565b92915050565b6000608082019050613170600083018761286c565b61317d602083018661286c565b61318a604083018561310d565b818103606083015261319c818461288a565b905095945050505050565b60006020820190506131bc600083018461287b565b92915050565b600060208201905081810360008301526131dc81846128c3565b905092915050565b600060208201905081810360008301526131fd8161292d565b9050919050565b6000602082019050818103600083015261321d81612993565b9050919050565b6000602082019050818103600083015261323d816129f9565b9050919050565b6000602082019050818103600083015261325d81612a39565b9050919050565b6000602082019050818103600083015261327d81612a9f565b9050919050565b6000602082019050818103600083015261329d81612adf565b9050919050565b600060208201905081810360008301526132bd81612b45565b9050919050565b600060208201905081810360008301526132dd81612b85565b9050919050565b600060208201905081810360008301526132fd81612beb565b9050919050565b6000602082019050818103600083015261331d81612c51565b9050919050565b6000602082019050818103600083015261333d81612cb7565b9050919050565b6000602082019050818103600083015261335d81612d1d565b9050919050565b6000602082019050818103600083015261337d81612d5d565b9050919050565b6000602082019050818103600083015261339d81612dc3565b9050919050565b600060208201905081810360008301526133bd81612e29565b9050919050565b600060208201905081810360008301526133dd81612e8f565b9050919050565b600060208201905081810360008301526133fd81612ef5565b9050919050565b6000602082019050818103600083015261341d81612f5b565b9050919050565b6000602082019050818103600083015261343d81612fc1565b9050919050565b6000602082019050818103600083015261345d81613001565b9050919050565b6000602082019050818103600083015261347d81613041565b9050919050565b6000602082019050818103600083015261349d816130a7565b9050919050565b60006020820190506134b9600083018461310d565b92915050565b60006040820190506134d4600083018561310d565b6134e1602083018461310d565b9392505050565b60006080820190506134fd600083018761310d565b61350a602083018661310d565b613517604083018561310d565b613524606083018461286c565b95945050505050565b6000604051905081810181811067ffffffffffffffff82111715613554576135536138ab565b5b8060405250919050565b600067ffffffffffffffff821115613579576135786138ab565b5b601f19601f8301169050602081019050919050565b600067ffffffffffffffff8211156135a9576135a86138ab565b5b601f19601f8301169050602081019050919050565b600081519050919050565b600081519050919050565b600082825260208201905092915050565b600082825260208201905092915050565b600081905092915050565b600061360c82613726565b915061361783613726565b9250827fffffffffffffffffffffffffffffffffffffffffffffffffffffffffffffffff0382111561364c5761364b61381e565b5b828201905092915050565b600061366282613726565b915061366d83613726565b92508261367d5761367c61384d565b5b828204905092915050565b600061369382613726565b915061369e83613726565b9250828210156136b1576136b061381e565b5b828203905092915050565b60006136c782613706565b9050919050565b60008115159050919050565b60007fffffffff0000000000000000000000000000000000000000000000000000000082169050919050565b600073ffffffffffffffffffffffffffffffffffffffff82169050919050565b6000819050919050565b82818337600083830152505050565b60005b8381101561375d578082015181840152602081019050613742565b8381111561376c576000848401525b50505050565b6000600282049050600182168061378a57607f821691505b6020821081141561379e5761379d61387c565b5b50919050565b60006137af82613726565b91507fffffffffffffffffffffffffffffffffffffffffffffffffffffffffffffffff8214156137e2576137e161381e565b5b600182019050919050565b60006137f882613726565b915061380383613726565b9250826138135761381261384d565b5b828206905092915050565b7f4e487b7100000000000000000000000000000000000000000000000000000000600052601160045260246000fd5b7f4e487b7100000000000000000000000000000000000000000000000000000000600052601260045260246000fd5b7f4e487b7100000000000000000000000000000000000000000000000000000000600052602260045260246000fd5b7f4e487b7100000000000000000000000000000000000000000000000000000000600052604160045260246000fd5b6000601f19601f8301169050919050565b6138f4816136bc565b81146138ff57600080fd5b50565b61390b816136ce565b811461391657600080fd5b50565b613922816136da565b811461392d57600080fd5b50565b61393981613726565b811461394457600080fd5b5056fea2646970667358221220cfebbed0883e42adb1bbf8f125bba8bf9c0f2c435c943b32dc5f144ba0cc61e664736f6c63430008000033",
  "linkReferences": {},
  "deployedLinkReferences": {}
}